:100000000C9482020C94CB020C94CB020C94CB0285
:100010000C94CB020C94CB020C94CB020C94CB022C
:100020000C94CB020C94CB020C9489200C9460218C
:100030000C94CB020C94CB020C94CB020C94CB020C
:100040000C94CB020C94421B0C94CB020C94CB026C
:100050000C94CB020C94C31A0C94CB020C94CB02DC
:100060000C94CB020C94CB020C94CB020C94CB02DC
:100070000C94CB020C94CB020C94CB020C94CB02CC
:100080000C94CB020C94CB020C94CB020C94CB02BC
:100090000C9449030C94CB0200F001F009F002F03B
:1000A00002F002F004F005F006F007F003F009F0AA
:1000B00008F0AA00A900155C1E001F002000210006
:1000C0002200230024002500260027002D002E00FA
:1000D0002A003E044B003C003D002B0014001A0097
:1000E0000800150017001C0018000C001200130077
:1000F0002F00300031004C004E003E003F00005702
:1001000004001600070009000A000B000D000E0095
:100110000F00330034002800000000000000400001
:100120004100E10000001D001B0006001900050051
:1001300011001000360037003800E5000151520070
:10014000000042004300E000E200E3000000000085
:1001500000002C00000000000000E700E400025155
:10016000500051004F0001000100155C010001002A
:100170000100010001000100010001000100010077
:10018000010001000100C0000100010001000100A8
:100190000100010001000100010001000100010057
:1001A0000100010001000100010001000100010047
:1001B0000100E00001000100010001000100010058
:1001C0000100010001000100010001000000000029
:1001D0000000010001000100000001000100010019
:1001E0000100010001000100010001000100010007
:1001F00001000100000001000100010001000100F8
:1002000000000000000001000000000000000100EC
:1002100001000100010001000100010001003500A2
:100220003A003B003C003D003E003F0040004100E2
:1002300042004300440045004C0011504A000100B8
:10024000010000004B0052004E004A000000000078
:10025000000052000000000000000000000001004B
:100260004D00010001000100500051004F004D0001
:1002700000000000500051004F000000000000008E
:10028000000000000000010001000100000000006B
:100290004C000000000000000000A800AA00A90017
:1002A00000000353000001000000010001000100F4
:1002B000010001000000000000004E0000000000EE
:1002C0000000010001000100010001000100000028
:1002D0000000C000C300C400C50000000000000012
:1002E0000000000000000000BF5CC05CC15CC35C9B
:1002F000C95C00000000015C00000000000000007C
:1003000000000000000000000000000000000000ED
:100310000000C45CCA5C00000000C000C600C80049
:1003200000000000000000000000000000000000CD
:100330000000005C00000000000000000000CA0097
:100340000000C700C900000000000000000000001D
:10035000000000000000C0000000C55C00000000BC
:100360000000000000000000000000000000CC00C1
:1003700000000000000000000000C000C85CC65C77
:10038000C75C000000000000000000000001020443
:10039000060A0F17202C3A4A5D71879DB3C7DAE928
:1003A000F5FCFFFCF5E9DAC7B39D87715D4A3A2C8D
:1003B00020170F0A060402010000000000000000E0
:1003C00000000C034C0046004B00370038000000D2
:1003D00018034C0046004B006500790062006F0076
:1003E0006100720064007300000004030904090244
:1003F0005400030100A0FA090400000103010100F8
:100400000921110100012240000705810308000AAB
:10041000090401000103000000092111010001226B
:1004200036000705820308000A09040200010300E0
:100430000000092111010001223900070583032072
:1004400000011201100100000008EDFE60600100D3
:100450000102000105010906A101050719E029E7CC
:100460001500250195087501810205081901290566
:100470009505750191029501750391010507190014
:1004800029F71500250195F875018102C0050109BC
:1004900080A10185021601002603001A81002A832B
:1004A00000751095018100C0050C0901A1018503AB
:1004B000160100269C021A01002A9C027510950163
:1004C0008100C005010906A101050719E029E7150A
:1004D00000250195087501810295017508810105C6
:1004E000081901290595057501910295017503917A
:1004F000010507190029FF150026FF00950675085C
:100500008100C00011241FBECFEFD0E2DEBFCDBFFF
:1005100004B603FE27C08091FA029091FB02A091DD
:10052000FC02B091FD028730904BA740B04BD1F454
:100530001092FA021092FB021092FC021092FD023D
:1005400014BE84B7877F84BF0FB6F894A8958091B6
:100550006000886180936000109260000FBEE0E050
:10056000F0EF099511E0A0E0B1E0E2E4F9E400E089
:100570000BBF02C007900D92A83CB107D9F722E04B
:10058000A8ECB1E001C01D92AA3FB207E1F70E94BA
:10059000BF1D0C949F240C940000E5EDF2E0108246
:1005A0008FEF818312821092B9008CE08093B800A3
:1005B00085E08093BC0008958091D502982F9D7F9F
:1005C00079F0813059F48091D602803311F088336C
:1005D00029F480E98093BC000E94CD0280E0089558
:1005E00081E00895FF920F931F93CF93DF93EC0167
:1005F000162FF42E022F0E94DC028823B9F180E925
:100600008093BC000E94CD02F092D702D093DB020F
:10061000C093DA02612F70E07093E1026093E00210
:100620001092D9021092D8028091D502823019F529
:1006300081E08093D5028091D8029091D9029C01EB
:100640002F5F3F4F3093D9022093D802C80FD91F94
:1006500088818093BB0085E88093BC00011114C0A1
:10066000DF91CF911F910F91FF90089585E08A95BA
:10067000F1F70000C0CF81E08093D50285EAECCF8E
:1006800085E08A95F1F700000E94DC028823C1F31F
:10069000E7CF1F920F920FB60F9211240BB60F9255
:1006A0002F933F934F938F939F93EF93FF9380915B
:1006B000B900887F8832C9F120F5803109F4B1C0D2
:1006C00098F4882309F4B1C0883079F1FF91EF9153
:1006D0009F918F914F913F912F910F900BBE0F9053
:1006E0000FBE0F901F9018958831E1F0803271F79E
:1006F0008091D702882309F48EC08091B900887F49
:100700007FC08034B9F128F4803391F3883381F3CA
:10071000DDCF803509F444C0883509F45BC08834E6
:10072000A9F6E6CF83E08093D5022091D8023091DC
:10073000D9028091E0029091E102281739070CF06C
:100740005AC0E091DA02F091DB028091D8029091D8
:10075000D9029C012F5F3F4F3093D9022093D802DA
:10076000E80FF91F80818093BB0088EF8093D60249
:1007700085E813C084E08093D5028091DC029091DB
:10078000DD0201972091DE023091DF022817390740
:1007900064F788EF8093D60285EC8093BC0096CFF7
:1007A0008091DE029091DF029C012F5F3F4F3093DA
:1007B000DF022093DE024091BB008F539D4FFC016E
:1007C00040838091DC029091DD0201972817390760
:1007D00064F6DFCF8091DE029091DF029C012F5FF3
:1007E0003F4F3093DF022093DE022091BB008F53F6
:1007F0009D4FFC0120838091D702882329F08FEF41
:100800008093D60285EAC9CF1092D5028FEF8093EC
:10081000D60285E9C2CF1092D5028091B900887FB7
:10082000F6CF82E08093D50251CF1092D60210927B
:10083000D502EFCFCF93DF9300D01F92CDB7DEB7B5
:100840006F3F69F0880F886E89838DEF8A836B8391
:1008500021E040E063E0CE0101960E94F2020F9099
:100860000F900F90DF91CF910895FF920F931F93F8
:10087000CF93DF9300D01F92CDB7DEB7182FF42EA1
:10088000022F0E941A04110F186E1983FA820B832B
:1008900021E040E063E0CE0101960E94F2020F9059
:1008A0000F900F90DF91CF911F910F91FF900895BE
:1008B0000F931F93CF93DF93A82FB0E0B595A79523
:1008C000A370B0E0AA0FBB1FA853BE4F0D911C919F
:1008D0000115110581F1EFEFE60F4150A42FAA0F8A
:1008E0008170A82BC1E0D0E00E2E01C0CC0F0A947D
:1008F000EAF7A00FB12FB11D53969C915397211188
:100900001FC0C0959C2353969C93539795969C919A
:100910009597C9239596CC9360E0813009F468E0FF
:100920004295407FE40FE60FE00FF12FF11D27AB5A
:1009300081E0F801808BDF91CF911F910F91089595
:100940009C2B53969C93539795969C919597C92B66
:10095000E1CFEF92FF920F931F93CF93DF93182F66
:10096000062FE82FF0E0EE0FFF1FE853FE4FC08187
:10097000D181209729F18881882369F0FE011192A5
:100980007F016BE0812F0E941A0421E040E06FE0BC
:10099000C7010E94F2028889882391F0188A60E0DA
:1009A000812F0E941A04202F40E066EBCE01419671
:1009B000DF91CF911F910F91FF90EF900C94F20275
:1009C000DF91CF911F910F91FF90EF9008950F93BA
:1009D0001F93CF93DF930E94CD0208EC11E0C0E09B
:1009E000D1E0F801819191918F01009711F00E945F
:1009F000D92320E04AE06BE08C2F0E9435040E944E
:100A0000DC02882351F18091D6028F3FF1F461E03E
:100A100070E08EE891E00E942123FC01D80112973A
:100A20008D939C938C2F880F886E81831282818B8B
:100A3000128AD083D08B61E08C2F0E94A90421E020
:100A40004AE06BE08C2F0E943504CF5FC43049F63A
:100A5000DF91CF911F910F910895F5E0FA95F1F78D
:100A60000000CDCF0F931F93CF93DF93C82F883013
:100A700018F5882329F0EC2FF0E0E05BFE4FC081F1
:100A800011E00091B601D1E02C2F4D2F612F802F66
:100A90000E9458042C2F4D2F612F8091B7010E9486
:100AA0005804DF5FDA3081F71F5F1A3061F7DF919A
:100AB000CF911F910F910895C8E0DDCF0F931F9341
:100AC000CF9308EC11E0D801ED91FC91C1E0C08B0F
:100AD00061E080E00E94A904D8011696ED91FC9196
:100AE000C08B61E083E0CF911F910F910C94A9041A
:100AF000CF930FB6F894A895809160008861809399
:100B00006000109260000FBE80E00E9432050E94DB
:100B10005E05C9E10E945E052FEF84E39CE0215051
:100B200080409040E1F700C000000E945E052FEF7A
:100B300084E39CE0215080409040E1F700C0000039
:100B40000E945E052FEF84E39CE02150804090409E
:100B5000E1F700C000000E945E05C150D9F688E1AF
:100B60009CE00FB6F894A895809360000FBE909318
:100B70006000CF9108950C94E704CF93DF93EC01CC
:100B80000E945F1983FD0EC08F81882319F081E0D8
:100B90008093D0018CE20E94E20F8CE2DF91CF9132
:100BA0000C94BE10DF91CF9108951092D0018CE289
:100BB0000C94BE10FC018781882319F082E00C940C
:100BC000FD1789E20E94E20F89E20C94BE1082E0D8
:100BD0000C941E1890E080E0089508958091D00153
:100BE000882351F00E945F1983FD06C08CE20E94A9
:100BF000E20F8CE20C94BE10089520916E0221FF4A
:100C00000AC08C9741F40E945F1983FB882780F902
:100C100091E08927089581E00895089581E008957D
:100C20000E94BC132FEF84E39CE021508040904051
:100C3000E1F700C000000C94E91A0F931F93CF93C3
:100C4000DF938C01FC01C081D181CE010E949918F3
:100C5000BE010E948807EC01B8010E943D0D882367
:100C600009F456C0B801CE010E94A70D882309F4EB
:100C70004FC0B801CE010E94120A882309F448C06F
:100C8000C531FCE5DF0709F419C1B0F4C130ECE56A
:100C9000DE0709F443C008F053C0C115DC4599F1E3
:100CA00081E08093D6018093D701C801DF91CF9175
:100CB0001F910F910C940E06C43DECE5DE0709F47C
:100CC000DAC0A0F4C33DDC4559F7F80182818823DE
:100CD00009F4BAC01092D6010E948D1A9093D301E4
:100CE0008093D20182E00E940D1112C0C73DECE555
:100CF000DE07F1F0C83DDC4599F6F80182818823D2
:100D000039F082E01AC0F801828181110E94100638
:100D100080E0DF91CF911F910F910895F8018281BA
:100D20008823B1F380919B02816080939B02F0CF76
:100D3000F8018281882361F380E00E94521EE8CF8F
:100D4000F8018281882309F4B0CF0E94BD19811176
:100D500002C00E949E190E94D51990E09093E7026C
:100D60008093E602FE01E350FC458091E60281603B
:100D7000E231F105C8F4E154F94F0C941823D1067F
:100D8000DD06E106E506E906ED06F106F506F906DB
:100D9000FD060107050709070D07110715071907C4
:100DA0001D078091E60282608093E6028091E60250
:100DB0000E94D9190E94BC13ABCF8091E6028460D7
:100DC000F3CF8091E6028860EFCF8091E6028061E8
:100DD000EBCF8091E6028062E7CF8091E6028064EB
:100DE000E3CF8091E6028068DFCF8091E6028460E5
:100DF000EACF8091E6028E7FD7CF8091E6028D7F89
:100E0000D3CF8091E6028B7FCFCF8091E602877FA0
:100E1000CBCF8091E6028F7EC7CF8091E6028F7D97
:100E2000C3CF8091E6028F7BBFCF8091E6028F77A0
:100E3000BBCF8091E6028B7FEACF9091E602892FAB
:100E400097FB87F98058B0CF8091D60181110FC0F0
:100E50008091D2019091D3010E94991A883C91050A
:100E600030F486E20E94E20F86E20E94BE1082E029
:100E70000E9414114DCFF8018281882351F0109205
:100E8000D7010E948D1A9093D5018093D40180E2FE
:100E90002ACF8091D70181110FC08091D401909108
:100EA000D5010E94991A883C910530F487E20E948E
:100EB000E20F87E20E94BE1080E2DACF0E945F1943
:100EC000F8019281992381F08A7A91E009F490E007
:100ED0009093D101811106C089E20E94E8180E9416
:100EE0002C19DECE85E3F9CF8091D101811104C0A8
:100EF00089E20E94EF18F3CF85E3FBCF0E94450EF5
:100F00000C94EC0B0E94BB050C94BE0B0C94510D81
:100F1000972F70E022E1929F600D711D1124FB015B
:100F20009AE5899FE00DF11D1124EE0FFF1FEE548D
:100F3000FF4F859194910895FC01EE0FFF1FE85635
:100F4000FF4F859194910895CF93DF930E94880776
:100F50000E946409EC018115914508F04BC0C11550
:100F600080E5D80708F031C1C83ED10510F5C03E74
:100F7000D10580F5C83AD10570F4C53AD10508F01D
:100F8000B7C0C130D10531F118F0C430D10510F52A
:100F9000D0E0C0E01FC0CD3BD10508F4B4C0CE0105
:100FA000805C9109C03CD10598F30E949C07EC013C
:100FB00011C0C11520E3D20788F4C11580E2D8071B
:100FC00008F0FAC0C03FD10518F3CF3FD10509F0B2
:100FD00008F4F0C0CE01DF91CF910895C11520E44F
:100FE000D20708F0EFC0CE019927D3FFE8C0EC018B
:100FF000D86CF0CFC11586E5D807D8F5C11525E521
:10100000D20708F008C1C11583E5D807C8F4C11597
:1010100022E5D20708F4F5C0CE018370992721E0BC
:1010200030E002C0220F331F8A95E2F7C695C695BD
:1010300080E2C89FE0011124C22BD32BDC68CACF09
:10104000C11584E5D80708F0E1C0CE018370992767
:1010500021E030E002C0220F331F8A95E2F7C695E7
:10106000C69580E2C89FE0011124C22BD32BDA6819
:10107000B1CFCF3B2CE5D20709F4D8C098F4C11505
:1010800028E5D20708F484CFC11589E5D80708F40C
:10109000C8C0CF3A2CE5D20708F47ACFCF5ADC4546
:1010A000D46D98CFC23C8CE5D80709F4C5C060F474
:1010B000C03C8CE5D80709F4BCC0C13CDC4509F054
:1010C00067CFC0E0D2ED86CFCE0190568115904219
:1010D00008F05ECF8D2F8F710E94E409DD27D0626A
:1010E00090E0982F882788279F71C82BD92B72CF23
:1010F000C53AD10509F4A3C0C63AD10509F4A2C086
:10110000C3E8D0E467CFC83AD10509F49EC0C93A14
:10111000D10509F49DC0CA3AD10509F49CC0CB3A67
:10112000D10509F49BC0CC3AD10509F49AC0CB3B58
:10113000D10509F499C0CC3BD10509F498C0CD3A4A
:10114000D10509F497C0C03BD10509F496C0CE3A49
:10115000D10509F495C0CF3AD10509F494C0C13B3B
:10116000D10509F493C0C23BD10509F492C0C33B39
:10117000D10509F491C0C43BD10509F490C0C53B29
:10118000D10509F48FC0C63BD10509F48EC0C73B19
:10119000D10509F48DC0C83BD10509F48CC0C93B09
:1011A000D10509F48BC0CA3BD10509F08AC0CAE257
:1011B000D6E410CFD0650ECFCE019F70F6CEEC01F5
:1011C000D06C08CFDF70D06A05CFCE0174E0969561
:1011D00087957A95E1F783709C2F937021E030E03A
:1011E00002C0220F331F9A95E2F73C68382BC69550
:1011F000C695C37080E2C89FE0011124C22BD32B97
:10120000E9CEDC2FCC27C16FD06AE4CEDC2FCC270F
:10121000C46FD06ADFCEDC2FCC27CC27DF71D06241
:10122000D9CEDC2FCC27C06FD06AD4CEC0E0D1EDB0
:10123000D1CEC0E0D0EDCECEC0E0D3EDCBCEC1E874
:10124000D0E4C8CEC2E8D0E4C5CEC2EED4E4C2CE6B
:10125000C9EED4E4BFCECAEED4E4BCCEC5EBD4E430
:10126000B9CEC6EBD4E4B6CEC3EBD4E4B3CEC4EB74
:10127000D4E4B0CEC7EBD4E4ADCECCECD4E4AACE6B
:10128000CDECD4E4A7CEC3E8D5E4A4CECAE8D5E437
:10129000A1CEC2E9D5E49ECEC4E9D5E49BCEC1E29D
:1012A000D6E498CEC3E2D6E495CEC4E2D6E492CE9C
:1012B000C5E2D6E48FCEC6E2D6E48CCEC7E2D6E451
:1012C00089CEC0E0D4E486CE8238910549F1B0F4ED
:1012D0008133910509F45CC048F48932910509F421
:1012E00052C08A32910509F458C00895853391059A
:1012F00009F444C08933910599F00895833E91051E
:1013000031F138F4803E910591F0823E9105B1F0C3
:101310000895863E910511F1873E910541F10895AA
:101320002091E6022370C9F080EE90E008952091AC
:10133000E60220FF12C089E390E008952091E602C2
:1013400022FF0BC024FF2EC090E080E00895209182
:10135000E60222FD2AC024FDF7CF08952091E6027F
:1013600023FFFBCF24FDF0CF87EE90E0089520917E
:10137000E60223FFF0CF86EE90E008952091E6028A
:1013800025FD16C008952091E60225FD14C008959C
:101390002091E60226FD12C008952091E60226FD66
:1013A00010C0089583EE90E0089582EE90E00895D5
:1013B00089E290E0089585E390E008958AE290E064
:1013C000089581E390E0C9CFCF93C82F0E94D5192B
:1013D000282F30E03093E7022093E60282FF06C018
:1013E0009C2F9871983079F4C77FC46083FF06C042
:1013F0009C2F9871983171F4C77EC46184FDC77EBB
:101400008C2FCF9108959C2F9471943079F7CB7FD6
:10141000C860ECCF9C2F9471943181F7CB7EC8616A
:10142000EDCF08950F931F93CF938C01FB01828121
:10143000811106C0C1E08C2FCF911F910F910895AB
:10144000C091E501C11125C006311C4599F70E94E4
:10145000110A81E08093E5010E948D1A9093E401C6
:101460008093E3011092D8011092DA011092D90111
:101470001092DC011092DB011092DE011092DD016E
:101480001092E0011092DF011092E2011092E1014E
:10149000D2CF8091E3019091E4010E94991A883C97
:1014A000910540F68091D801E82FF0E0EE0FFF1F84
:1014B000E752FE4F118300838F5F8093D801C0E015
:1014C000BACF85B7806885BF85B7806885BFA1EB37
:1014D000B1E061E070E08D91E82FE295EF70F0E00F
:1014E00041A18F709B0101C0220F8A95EAF7922FCC
:1014F0009095942391A382A1822B82A381E0A63BA5
:10150000B80749F7AFE9B1E061E070E08D91E82FED
:10151000E295EF70F0E041A18F709B0101C0220FB6
:101520008A95EAF7922F9095942391A382A1822B1A
:1015300082A381E0A13BB80749F7EAEFF1E0A6EE0C
:10154000B1E08EE092E011921192119211921D92EF
:101550001D921D921D928E179F07A9F70C9482076A
:101560002F923F924F925F926F927F928F929F92B3
:10157000AF92BF92CF92DF92EF92FF920F931F93A1
:10158000CF93DF93CDB7DEB72C970FB6F894DEBFBD
:101590000FBECDBF86EE882E81E0982E21EB31E084
:1015A0003A83298398868F8222242394312CC12C5C
:1015B000D12C7601C394AA24A394AF81B8854D9011
:1015C0005D906D907C901397FD01108211821282C4
:1015D0001382A981BA818D91BA83A983E82FE295FC
:1015E000EF70F0E091A18F70910102C0220F331FC4
:1015F0008A95E2F73C832B83822F892B81A382A1DA
:10160000B22EB0948B2182A330EA3A95F1F74FE9DC
:1016100051E05E834D8390E080E0AD81BE813D91DD
:10162000BE83AD83A32FA295AF70B0E090960C91CE
:10163000AF81B8854D915D916D917C9149875A87B5
:101640006B877C873F70A10102C0440F551F3A95FC
:10165000E2F79A01202309F081C0B701A601082E04
:1016600004C0440F551F661F771F0A94D2F78A01E2
:101670009B0149855A856B857C85402B512B622BBC
:10168000732BAF81B8854D935D936D937C931397C6
:1016900001968231910509F0C0CF81A1B822B1A293
:1016A00082A1BB818B2B82A3EF81F8858081918100
:1016B000A281B381481659066A067B0641F0A092C2
:1016C0000E020E948D1A9093100280930F022F81B8
:1016D00038852C5F3F4F38872F8349815A81465B7D
:1016E000514009F06ACF80910E028823D9F0809191
:1016F0000F02909110020E94991A069798F0EAEF53
:10170000F1E08AEF91E0D4014D915D916D917D9171
:101710004D0141935193619371938A179B0799F7F8
:1017200010920E020E947E0781E02C960FB6F8946C
:10173000DEBF0FBECDBFDF91CF911F910F91FF9004
:10174000EF90DF90CF90BF90AF909F908F907F9061
:101750006F905F904F903F902F90089500E010E0C1
:10176000980187CF94E0899FF0011124E650FE4F45
:101770006081718182819381089508950E94ED05B1
:101780008EEF8093800089E1809381008FEF9FEF3F
:10179000909387008093860010928D0010928C00A9
:1017A00010928B0010928A008FEF9FE09093890037
:1017B0008093880084B1806E84B93E9A46980E94D6
:1017C000E70488E19DE00FB6F894A8958093600047
:1017D0000FBE909360000895CF92DF92EF92FF9238
:1017E0000F931F93A8958091150290911602A091D6
:1017F0001702B0911802893E9340A105B10560F02F
:1018000010921502109216021092170210921802EE
:101810000E94CD020E945E050E94DC02882309F42A
:101820008EC010921502109216021092170210929A
:10183000180280911102682F0E94A9048091110260
:1018400090911202A0911302B0911402892B8A2B5D
:101850008B2B09F467C010921102109212021092A1
:1018600013021092140200916E0210916F022091E7
:1018700070023091710280913F0190914001A091DE
:101880004101B091420180179107A207B30709F403
:1018900041C0E9E5F1E080E090E0DC01C080D1806A
:1018A000E280F38044815581668177814023512312
:1018B00062237323C416D506E606F70609F053C063
:1018C0002EE0289FF001299FF00D1124E75AFE4FCA
:1018D0008085918590938900809388008285938587
:1018E00090938B0080938A008485958590938D00DA
:1018F00080938C0080916E0290916F02A091700293
:10190000B091710280933F0190934001A0934101F7
:10191000B09342011F910F91FF90EF90DF90CF9015
:101920000C94EE0583E090E0A0E0B0E0809311021B
:1019300090931202A0931302B093140294CF80915B
:10194000150290911602A0911702B091180201960B
:10195000A11DB11D8093150290931602A09317024A
:10196000B093180280CF3E96CF20CE20CD20C094D9
:1019700009F4A6CF0196A11DB11D90CFCF92DF92A1
:10198000EF92FF92CF93DF93FC018281613031F5BA
:10199000C8EED8E1811102C0CFEED8E10E945F19F4
:1019A000827240916E0250916F026091700270914C
:1019B0007102452B462B472B21F4882321F085E328
:1019C00003C08823E1F389E2FE010995DF91CF91FD
:1019D000FF90EF90DF90CF900C942C19882349F161
:1019E000623061F06930E9F0611123C0DF91CF917D
:1019F000FF90EF90DF90CF900C94E317C12CD12C87
:101A00007601C39404C0CC0CDD1CEE1CFF1C4A956F
:101A1000D2F78C2D0E94D019C701B6010E949D17E4
:101A2000E5CFDF91CF91FF90EF90DF90CF900C94B6
:101A30007805DF91CF91FF90EF90DF90CF900895E0
:101A400014BE0FB6F894A8958091600088618093C9
:101A50006000109260000FBEA8951092890010924D
:101A600088008FEF9FE090938B0080938A00909383
:101A70008D0080938C000C9410060F931F93CF93CE
:101A8000DF93EC018B01C1158CE5D80711F40E949E
:101A9000200DB801CE01DF91CF911F910F910C94D1
:101AA000FD050C940D06CF93DF93EC018E8581111B
:101AB00012C081E08E878F810E9462190E942C19CA
:101AC000EA81FB8169897A89CE010696309719F0FF
:101AD000DF91CF910994DF91CF9108950F931F93D8
:101AE000CF93DF93EC018F8181112CC00A811B8180
:101AF000175523E1209FC001219F900D1124DC0187
:101B0000AA5FBE4F1496ED91FC91159751966D9179
:101B10007C91845F9E4F309709F0099583E1809F07
:101B2000F001819FF00D1124EA5FFE4F87810E9432
:101B300068190E942C1918821E82188610921A02A7
:101B400010921902DF91CF911F910F910895EF929A
:101B5000FF920F931F93CF93DF938C018091190213
:101B600090911A02009771F08017910759F09755DC
:101B700023E1289FF001299FF00D1124EA5FFE4F19
:101B800081E08487FB014281C80197558F3F910511
:101B900011F008F057C020914301022E000C330BC6
:101BA0002817390714F48093430123E1289F70011B
:101BB000299FF00C1124E701CA5FDE4F4D87FB011E
:101BC00082818823B9F1198708878E818F5F8E8380
:101BD0000E948D1A9B878A870E949B198F83E881B8
:101BE000F98169897A89C701845F9E4F309709F02E
:101BF00009958091190290911A020097B9F0801707
:101C00009107A1F0975523E1289FE001299FD00D6E
:101C10001124CE018A5F9E4F21E0FC0124870E949F
:101C2000530DCE01845F9E4F0E946E0D10931A02D9
:101C30000093190281E0DF91CF911F910F91FF90E6
:101C4000EF9008954423B1F3809143018F3F91F3C6
:101C5000C6E0D1E010E000E0FF24F394809143015E
:101C6000082E000C990B8017910724F38E8188238E
:101C700041F0FC86CE010E94530DCE0106960E94D3
:101C80006E0D0F5F1F4F6396E9CF0F931F93CF9396
:101C9000DF9380914301C0E0D3E18F3F91F5DF9165
:101CA000CF911F910F910895D29FF001D39FF00D16
:101CB0001124EA5FFE4F078510890115110511F403
:101CC00008EC10E0D29FF001D39FF00D1124EA5FE1
:101CD000FE4F86818823A1F0828593850E94991A00
:101CE0000817190768F4CD9F80011124C8018A5F85
:101CF0009E4F0E94530DC801845F9E4F0E946E0D3F
:101D0000CF5F2C2F30E080914301082E000C990BFF
:101D1000821793074CF6C3CF9093200280931F0243
:101D20000895E0911F02F0912002309721F0019078
:101D3000F081E02D099480E00895E0911F02F09178
:101D40002002309721F00280F381E02D099408955C
:101D500020911D0230911E022817390771F09093CF
:101D60001E0280931D02E0911F02F0912002309725
:101D700021F00680F781E02D0994089520911B023F
:101D800030911C022817390771F090931C02809340
:101D90001B02E0911F02F0912002309721F0008495
:101DA000F185E02D0994089508950C94D40E81E0F6
:101DB00008950E94841A0E94610A0E940B1B0C94D1
:101DC000851B4F925F926F927F928F929F92AF92FC
:101DD000BF92DF92EF92FF920F931F93CF93DF9307
:101DE000CDB7DEB72A970FB6F894DEBF0FBECDBFD2
:101DF0000E94B00A0E94D70E882309F492C022E202
:101E0000E22E22E0F22E10E000E0D02E802F0E9481
:101E1000B20B4B015C01F7014190519061907190C0
:101E20007F01481459046A047B0409F474C080914A
:101E30009B0281FD0E94BD0B90E080E04824592464
:101E40006A247B24B301A201082E04C0769567950D
:101E5000579547950A94D2F740FF58C08E83DF828A
:101E6000412C512C3201439404C0440C551C661C77
:101E7000771C8A95D2F784209520A620B72081E090
:101E800089288A288B2809F480E088870E948D1A87
:101E90008160782F9A8789874E815F8168858A85DE
:101EA0000E94B80F000F111F000F111FF801EE5D07
:101EB000FD4F80819181A281B38184259525A6253E
:101EC000B72580839183A283B3830E94910E909162
:101ED00021028917B9F10E94910E809321022A965E
:101EE0000FB6F894DEBF0FBECDBFDF91CF911F912B
:101EF0000F91FF90EF90DF90BF90AF909F908F90E9
:101F00007F906F905F904F900C948607019682317E
:101F1000910509F097CF0F5F1F4F0530110509F0AC
:101F200074CF8FEF89838A831B820E948D1A816010
:101F3000782F9D838C8349815A816B818D810E948A
:101F4000B80FC3CF2A960FB6F894DEBF0FBECDBF31
:101F5000DF91CF911F910F91FF90EF90DF90BF9095
:101F6000AF909F908F907F906F905F904F9008956B
:101F7000CF93DF93CDB7DEB72B970FB6F894DEBFC4
:101F80000FBECDBF4F83588769877A878B871E82A4
:101F90001D8285E0FE013796DE01119601900D92BB
:101FA0008A95E1F749815A816B817C818D819E817F
:101FB0002B960FB6F894DEBF0FBECDBFDF91CF9149
:101FC0000C946E16882309F4D8C0823871F40E94EC
:101FD000910E81FDD2C089E30E94E8180E942C195D
:101FE00089E30E94EF180C942C19833859F40E944D
:101FF000910E80FDC2C083E50E94E8180E942C1952
:1020000083E5EFCF843859F40E94910E82FDB5C06C
:1020100087E40E94E8180E942C1987E4E2CF9CEF25
:10202000980F913A18F40E94E818DDCF90E2980FCB
:10203000983050F4877091E001C0990F8A95EAF7C3
:10204000892F0E946219CFCF9BE5980F933070F4CF
:10205000853A31F0863A39F083E890E00C94A80E86
:1020600081E890E0FBCF82E890E0F8CF98E5980F08
:10207000953108F082C0883A09F440C0893A09F4E1
:1020800040C08A3A09F440C08B3A09F440C08C3A07
:1020900009F440C08B3B09F440C08C3B09F440C0BC
:1020A0008D3A09F440C0803B09F440C08E3A09F4EF
:1020B00040C08F3A09F440C0813B09F440C0823BE4
:1020C00009F440C0833B09F440C0843B09F440C09C
:1020D000853B09F440C0863B09F440C0873B09F4C6
:1020E00040C0883B09F440C0893B09F440C08A3BAA
:1020F00009F440C090E080E00C94BE0E82EE90E0C7
:10210000FBCF89EE90E0F8CF8AEE90E0F5CF85EB3B
:1021100090E0F2CF86EB90E0EFCF83EB90E0ECCF56
:1021200084EB90E0E9CF87EB90E0E6CF8CEC90E099
:10213000E3CF8DEC90E0E0CF83E891E0DDCF8AE85B
:1021400091E0DACF82E991E0D7CF84E991E0D4CF72
:1021500081E292E0D1CF83E292E0CECF84E292E0BE
:10216000CBCF85E292E0C8CF86E292E0C5CF87E28E
:1021700092E0C2CF8AE292E0BFCF0895882309F4AB
:102180004BC0823871F40E94910E81FF45C089E3F3
:102190000E94E8180E942C1989E30E94EF180C9401
:1021A0002C19833859F40E94910E80FF35C083E5C5
:1021B0000E94E8180E942C1983E5EFCF843859F467
:1021C0000E94910E82FF28C087E40E94E8180E94B6
:1021D0002C1987E4E2CF9CEF980F913AF0F290E24D
:1021E000980F983050F4877091E001C0990F8A954C
:1021F000EAF7892F0E946819D2CF9BE5980F933098
:1022000020F490E080E00C94A80E885A853120F4E8
:1022100090E080E00C94BE0E0895882321F00E9487
:1022200062190C942C190895882321F00E946819D2
:102230000C942C1908958F929F92AF92BF92DF92C7
:10224000EF92FF920F931F93CF93DF937C01D62FD2
:10225000C72FFC01058102950F70128111110E9498
:1022600081190E942519D82E882371F0112331F18C
:1022700080E28D0F883010F182E00E940F190E94D9
:10228000251991E0D82ED926BC2EB2949FE0B92210
:10229000EB2DF0E0E25BFE4E0C9418236011601110
:1022A000B011B011F211F911F911F9111A12F91155
:1022B000B512B5123F134813F9116813D12CE4CFAE
:1022C0000C2F0F70C07F11F00295007F1123A9F031
:1022D000002359F080E28D0F883010F0D11109C031
:1022E000802F0E9462190E942C198D2F0E94E20FEC
:1022F00014C0802F0E947319F6CF8D2F0E94BE103C
:10230000002359F080E28D0F883010F0D11124C0E5
:10231000802F0E9468190E942C19DD2009F4DFC16A
:102320000E94021980FDDBC1F70112820E94FC1895
:102330000E94FD17C7010E947B130E94FC18DF91C9
:10234000CF911F910F91FF90EF90DF90BF90AF90D2
:102350009F908F900C941E18802F0E947919DBCFCC
:10236000FC2FFF70BF2EC07FC03219F0B29480EFF7
:10237000B822DD2369F0D13029F1112369F100235E
:1023800059F0F701858180FFB0CF8F70858304C03D
:10239000112361F0011104C08B2D0E940D11BDCFDE
:1023A0008B2D0130D1F70E949519B7CF011106C0CE
:1023B0000E9498198B2D0E941411AFCF013009F49F
:1023C000ACCFF6CF112321F0063008F0A6CFE4CF32
:1023D000053008F0A2CFEECF002361F38D2F0E94CD
:1023E000BE109BCF8C2F86958695837079F08130B7
:1023F000B9F098E0B91609F459C0B91608F48DCFB0
:1024000086EF8B0D823008F451C087CF8D2F9C2F23
:102410009370111102C090E080E00E94A80E7DCF61
:102420008D2F9C2F9370111102C090E080E00E94CC
:10243000BE0E73CF8C2F837009F04BC0111136C0C4
:102440002D2F229526952770220F220F6D2F6F704A
:10245000862E912CB12CA12C022E04C0880C991C24
:10246000AA1CBB1C0A94D2F760E070E0CB01D4FF39
:102470000FC06FE070E080E090E004C0660F771F4F
:10248000881F991F2A95D2F7609570958095909531
:10249000C695C695C370C23071F0A0F46829792939
:1024A0008A299B29C13091F00E94B1170E94910E98
:1024B0000E94860732CF682979298A299B290E94A0
:1024C000C317F4CF0E94B117C501B4010E949F1732
:1024D000EDCF8695112311F08C2F8170882331F375
:1024E0002D2F229526952770220F220F6D2F6F70AA
:1024F000862E912CB12CA12C022E04C0880C991C84
:10250000AA1CBB1C0A94D2F760E070E0CB01D4FF98
:102510000FC06FE070E080E090E004C0660F771FAE
:10252000881F991F2A95D2F7609570958095909590
:10253000C695C695C370C23051F080F468297929D8
:102540008A299B29C13071F00E947418AFCF682985
:1025500079298A299B290E948618A8CF0E9474187D
:10256000C501B4010E946218A1CFE0E2ED0FE53190
:1025700008F066C0F0E0E154FD4E0C941823D4122C
:10258000D412D412D412D412D412D412D412D4121B
:10259000D412D412D412D412D412D412D412E512FA
:1025A000F312FA1201130B13DF708C2F8F711123AA
:1025B00031F00E94FD178D2F0E940D111ACF0E943D
:1025C0001E188D2F0E94141114CF112341F00530D5
:1025D00008F00FCF8C2F8F710E9441180ACF063060
:1025E00008F007CFF7CF8C2F8F71112339F00E949D
:1025F000FD17FFCE8C2F8F711123C9F30E941E1877
:10260000F8CE112329F08C2F8F710E94E817F1CE9C
:102610000E94E317EECE112349F0CF718C2F0E9458
:10262000FD1763E08C2F0E940619E3CE81E00E9423
:102630000F19023008F4DDCE82E00E940F19D9CEC6
:10264000112349F0002321F08D2F0E94E20FD1CEFB
:102650008C2F8F71CCCF002379F0D93349F4FFEF61
:1026600027EE83E0F15020408040E1F700C00000F9
:102670008D2F0E94BE10BDCE8C2F8F71BFCF4C2FDF
:102680004F706D2FC7010E94EA050E94171745CEB3
:10269000111143CECF70C230A9F040F4CC2379F0B1
:1026A000C13009F0A6CE0E94B61B37CEC33069F008
:1026B000C43009F09ECE8D2F0E94051C2ECE0E94A4
:1026C0009E1B2BCE0E94CF1B28CE0E94E21B25CE44
:1026D0004C2F4F706D2FC7010E94BE0C1ECEDF9194
:1026E000CF911F910F91FF90EF90DF90BF90AF902F
:1026F0009F908F9008950F931F93CF93DF93EC01DA
:10270000988189812B813C81232B39F08F3F19F4EB
:1027100081E09F3F19F080E001C081E080FD17C09B
:10272000CE010E941D06882391F0688179818A81FB
:102730000E94E5188C010E9498180E949C17B8010D
:10274000CE01DF91CF911F910F910C941B11DF915E
:10275000CF911F910F9108950E9481190E949219A3
:102760000E94F6180E942C1990E080E00E94A80EAA
:1027700090E080E00C94BE0E0E9470190C94AC1393
:102780000E94DB18E92FE295EF70E250EE30E0F4A2
:10279000F0E0E353FC4E0C941823DB13DB13E4133B
:1027A000E413E613E413E413E413DB13DB13EB137A
:1027B000E413E413EB13803F19F020F4803E20F47F
:1027C00081E00895843FE1F380E00895803EC0F306
:1027D000813FD1F7F5CF93FB882780F90895CF93F8
:1027E000DF9300D000D01F92CDB7DEB70F900F90CF
:1027F0000F900F900F90DF91CF910895CF93DF93BB
:1028000000D000D000D0CDB7DEB726960FB6F89432
:10281000DEBF0FBECDBFDF91CF9108951F93CF9341
:10282000DF93C091360216E0809137028C1304C00A
:10283000DF91CF911F910895D0E01C9FF0011D9F63
:10284000F00D1124E85CFD4F40815181628173815C
:10285000848195810E94FE132196C770E5CF409137
:1028600068025091690260916A0270916B028091D6
:102870006C0290916D020C94FE131F93CF93DF9323
:1028800080916D02807FD1F480916A028823B1F03B
:1028900080913602D0913702B0916802C0916902EE
:1028A00040916B0250916C02A1E0BF3F09F0A0E0A3
:1028B000BA016095709516E0D81304C0DF91CF91EE
:1028C0001F91089521E04115510521F02A2FCF3F96
:1028D00009F020E090E020FD38C0189FF001199F1A
:1028E000F00D1124E85CFD4F21812C132EC02081B6
:1028F0002B132BC02281211128C02381348124175E
:10290000350700F1241B350B283C3105F0F42091EC
:102910006D022F70206120936D0226E0289FF00148
:10292000299FF00D1124E35CFD4F80818F70806141
:10293000808388E692E00E947B13DF91CF911F9104
:102940000C940E14260F371FDFCF01968770B4CF7B
:10295000AF92BF92CF92DF92EF92FF920F931F93AD
:10296000CF93DF93CDB7DEB761970FB6F894DEBF94
:102970000FBECDBF8C0185E0F801DE011D960190F0
:102980000D928A95E1F7D8014C9111965C911197BF
:102990001296EC90309168026091690280916B020E
:1029A00090916C0221E0009731F06F3F19F421E023
:1029B0003F3F09F020E0B22FB170BB2E20FD80C157
:1029C000F801C380D480A0906A02AA2009F427C12C
:1029D000C816D906D0F1D601A81BB90BCD01FF242A
:1029E000F394883C910508F0F12C80916D02982FAA
:1029F000907FFF2009F4CAC0911187C0FE2C651397
:102A000029C0341327C0E11025C08F7080618093E6
:102A10006D020E942F1488E692E00E947B13809141
:102A20006D02F80185838F2D61960FB6F894DEBF95
:102A30000FBECDBFDF91CF911F910F91FF90EF900F
:102A4000DF90CF90BF90AF900895809590958C0DBA
:102A50009D1DC5CF81E0CD2831F05F3F19F481E0A5
:102A60004F3F09F080E080FD24C081E08E25F82FE3
:102A7000F170DF2E80FF3FC0809136022091370237
:102A800036E0821318C04D875E878D859E850E9433
:102A9000DB18292F22952F70223008F1243030F5D1
:102AA0009F7009F1D80115969C91907FE1F4FB2C61
:102AB000BACF80E0DCCF90E0389FF001399FF00D75
:102AC0001124E85CFD4F6181561306C060814613F6
:102AD00003C062816E110FC001968770D2CF9F70C4
:102AE00011F0882321F3805E883008F3C8010E942A
:102AF0007B13BD2CDCCFEE2009F495CF80916D02C5
:102B0000816080936D02F12C8ECF651312C0341357
:102B100010C0E1100EC0F8018583C8010E947B132C
:102B200086E0F801A8E6B2E001900D928A95E1F7FF
:102B300041C04D875E878D859E850E94C013882386
:102B400009F4C8C0EE2009F4C5C080916D0280323E
:102B500070F0209168023091690238872F831986BE
:102B6000DB86CA868C87CE0107960E947B1386E09F
:102B7000F801A8E6B2E001900D928A95E1F70E9473
:102B80003D140E942F14FF24F3944DCF911115C0D2
:102B90007C2DD98AC88A6E2D89890E94EF1388E618
:102BA00092E00E947B1386E0E8E6F2E0DF011D92EE
:102BB0008A95E9F70E942F1436CF651312C034139B
:102BC00010C0E1100EC0F8018583C8010E947B137C
:102BD000E8E6F2E086E0DF011D928A95E9F7FA2C3B
:102BE00022CF4D875E878D859E850E94C0138823E6
:102BF00009F470C0EE2009F46DC080916D0280323E
:102C000008F4B5CF20916802309169023A83298394
:102C10001B82DD82CC828E83CE010196A6CFC816A0
:102C2000D90638F1F601E81BF90BCF01F12C883CED
:102C3000910508F03DC0FE2CEE2009F44BC0651351
:102C400026C0341324C080916D0280FD17C0982FD8
:102C5000907FA1F0D80115968C931597903F09F4B9
:102C60005CCF982F907F905F8F70892B15968C93F7
:102C700054CF809590958C0D9D1DD8CF86E0F8019E
:102C8000A8E6B2E001900D928A95E1F7CCCE4D878F
:102C90005E878D859E850E94C013811168CF8091CB
:102CA0006D02816080936D02C8010E947B13BBCED0
:102CB0007C2DD98AC88A6E2D89890E94EF1373CF23
:102CC000EE2041F04D875E878D859E850E94C01362
:102CD00081114DCFC8010E947B1355CF1F93CF9315
:102CE000DF93CDB7DEB72C970FB6F894DEBF0FBEDB
:102CF000CDBF4F83588769877A878B879C87CE01A2
:102D000007960E94A814882309F442C09F818885F1
:102D10002A853B85232B39F08F3F19F481E09F3FB3
:102D200019F080E001C081E080FD08C04F81588526
:102D300069857A858B859C850E94FE1316E08091BB
:102D4000360290913702891709F467C0819FC0014C
:102D50001124885C9D4F0E94A814882309F45DC04B
:102D6000E09136021E9FF0011124E85CFD4F408186
:102D7000518162817381848195810E94FE138091CB
:102D8000360290E001968770992780933602D7CF5C
:102D900086E0FE013796DE01119601900D928A952C
:102DA000E1F79F8188852A853B85232B39F08F3F6A
:102DB00019F481E09F3F19F080E001C081E080FDBF
:102DC000BDCF2091370230E0C90101968770992765
:102DD000409136024817190699F096E0929FD0016B
:102DE000939FB00D1124A85CBD4FFE013196019058
:102DF0000D929A95E1F7809337020E940E149ECFB0
:102E00000E94BC13109237021092360286E0E8E668
:102E1000F2E0DF011D928A95E9F72C960FB6F8943F
:102E2000DEBF0FBECDBFDF91CF911F910895EF920E
:102E3000FF920F931F93CF93DF938C01892B81F027
:102E4000F12CEE24E394E8012196F8018491843773
:102E500070F4843008F05FC08130B1F08230A1F1AD
:102E6000DF91CF911F910F91FF90EF9008958537DB
:102E700009F44CC008F43DC09CE7980F903780F7E8
:102E80008F770E94BE1049C00E5F1F4FFE018491D4
:102E900090E2980F983060F48770FE2D01C0FF0F0C
:102EA0008A95EAF78F2F0E9484190E942C1902C07C
:102EB0000E94E20F8F2D815030F2EFE9FFE0319751
:102EC000F1F700C00000F7CF0E5F1F4FFE018491A5
:102ED00090E2980F983050F48770FE2D01C0FF0FDC
:102EE0008A95EAF78F2F0E948A19DFCF0E94BE10C1
:102EF000E1CF0E5F1F4FFE01C491C150D8F28FE9A0
:102F00009FE00197F1F700C00000F7CF0E5F1F4F61
:102F1000FE01F490CFCF0E94E20F8E01CBCF089537
:102F20000E948F17609372027093730280937402F1
:102F3000909375020C94AC1308950C9490170F9312
:102F40001F930091720210917302209174023091CC
:102F50007502602B712B822B932B1F910F910C9478
:102F600090170F931F93009172021091730220919A
:102F700074023091750260237123822393231F9181
:102F80000F910C9490170F931F9300917202109160
:102F90007302209174023091750260277127822795
:102FA00093271F910F910C9490170C948F170E94E8
:102FB000D51760936E0270936F02809370029093A6
:102FC00071020C94AC1360E070E0CB010C94D71745
:102FD0000F931F9341E050E060E070E08A019B0195
:102FE00004C0000F111F221F331F8A95D2F7C90199
:102FF000B8011F910F910C94D7170F931F9341E0C5
:1030000050E060E070E004C0440F551F661F771F5A
:103010008A95D2F780916E0290916F02A091700212
:10302000B09171028A019B01082B192B2A2B3B2B93
:10303000C901B8011F910F910C94D7170F931F93DB
:1030400041E050E060E070E004C0440F551F661F8F
:10305000771F8A95D2F7CB01BA016095709580955C
:10306000909500916E0210916F0220917002309144
:10307000710260237123822393231F910F910C947B
:10308000D7170F931F9341E050E060E070E004C059
:10309000440F551F661F771F8A95D2F780916E02E5
:1030A00090916F02A0917002B09171028A019B0110
:1030B000082719272A273B27C901B8011F910F911B
:1030C0000C94D7170F931F9300916E0210916F020B
:1030D0002091700230917102602B712B822B932B07
:1030E0001F910F910C94D7170F931F9300916E02AD
:1030F00010916F0220917002309171026023712350
:10310000822393231F910F910C94D7170F931F9332
:1031100000916E0210916F02209170023091710245
:1031200060277127822793271F910F910C94D7173F
:103130000895BF92CF92DF92EF92FF920F931F9369
:10314000CF93DF938C01C0906E02D0906F02E0901D
:103150007002F09071028091720290917302A091BE
:103160007402B0917502C82AD92AEA2AFB2ACFE153
:10317000D0E0BC2ED701C6010C2E04C0B695A79591
:10318000979587950A94D2F780FD0EC0219788F70E
:10319000B12C8B2DDF91CF911F910F91FF90EF906C
:1031A000DF90CF90BF900895B8018C2F0E94A407A4
:1031B000019761F3EECFCF93DF93EC010E94991852
:1031C000BE01DF91CF910C94A407CB010C94DB18C6
:1031D000682F80914401909145010C94441A682F06
:1031E00080914401909145010C944F1A80914401C3
:1031F000909145010C945A1A809176028595859597
:1032000085950895809176028770089598E0899F4A
:1032100090011124622B609376020C94FD1790911B
:1032200076028095892380937602282F277061F497
:10323000282F082E000C330B9217130629F08595C2
:10324000859585950C941E18089590917602977037
:1032500081E009F480E00895E0914401F091450196
:1032600080919A028083E0914401F0914501808130
:1032700090919902892B8083E0914401F09145015E
:10328000808190919802892B808390917702992375
:1032900081F0E0914401F09145018081892B808388
:1032A00080914401909145010E94E719811110928B
:1032B000770280914401909145010C949D0E80917C
:1032C0009A02089590919A02892B80939A02089508
:1032D000982F909580919A02892380939A0208955D
:1032E00010929A02089590919902892B80939902E5
:1032F0000895982F9095809199028923809399023F
:10330000089510929902089590919802892B8093C4
:1033100098020895982F9095809198028923809320
:103320009802089510929802089580937702089564
:103330001092770208958091770208956DEE7EEFE6
:1033400090E080E00E94892460E082E090E00E94AA
:10335000772460E083E090E00E94772460E084E0DE
:1033600090E00E94772460E085E090E00E9477245E
:1033700060E086E090E00C94772490E080E00E948A
:10338000712421E08D3E9E4F09F020E0822F0895A8
:1033900082E090E00C94692483E090E00C9469242E
:1033A000682F83E090E00C94772484E090E00C9404
:1033B0006924682F84E090E00C94772486E090E004
:1033C0000C946924682F86E090E00C947724FC012B
:1033D00031969C01205E3F4F80E0919191118F5F6B
:1033E000E217F307D1F708959C01FC0132969FEF95
:1033F00080E04191461751F09F3F19F4411101C0FF
:10340000982F8F5F8E31A9F79F3F09F40895290FF8
:10341000311D97FD3A95F90162830895FC013296BA
:1034200080962191261303C0DF0111971C92E817A3
:10343000F907B9F70895E62FE695E695E695EF3199
:1034400069F0E80FF92FF11D677021E030E001C04D
:10345000220F6A95EAF78181822B81830895E62FF6
:10346000E695E695E695EF3171F0E80FF92FF11D3D
:10347000677021E030E001C0220F6A95EAF72095DD
:10348000818128232183089520915001222329F04E
:103490002091E60227FD0C941B1A0C94F41920913C
:1034A0005001222329F02091E60227FD0C942F1AC7
:1034B0000C940E1AFC01319680961192E817F907C8
:1034C000E1F70895089508950895CF930E94631A2F
:1034D0000E94B00A0E94641AC0E08C2F0E94B20BB6
:1034E000672B682B692B31F4CF5FC530B1F780E0D3
:1034F000CF91089581E0FCCF0E94BC130E94851BF0
:103500000E94910E0C94860782E084BD93E095BDE5
:103510009AEF97BD80936E0008952FB7F89480912D
:10352000E2029091E302A091E402B091E5022FBF84
:103530000895CF92DF92EF92FF920F931F932FB7D0
:10354000F8944091E2025091E3026091E40270919C
:10355000E5022FBF6A017B01EE24FF248C0130E0DD
:1035600020E0C016D106E206F30650F0481B590BC6
:10357000CA011F910F91FF90EF90DF90CF900895B7
:1035800041505109F3CF78941F920F920FB60F92CA
:1035900011248F939F93AF93BF938091E2029091F8
:1035A000E302A091E402B091E5020196A11DB11DD4
:1035B0008093E2029093E302A093E402B093E502C9
:1035C000BF91AF919F918F910F900FBE0F901F9061
:1035D00018950E940B20F8942FEF87EA91E621506E
:1035E00080409040E1F700C0000087E090EBDC01F4
:1035F0008093FA029093FB02A093FC02B093FD0229
:1036000088E19CE00FB6F894A895809360000FBE07
:1036100090936000FFCF0E94BD19811102C00E94EB
:103620009E190E94C81980939B020E94D51990E0B0
:103630009093E7028093E6020E94CC19682F70E015
:1036400090E080E00C949D17E1E8F0E080818860D4
:1036500080838081816080838FB7F89493E090931A
:10366000890090ED909388008FBF0895EFE6F0E019
:103670008081826080830895EFE6F0E080818D7F15
:10368000808308951F920F920FB60F9211240BB6EC
:103690000F922F933F934F935F936F937F938F93EB
:1036A0009F93AF93BF93EF93FF9380919C02909170
:1036B0009D02019690939D0280939C02811103C00C
:1036C00082E00E948607E0919D02E695E695F0E093
:1036D000EE57FC4FE49180919C028E1303C080E072
:1036E0000E948607FF91EF91BF91AF919F918F91BB
:1036F0007F916F915F914F913F912F910F900BBEF2
:103700000F900FBE0F901F9018950E94BD19811148
:1037100002C00E949E190E94DE198093E802823145
:1037200020F0817080618093E8028091E80280FF40
:1037300003C086950C94320580E0FCCF8091E802AE
:10374000982F9695983030F49F5F990F8170892B50
:103750008093E8028091E80281608093E8020E94F1
:10376000E2198091E80286950C9432058091E80276
:10377000982F9E7F79F082508093E8028E7F91E0AF
:1037800009F490E08091E80290FB80F98093E802D0
:103790000E94E2198091E80286950C94320590917E
:1037A000E802892F8E7F90FF81608093E8020E945B
:1037B000E2198091E80280FF03C086950C943205DF
:1037C00080E0FCCF9091E802892F86958F5F8F77FC
:1037D00091708930B8F4880F892B8093E80280912A
:1037E000E8028E7F91E009F490E08091E80290FB7E
:1037F00080F98093E8020E94E2198091E8028695A0
:103800000C9432059093E802EACF9091E802292FB8
:1038100026958227880F9170982B9093E8029E7FBF
:1038200021E009F420E08091E80220FB80F98093F8
:10383000E8020E94E2198091E80286950C94320514
:103840008091BE02089508950F931F93CF93DF9345
:1038500000D01F92CDB7DEB78C010E94621E82306D
:1038600011F0843021F583E089831B830A8382E091
:103870008093E9008FEF9091E800815095FD06C09C
:1038800095ED9A95F1F700008111F5CF8091E80050
:1038900085FF0DC050E040E063E070E0CE0101968E
:1038A0000E947F1E8091E8008E778093E8000F9041
:1038B0000F900F90DF91CF911F910F910895CF93AB
:1038C000DF9300D01F92CDB7DEB72091ED022430F8
:1038D00029F522E02983805891099B838A832093CC
:1038E000E9008FEF9091E800815095FD06C095EDBD
:1038F0009A95F1F700008111F5CF8091E80085FFDE
:103900000DC050E040E063E070E0CE0101960E94FF
:103910007F1E8091E8008E778093E8000F900F90D3
:103920000F90DF91CF910895CF93DF93EC010E9428
:10393000621E823011F08430F9F4809150018823A6
:10394000F1F08091E60287FF1AC083E08093E900DE
:103950008FEF9091E800815095FD06C095E19A9512
:10396000F1F700008111F5CF8091E80050E040E0D0
:1039700060E270E085FD1AC0DF91CF91089581E08B
:103980008093E9008FEF9091E800815095FD06C08B
:1039900095ED9A95F1F700008111F5CF8091E8003F
:1039A00085FFEACF50E040E068E070E0CE010E9481
:1039B0007F1E8091E8008E778093E80080E2FE0110
:1039C000AEE9B2E001900D928A95E1F7D5CF8091F2
:1039D000EC02811109C00E940B200E946D20809191
:1039E000E20084608093E20008951092EC02089552
:1039F00008950C94361B0E947C1A0E943C1B0E9466
:103A0000910E0C94860742E061EC81E00E94891FD0
:103A100042E061EC82E00E94891F42E261EC83E0B7
:103A20000C94891F8091EF02833009F455C030F463
:103A3000813071F1823009F491C008958A3009F41F
:103A40007DC08B3009F463C0893009F044C0809197
:103A5000EE02813209F03FC08091F2029091F302B0
:103A6000009711F00297B9F58091E800877F809365
:103A7000E8008091E80082FF2AC08091F1008093E5
:103A8000BE028091E8008B778093E8000C94BD1F04
:103A90008091EE02813AF9F48091E800877F80936B
:103AA000E8008091F2029091F302892B61F460E2C8
:103AB0008EE992E070E00E94CE1E8091E8008B7744
:103AC0008093E800089560E090E080E0F3CF80917B
:103AD000ED028111CECF08958091EE02813AD9F79F
:103AE0008091F2029091F302892BA9F78091E8006E
:103AF000877F8093E8008091E80080FFFCCF809171
:103B000050018093F1008091E8008E77BDCF8091C5
:103B1000EE02813201F78091F2029091F302892B3B
:103B2000D1F68091E800877F8093E8000E94BD1F56
:103B30008091F002809350010C94BC138091EE02AE
:103B4000813249F68091E800877F8093E8000E94E7
:103B5000BD1F8091F1028093BF0208958091EE0213
:103B6000813A09F0B8CF8091E800877F8093E80020
:103B70008091E80080FFFCCF8091BF02C2CF84B764
:103B8000877F84BF0FB6F894A89580916000886104
:103B900080936000109260000FBE80E88093610007
:103BA000109261000E94D50E0E940B200E946D2091
:103BB0008091E20084608093E20078940E94FC226D
:103BC0000E94D90E86E491E00E948C0E0E94241B74
:103BD0008091ED02853019F00E94E10EF9CF0E942C
:103BE000621A8091EB02882399F30E94651A882358
:103BF00079F30E94691EECCF292F3327233031053A
:103C000079F158F421303105F1F02230310519F104
:103C100090E080E030E020E01AC02132310599F1D7
:103C200022323105A9F76330710590F7FB01EE0FE1
:103C3000FF1FE554FE4F2081318168547E4FFB0108
:103C4000808190E004C082E190E022E434E0FA0157
:103C500031832083089584E590E02EEE33E0F7CFA2
:103C600099278130910561F028F0029789F6E2ECFE
:103C7000F3E002C0EAEEF3E0849190E09F01E7CF29
:103C8000E0EDF3E0F9CF6330710508F0C1CF660FC6
:103C9000771FFB01EF53FE4F2081318189E090E0D7
:103CA000D6CF0895CF93C82F0E94511EC093C00253
:103CB000CF9108958091ED02843011F081E0089554
:103CC00082E008958091C002811102C00C945A1EB6
:103CD000089584E189BD86E189BD09B400FEFDCF68
:103CE0008091D8008F7D8093D8008091E000826021
:103CF0008093E0008091E00081FDFCCF0895AF92B9
:103D0000BF92CF92DF92FF920F931F93CF93DF93D7
:103D10006C01EB018A010E94DC1FF82E811123C087
:103D20000115110539F0F80180819181C81BD90B6B
:103D3000C80ED91EB12CA12C2097A9F08091E800C3
:103D400085FD22C08091E8008E778093E800011500
:103D50001105A1F0F80180819181A80EB91EB182F0
:103D6000A08285E0F82E8F2DDF91CF911F910F91CA
:103D7000FF90DF90CF90BF90AF9008950E94DC1F1E
:103D80008823D1F2F82EEFCFF60181916F01809355
:103D9000F1002197FFEFAF1ABF0ACECFFC0180914F
:103DA000F4029091F50286179707A0F0611571054E
:103DB00029F49091E8009E779093E80090E06115D7
:103DC000710551F4911108C08091E80082FF33C061
:103DD00080E00895BC01F2CF8091ED028823B9F113
:103DE0008530B9F18091E80083FD2FC08091E80013
:103DF00082FDEACF8091E80080FFE1CF2091F200C0
:103E00003091F3006115710519F02830310558F033
:103E100091E02830310509F090E02091E8002E77FC
:103E20002093E800CCCF81918093F100615071091B
:103E30002F5F3F4FE7CF8091ED02882341F085301F
:103E400041F08091E80083FFBFCF81E0089582E0D8
:103E5000089583E00895FC018091F4029091F502A9
:103E600086179707A0F06115710529F48091E80085
:103E70008E778093E80090E06115710551F49111FF
:103E800008C08091E80082FF34C080E00895BC0142
:103E9000F2CF8091ED028823C1F18530C1F180918C
:103EA000E80083FD30C08091E80082FDEACF809178
:103EB000E80080FFE1CF2091F2003091F30061151E
:103EC000710519F02830310558F091E0283031059E
:103ED00009F090E08091E8008E778093E800CCCFE5
:103EE00084918093F1003196615071092F5F3F4FAB
:103EF000E6CF8091ED02882341F0853041F080913A
:103F0000E80083FFBECF81E0089582E0089583E05A
:103F10000895982F973028F08F708093E90081E002
:103F200008959093E900242F762F50E0981731F0F0
:103F30007091EC002091ED005091F00021FD02C045
:103F40009F5FE8CF3091EB003E7F3093EB003091E4
:103F5000ED003D7F3093ED003091EB003160309308
:103F6000EB007093EC002093ED005093F000209153
:103F7000EE0027FDE5CF80E008958091EE0287FFF7
:103F800013C08091E80082FF06C08091E8008B7723
:103F90008093E80004C08091ED028111F2CF089572
:103FA0008091ED028823D9F38091E80080FFF8CF5B
:103FB0008091E8008E77ECCF2091E4003091E5000D
:103FC00085E69091EC0090FF06C09091E80090FF8C
:103FD00006C080E008959091E80092FDFACF90919C
:103FE000ED02992391F0953091F09091EB0095FDC1
:103FF00010C04091E4005091E5002417350709F303
:1040000081509A01F1F684E0089582E0089583E0FA
:10401000089581E008950E947C200E948420E0EEB3
:10402000F0E0808181608083E8EDF0E080818F772F
:10403000808319BCA7EDB0E08C918E7F8C9380813A
:104040008F7E80831092EC0208950F931F93CF937D
:10405000DF930E947C200E948420C8EDD0E08881FC
:104060008F77888388818068888388818F7D888323
:10407000E7EDF0E080818068808319BC1092ED024A
:104080001092E9021092EB021092EA0200EE10E0A8
:10409000F80180818B7F808388818160888342E002
:1040A00060E080E00E94891FE1EEF0E080818E7F79
:1040B0008083E2EEF0E0808181608083808188608F
:1040C0008083F80180818E7F8083888180618883EE
:1040D000DF91CF911F910F910895E8EDF0E080817D
:1040E0008F7E8083E7EDF0E080818160808381E0D6
:1040F0008093EC020C942520E8EDF0E080818C7F29
:1041000080831092E20008951092DA001092E1008C
:1041100008951F920F920FB60F9211240BB60F92B3
:104120002F933F934F935F936F937F938F939F93BF
:10413000AF93BF93EF93FF938091E10082FF0BC099
:104140008091E20082FF07C08091E1008B7F809325
:10415000E1000E94FB228091DA0080FF19C080916B
:10416000D80080FF15C08091DA008E7F8093DA003E
:104170008091D90080FF96C084E189BD86E189BD28
:1041800009B400FEFDCF81E08093ED020E94E71CA0
:104190008091E10080FF19C08091E20080FF15C08E
:1041A0008091E2008E7F8093E2008091E200806146
:1041B0008093E2008091D80080628093D80019BC7F
:1041C00085E08093ED020E94F91C8091E10084FF5C
:1041D00029C08091E20084FF25C084E189BD86E189
:1041E00089BD09B400FEFDCF8091D8008F7D8093FA
:1041F000D8008091E1008F7E8093E1008091E20001
:104200008F7E8093E2008091E20081608093E200E3
:104210008091E902882309F44BC084E08093ED0289
:104220000E94FB1C8091E10083FF29C08091E20085
:1042300083FF25C08091E100877F8093E10082E0C9
:104240008093ED021092E9028091E1008E7F8093CD
:10425000E1008091E2008E7F8093E2008091E20095
:1042600080618093E20042E060E080E00E94891F6C
:104270008091F00088608093F0000E94F81CFF910C
:10428000EF91BF91AF919F918F917F916F915F91CE
:104290004F913F912F910F900BBE0F900FBE0F903B
:1042A0001F90189519BC1092ED020E94F51C70CF5A
:1042B0008091E30087FD02C081E0B0CF83E0AECF04
:1042C0001F920F920FB60F9211240BB60F922F93DD
:1042D0003F934F935F936F937F938F939F93AF938E
:1042E000BF93CF93EF93FF93C091E900CF7080917C
:1042F000EC001092E9008091F000877F8093F0003D
:1043000078940E94A0211092E9008091F0008860CA
:104310008093F000C093E900FF91EF91CF91BF919E
:10432000AF919F918F917F916F915F914F913F914D
:104330002F910F900BBE0F900FBE0F901F901895EE
:104340001F93CF93DF93CDB7DEB7AA970FB6F8943C
:10435000DEBF0FBECDBFEEEEF2E08091F1008193A3
:1043600022E0E63FF207C9F70E94121D8091E800A3
:1043700083FF44C08091EE029091EF029A3008F0E2
:104380003DC0E92FF0E0E953FE4D0C941823D121F4
:10439000F721FE21F721FE2155227722FE21CE2290
:1043A000DB22803889F0823849F58091F2028F70E3
:1043B000873020F58093E9008091EB0085FB88270A
:1043C00080F91092E90006C08091EA029091EB0218
:1043D000911182609091E800977F9093E80080931C
:1043E000F1001092F1008091E8008E772DC0282F07
:1043F0002D7F21F48823D1F0823059F18091E8009B
:1044000083FF0AC08091E800877F8093E800809155
:10441000EB0080628093EB00AA960FB6F894DEBFA3
:104420000FBECDBFDF91CF911F9108958091F00213
:10443000813021F7933009F080E08093EB021092F5
:10444000E9008091E800877F8093E8000E94BD1F0B
:10445000D5CF8091F0028111F2CF8091F2028F705E
:104460002FEF280F263050F68093E9002091EB00C3
:1044700020FFE5CF933031F48091EB008062809390
:10448000EB00DDCF9091EB0090619093EB0021E089
:1044900030E001C0220F8A95EAF72093EA001092DB
:1044A000EA008091EB008860EACF8111A7CF1091DC
:1044B000F0021F778091E3008078812B8093E300E6
:1044C0008091E800877F8093E8000E94BD1F809163
:1044D000E80080FFFCCF8091E30080688093E300D8
:1044E00083E0111101C082E08093ED0287CF8058F4
:1044F000823008F083CF8091F0029091F1028C3DE0
:1045000023E09207A1F583E08A838AE289834FB78B
:10451000F894DE01139620E03EE051E2E32FF0E054
:1045200050935700E49120FF03C0E295EF703F5F86
:10453000EF708E2F90E0EA30C0F0C7968D939D9378
:104540002F5F243159F74FBF8091E800877F809318
:10455000E8006AE270E0CE0101960E94CE1E8091D2
:10456000E8008B778093E80049CFC096E7CF609151
:10457000F2027091F302AE014F5F5F4F0E94FC1D8B
:10458000BC01892B09F43ACF9091E800977F909372
:10459000E80089819A810E942B1FE1CF803809F0C1
:1045A0002DCF8091E800877F8093E8008091E90219
:1045B0008093F10018CF811121CF9091F0029230B9
:1045C00008F01CCF8091E800877F8093E8009093EB
:1045D000E9020E94BD1F8091E902882331F084E046
:1045E0008093ED020E94031D09CF8091E30087FDB7
:1045F000F6CF81E0F5CF0895CF938091ED02882327
:1046000099F0C091E900CF708091EC0080FD0EC060
:1046100080E0C82B1092E9008091E80083FD0E94A1
:10462000A021CF70C093E900CF91089580E8F1CF29
:10463000EE0FFF1F0024001C0BBE0790F691E02D2B
:1046400009940F931F93CF93DF93869F8001879FD9
:10465000100D969F100D1124C8010E943D23EC01FE
:10466000009729F0A80170E060E00E946224CE016A
:10467000DF91CF911F910F9108950F931F93CF93C7
:10468000DF938230910510F482E090E0E091F8022F
:10469000F091F90230E020E0B0E0A0E0309799F42A
:1046A0002115310509F44AC0281B390B2430310586
:1046B000D8F58A819B816115710589F1FB0193838E
:1046C0008283FE0111C0408151810281138148170C
:1046D0005907E0F04817590799F4109761F01296BE
:1046E0000C93129713961C933296CF01DF91CF91C2
:1046F0001F910F9108950093F8021093F902F4CFDF
:104700002115310551F04217530738F0A901DB019B
:104710009A01BD01DF01F801C1CFEF01F9CF9093FC
:10472000F9028093F802CDCFFE01E20FF31F8193CF
:1047300091932250310939832883D7CF2091F602F3
:104740003091F702232B41F42091020130910301B3
:104750003093F7022093F60220910001309101017D
:104760002115310541F42DB73EB740910401509118
:104770000501241B350BE091F602F091F702E217D8
:10478000F307A0F42E1B3F0B2817390778F0AC0174
:104790004E5F5F4F2417350748F04E0F5F1F509351
:1047A000F7024093F602819391939FCFF0E0E0E00F
:1047B0009CCFCF93DF930097E9F0FC0132971382EF
:1047C0001282A091F802B091F902ED0130E020E0F0
:1047D0001097A1F420813181820F931F2091F6025E
:1047E0003091F7022817390709F061C0F093F702FA
:1047F000E093F602DF91CF910895EA01CE17DF072B
:10480000E8F54A815B819E0141155105B1F7E90147
:10481000FB83EA8349915991C40FD51FEC17FD071B
:1048200061F4808191810296840F951FE90199833B
:104830008883828193819B838A83F0E0E0E01296F3
:104840008D919C9113970097B9F52D913C911197FB
:10485000CD010296820F931F2091F6023091F7024C
:104860002817390739F6309751F51092F90210924E
:10487000F802B093F702A093F602BCCFD383C283B1
:1048800040815181840F951FC817D90761F44E5F8D
:104890005F4F88819981480F591F518340838A81D6
:1048A0009B81938382832115310509F0B0CFF0936A
:1048B000F902E093F8029ECFFD01DC01C0CF138224
:1048C0001282D7CFDC0101C06D9341505040E0F718
:1048D0000895F999FECF92BD81BDF89A992780B5C8
:1048E0000895A8E1B0E042E050E00C949124262F16
:1048F000F999FECF92BD81BDF89A019700B40216D6
:1049000039F01FBA20BD0FB6F894FA9AF99A0FBE83
:1049100008950196272F0E9478240C947724DC01B7
:10492000CB01FC01F999FECF06C0F2BDE1BDF89ABA
:10493000319600B40D9241505040B8F70895F89464
:02494000FFCFA7
:104942000000FE0220000000DA05E705000000007A
:104952000000000000000000000000000000000055
:104962000000000000000000000000000000BD0583
:10497200D50500000000000000000000000000FF5C
:10498200FFFFFFFF7802201C941C231C5F1C241CC9
:1049920001081028374680C8FF00000000FFFFFF13
:1049A200FF0000FF0F000002000000FEFFFFFFFFFC
:1049B20007FF07000004000000FCFFFFFF000000EB
:1049C20000FF0F08000000E8FFFFFFFF0F0000FFDD
:1049D2000FFFFFFFFFFFFFFFFFFF0FFF0FFF0F00A4
:1049E20001020304050607C6C7F0F1F2F360616233
:1049F2006392939495960001403639C3048D045412
:084A0200040004190432040051
:00000001FF
