:100000000C9401030C944A030C944A030C944A0385
:100010000C944A030C944A030C944A030C944A032C
:100020000C944A030C944A030C9407320C94DE326D
:100030000C944A030C944A030C944A030C944A030C
:100040000C944A030C94AE2C0C944A030C944A036F
:100050000C944A030C942D2C0C944A030C944A03E0
:100060000C944A030C944A030C944A030C944A03DC
:100070000C944A030C944A030C944A030C944A03CC
:100080000C94B4100C944A030C944A030C944A0345
:100090000C94C8030C944A0307634236B79BD8A755
:1000A0001A39685618AEBAAB558C1D3CB7CC57639D
:1000B000BD6DEDFD753EF6177231BF000000803F4B
:1000C00005A84CCDB2D44EB93836A9020C50B9911E
:1000D0008688083CA6AAAA2ABE000000803F080025
:1000E0000000BE922449123EABAAAA2ABECDCCCCB7
:1000F0004C3E00000080BEABAAAAAA3E0000000051
:10010000BF000000803F0000000000084178D3BB22
:100110004387D1133D190E3CC3BD4282AD2B3E68CF
:10012000EC8276BED98FE1A93E4C80EFFFBE01C4C0
:10013000FF7F3F000000000000F004F005F006F033
:1001400007F003F03A003B00155C1E001F00200082
:1001500021002200230024002500260027002D0076
:100160002E002A0049004B003C003D002B001400EB
:100170001A000800150017001C0018000C001200DF
:1001800013002F00300031004C004E003E003F00B5
:10019000390004001600070009000A000B000D00DA
:1001A0000E000F00330034002800000000000000A3
:1001B00040004100E10000001D001B000600190086
:1001C000050011001000360037003800E50000007F
:1001D0005200000042004300E000E300E2000000A3
:1001E000000000002C00000000000000E600E40019
:1001F0000151500051004F000100010035003A004C
:100200003B003C003D003E003F00400041004200FA
:100210004300440045004C0001004A000100010079
:1002200000004A0052004D004B000000000000009A
:1002300000000000000000000000000001004D0070
:10024000010001000100500051004F004E0000006D
:100250005000510052004F0000000000000000005C
:10026000000000000100010001000000000000008B
:100270000000000000000000A800AA00A900000083
:100280000253000001000000010001000100010014
:100290000100000000000000280000000000000035
:1002A0000100010001000100010001000000000048
:1002B000C00000000000000000000000000000007E
:1002C000000000000000B55CB65CB75CBA5CC15CC5
:1002D00000000000235C000000000000000000009F
:1002E000000000000000000000000000000000000E
:1002F000BB5CC25C000000001F5CC100C3000000CA
:1003000000000000000000000000000000000000ED
:10031000005C00000000000000000000C5000000BC
:10032000C200C4000000000000000000225C0000C9
:100330000000000000000000BD5C000000000000A4
:1003400000000000000000000000000000000000AD
:1003500000000000000000000000C05CBE5CBF5C4C
:100360006801F000B40078005A007F3F1F64321427
:10037000643214783C1E1E140A05000000000001BF
:100380000101010101010101020202020202020255
:100390000203030303030303030404040404040526
:1003A00005050505060606060607070707080808E7
:1003B000080909090A0A0A0A0B0B0B0C0C0C0D0D93
:1003C0000D0E0E0F0F0F1010111111121213131426
:1003D00014151516161717181819191A1A1B1C1C9C
:1003E0001D1D1E1F1F2020212222232425252627F4
:1003F0002728292A2B2B2C2D2E2F2F303132333426
:100400003536363738393A3B3C3D3E3F4041424332
:1004100044464748494A4B4C4D4F5051525355560C
:1004200057585A5B5C5E5F606263646667696A6CBA
:100430006D6E707173747678797B7C7E8081838435
:1004400086888A8B8D8F91929496989A9B9D9FA176
:10045000A3A5A7A9ABADAFB1B3B5B7B9BBBDBFC17C
:10046000C4C6C8CACCCFD1D3D6D8DADCDFE1E4E643
:10047000E8EBEDF0F2F5F7FAFCFF000000000000F9
:100480000000000000010204060A0F17202C3A4A5F
:100490005D71879DB3C7DAE9F5FCFFFCF5E9DAC7C2
:1004A000B39D87715D4A3A2C20170F0A060402019A
:1004B0000000000000000000000004033000000005
:1004C0000C034C0046004B003700380000001803B6
:1004D0004C0046004B006500790062006F0061002F
:1004E0007200640073000000040309040902540050
:1004F000030100A0FA090400000103010100092121
:10050000110100012240000705810308000A0904C7
:100510000100010300000009211101000122360041
:100520000705820308000A09040200010300000015
:100530000921110100012239000705830320000170
:100540001201100100000008EDFE606001000102D0
:10055000030105010906A101050719E029E71500B6
:1005600025019508750181020508190129059505E0
:10057000750191029501750391010507190029F78D
:100580001500250195F875018102C005010980A1BA
:100590000185021601002603001A81002A830075D6
:1005A0001095018100C0050C0901A1018503160108
:1005B00000269C021A01002A9C02751095018100F8
:1005C000C005010906A101050719E029E715002565
:1005D00001950875018102950175088101050819C9
:1005E0000129059505750191029501750391010594
:1005F00007190029FF150026FF00950675088100E0
:10060000C00011241FBECFEFD0E2DEBFCDBF04B6C5
:1006100003FE27C08091E4069091E506A091E606CE
:10062000B091E7068730904BA740B04BD1F41092C1
:10063000E4061092E5061092E6061092E70614BE54
:1006400084B7877F84BF0FB6F894A8958091600027
:10065000886180936000109260000FBEE0E0F0EFD0
:10066000099514E0A0E0B1E0E0E1F7E700E00BBF9E
:1006700002C007900D92AA3CB107D9F726E0AAEC78
:10068000B4E001C01D92A43EB207E1F70E94332FEF
:100690000C94863B0C940000EEE5F6E010828FEFA0
:1006A000818312821092B9008CE08093B80085E0BB
:1006B0008093BC00089580915E06982F9D7F79F00D
:1006C000813059F480915F06803311F0883329F42A
:1006D00080E98093BC000E944C0380E0089581E093
:1006E0000895FF920F931F93CF93DF93EC01162F82
:1006F000F42E022F0E945B038823B9F180E98093D6
:10070000BC000E944C03F0926006D0936406C09334
:100710006306612F70E070936A0660936906109219
:1007200062061092610680915E06823019F581E0C2
:1007300080935E0680916106909162069C012F5F16
:100740003F4F3093620620936106C80FD91F8881FE
:100750008093BB0085E88093BC00011114C0DF9139
:10076000CF911F910F91FF90089585E08A95F1F741
:100770000000C0CF81E080935E0685EAECCF85E083
:100780008A95F1F700000E945B038823C1F3E7CF4D
:100790001F920F920FB60F9211240BB60F922F9348
:1007A0003F934F938F939F93EF93FF938091B90063
:1007B000887F8832C9F120F5803109F4B1C098F4FE
:1007C000882309F4B1C0883079F1FF91EF919F91AE
:1007D0008F914F913F912F910F900BBE0F900FBEB5
:1007E0000F901F9018958831E1F0803271F7809159
:1007F0006006882309F48EC08091B900887F7FC08D
:100800008034B9F128F4803391F3883381F3DDCF5C
:10081000803509F444C0883509F45BC08834A9F6F2
:10082000E6CF83E080935E062091610630916206F8
:100830008091690690916A06281739070CF05AC012
:10084000E0916306F09164068091610690916206E2
:100850009C012F5F3F4F3093620620936106E80FA3
:10086000F91F80818093BB0088EF80935F0685E845
:1008700013C084E080935E068091650690916606C1
:10088000019720916706309168062817390764F7A9
:1008900088EF80935F0685EC8093BC0096CF8091B3
:1008A0006706909168069C012F5F3F4F3093680662
:1008B000209367064091BB00865B994FFC01408303
:1008C000809165069091660601972817390764F6AE
:1008D000DFCF80916706909168069C012F5F3F4FA4
:1008E00030936806209367062091BB00865B994F82
:1008F000FC01208380916006882329F08FEF80938C
:100900005F0685EAC9CF10925E068FEF80935F067F
:1009100085E9C2CF10925E068091B900887FF6CF3C
:1009200082E080935E0651CF10925F0610925E06C1
:10093000EFCFCF93DF9300D01F92CDB7DEB76F3FDD
:1009400069F0880F886E89838DEF8A836B8321E03D
:1009500040E063E0CE0101960E9471030F900F907A
:100960000F90DF91CF910895FF920F931F93CF9334
:10097000DF9300D01F92CDB7DEB7182FF42E022FD1
:100980000E949904110F186E1983FA820B8321E0DB
:1009900040E063E0CE0101960E9471030F900F903A
:1009A0000F90DF91CF911F910F91FF9008950F93BA
:1009B0001F93CF93DF93A82FB0E0B595A795A370B1
:1009C000B0E0AA0FBB1FA653BB4F0D911C910115A0
:1009D000110581F1EFEFE60F4150A42FAA0F8170AE
:1009E000A82BC1E0D0E00E2E01C0CC0F0A94EAF78C
:1009F000A00FB12FB11D53969C91539721111FC089
:100A0000C0959C2353969C93539795969C9195974C
:100A1000C9239596CC9360E0813009F468E0429553
:100A2000407FE40FE60FE00FF12FF11D27AB81E0CF
:100A3000F801808BDF91CF911F910F9108959C2B2E
:100A400053969C93539795969C919597C92BE1CF7C
:100A5000EF92FF920F931F93CF93DF93182F062FE0
:100A6000E82FF0E0EE0FFF1FE653FB4FC081D1816E
:100A7000209729F18881882369F0FE0111927F0176
:100A80006BE0812F0E94990421E040E06FE0C701F4
:100A90000E9471038889882391F0188A60E0812F71
:100AA0000E949904202F40E066EBCE014196DF9131
:100AB000CF911F910F91FF90EF900C947103DF91F4
:100AC000CF911F910F91FF90EF9008950F931F9377
:100AD000CF93DF930E944C030AEC14E0C0E0D1E016
:100AE000F801819191918F01009711F00E94F139E5
:100AF00020E04AE06BE08C2F0E94B4040E945B036C
:100B0000882351F180915F068F3FF1F461E070E03E
:100B10008EE891E00E943939FC01D80112978D933B
:100B20009C938C2F880F886E81831282818B128A0E
:100B3000D083D08B61E08C2F0E94280521E04AE011
:100B40006BE08C2F0E94B404CF5FC43049F6DF9174
:100B5000CF911F910F910895F5E0FA95F1F70000FC
:100B6000CDCFFF920F931F93CF93DF93F42ED22F0D
:100B7000C0911804813118F0C09119048051082FD8
:100B800010E096E0899FF0011124E157FC4F41816C
:100B9000442329F0262F60818C2F0E94D70486E001
:100BA000809FF001819FF00D1124E157FC4F43819C
:100BB000442329F02F2D62818C2F0E94D70486E0D8
:100BC000809FF001819FF00D1124E157FC4F45817A
:100BD000442351F02D2F64818C2FDF91CF911F91F1
:100BE0000F91FF900C94D704DF91CF911F910F913B
:100BF000FF9008950F931F93CF93DF93C82F8830F2
:100C000018F5882329F0EC2FF0E0EC50FC4FC08160
:100C100011E000911A04D1E02C2F4D2F612F802F6D
:100C20000E94D7042C2F4D2F612F80911B040E940E
:100C3000D704DF5FDA3081F71F5F1A3061F7DF9189
:100C4000CF911F910F910895C8E0DDCF0F931F93AF
:100C5000CF93DF93D82F162F042FC1E0202F412FE1
:100C60006D2F8C2F0E94B105CF5FC132B9F7DF9194
:100C7000CF911F910F9108950F931F93CF93DF93FF
:100C80000DEF13E0CBE7D6E0F80181918F01909151
:100C9000730620E040E060E090FF03C02A814881B5
:100CA00069810E94B1052396F4E008311F0761F7BE
:100CB000DF91CF911F910F9108950F931F93CF93C1
:100CC0000AEC14E0D801ED91FC91C1E0C08B61E029
:100CD00080E00E942805D8011696ED91FC91C08B0A
:100CE00061E083E0CF911F910F910C9428050F9341
:100CF0001F93CF9380E00E94FA0540E060E080E01F
:100D00000E9426060E945D0640E060E080E00E94AE
:100D100026060DEF13E0F801C1918F0120E040E0BD
:100D20006FEF8C2F0E94B1050E945D06FFEF24E358
:100D30008CE0F15020408040E1F700C0000020E04E
:100D40004FEF60E08C2F0E94B1050E945D069FEF7F
:100D5000E4E3FCE09150E040F040E1F700C0000027
:100D60002FEF40E060E08C2F0E94B1050E945D06ED
:100D70002FEF84E39CE0215080409040E1F700C0D9
:100D8000000020E040E060E08C2F0E94B1050E944E
:100D90005D06E4E008311E0709F0BDCFCF911F9139
:100DA0000F9108950C9466050E94F4088EEF8093CD
:100DB000800089E1809381008FEF9FEF90938700FF
:100DC0008093860010928D0010928C0010928B0000
:100DD00010928A008FEF9FE09093890080938800A3
:100DE00084B1806E84B90C946605CF92DF92EF9245
:100DF000FF920F931F938091D6049091D704A091F6
:100E0000D804B091D904893E9340A105B10560F0A2
:100E10001092D6041092D7041092D8041092D904DC
:100E20000E944C030E945D060E945B03882309F424
:100E30008EC01092D6041092D7041092D80410924B
:100E4000D9048091D204682F0E9428058091D20491
:100E50009091D304A091D404B091D504892B8A2B0E
:100E60008B2B09F467C01092D2041092D304109215
:100E7000D4041092D5040091F7051091F805209143
:100E8000F9053091FA0580910A0190910B01A0912A
:100E90000C01B0910D0180179107A207B30709F467
:100EA00041C0ECE1F4E080E090E0DC01C080D18062
:100EB000E280F3804481558166817781402351230C
:100EC00062237323C416D506E606F70609F053C05D
:100ED0002EE0289FF001299FF00D1124E45EFB4FC6
:100EE0008085918590938900809388008285938581
:100EF00090938B0080938A008485958590938D00D4
:100F000080938C008091F7059091F805A091F905E8
:100F1000B091FA0580930A0190930B01A0930C0104
:100F2000B0930D011F910F91FF90EF90DF90CF9044
:100F30000C94020983E090E0A0E0B0E08093D2043A
:100F40009093D304A093D404B093D50494CF80910C
:100F5000D6049091D704A091D804B091D9040196F9
:100F6000A11DB11D8093D6049093D704A093D804FB
:100F7000B093D90480CF3E96CF20CE20CD20C09410
:100F800009F4A6CF0196A11DB11D90CFCF93DF9399
:100F9000EB019C01245631092D3B3D44E8F46436B5
:100FA0007105D0F4BC0190E080E00E94EA354AE08F
:100FB00050E00E94551590E080E08C179D0721F4C9
:100FC000DF91CF910C947D14EFE9FFE03197F1F7B9
:100FD00000C000000196F1CFDF91CF910895CF922C
:100FE000DF92EF92FF92CF93DF93FC018281613019
:100FF00031F5C0E4DAE2811102C0C7E4DAE20E940E
:10100000B72A82724091F7055091F8056091F90571
:101010007091FA05452B462B472B21F4882321F0AC
:1010200085E303C08823E1F389E2FE010995DF919E
:10103000CF91FF90EF90DF90CF900C94842A88237B
:1010400009F484C06A3008F081C0E62FF0E0E55D65
:10105000F74F0C9430397308A608610885084708D3
:1010600083083508A408A6087B0881E060910E017A
:1010700070910F01680F711D87FD7A9570930F01B4
:1010800060930E01809110019091110112C021E036
:101090008091100190911101F4E62F02800D911DB5
:1010A0001124909311018093100160910E017091B1
:1010B0000F01DF91CF91FF90EF90DF90CF900C94D4
:1010C000C607C12CD12C7601C39404C0CC0CDD1C06
:1010D000EE1CFF1C4A95D2F78C2D0E94312BC701C4
:1010E000B6010E94F328DF91CF91FF90EF90DF903F
:1010F000CF900C943B29DF91CF91FF90EF90DF9040
:10110000CF900C9477062FEFC3CF8091DA04882319
:1011100069F01092DA0464E670E080EA9FE00E94D1
:10112000C60764E670E088EE93E0C3CF81E0809369
:10113000DA0464E670E088EE93E00E94C60764E695
:1011400070E080EA9FE0B5CF8FEF90CFDF91CF9135
:10115000FF90EF90DF90CF90089510928900109249
:1011600088008FEF9FE090938B0080938A0090938C
:101170008D0080938C000C9415090F931F93CF93CF
:10118000DF93EC018B018091DA04882371F0FB017D
:101190008281882351F060910E0170910F0180913E
:1011A0001001909111010E94C607C115FCE5DF07EF
:1011B00011F40E94AD08B801CE01DF91CF911F91CB
:1011C0000F910C940309CF93C82F2FEF81FF20E0DC
:1011D00047E063E080E00E94D7048C2FCF910C940D
:1011E000050990E080E008950E942D2B823048F0A0
:1011F00081E00E94312B61E070E080E090E00C948F
:10120000F3280895089581E00895089581E00895F0
:101210000E94A6180C94F5060E94D2060E9454144F
:101220000C94D4060C94E3080895CF93DF930E94A6
:1012300012250E9474180E94F72BEC0140E063E035
:1012400070E082E491E00E94D8130E941409CE015C
:101250000E94032C8A3F910530F00E947D14DF919B
:10126000CF910C94532C8FE99FE00197F1F700C0C8
:101270000000EDCF0F931F93CF93DF938C01FC0100
:10128000C081D181CE010E94F129BE010E94FE0BD6
:10129000EC01B8010E94BD08882309F40DC1B80112
:1012A000CE010E943510882309F406C1B801CE0191
:1012B0000E940A19882309F4FFC0B801CE010E94D8
:1012C000890E882309F4F8C0C23CFCE5DF0709F465
:1012D0002AC108F059C0CB3B9CE5D90709F4FCC0F2
:1012E00070F5C531FCE5DF07D0F4C2308CE5D807D6
:1012F00008F093C1C1159CE5D90709F4D8C0C130E5
:10130000DC4509F4DFC081E08093E0048093E104D0
:10131000C801DF91CF911F910F910C940609C5313F
:10132000FCE5DF0709F44AC2CA3BDC4561F7F80176
:101330008281882309F4C0C00E94661DBDC0CE3BD7
:101340009CE5D90709F4DEC080F4CC3BFCE5DF075F
:1013500009F4CDC0CD3BDC45B1F6F801828188238C
:1013600009F4AAC00E94291CA7C0F8018281C03CD0
:10137000FCE5DF0709F4D2C008F4CBC0882309F4E8
:101380009BC00E94901C98C0C93CECE5DE0709F4A4
:1013900017C108F042C0C53C8CE5D80709F4D3C09A
:1013A000F8F4C33CECE5DE0709F4C4C0C43CDC45FA
:1013B00009F0A9CFF8018281882309F47DC00E9439
:1013C000F31A623071058105910540F00E94F31A0D
:1013D000653071058105910508F491C082E0B0C0C7
:1013E000F8018281C73CFCE5DF0709F4D5C008F4A9
:1013F000BFC0882309F460C00E94F31A65317105EB
:101400008105910540F00E94F31A6731710581054D
:10141000910508F474C085E193C0CC3CECE5DE078F
:1014200009F4A9C1D0F4CA3C8CE5D80709F4CFC0AF
:10143000CB3CDC4509F067CFF8018281882309F4B1
:1014400083C11092E0040E94F72B9093DD048093F7
:10145000DC0482E00E9460222FC0C03DECE5DE0784
:1014600009F4CBC0C13DFCE5DF0709F4CFC0CD3C9A
:10147000DC4509F048CFF8018281811180C180915B
:10148000E104811199C18091DE049091DF040E94F2
:10149000032C883C910508F08FC180E20E946722EE
:1014A00088E20E941A2188E20E94112205C0F801F8
:1014B000828181110E94150980E0DF91CF911F91F7
:1014C0000F910895F80182818823B1F38091240659
:1014D000816080932406F0CFF8018281882361F334
:1014E0000E94B72A827259F00E94451DE5CFF8018B
:1014F0008281882309F30E94B72A8272A9F30E948D
:101500003B1DDACFF80182818823B1F20E94411C91
:10151000D3CF882389F20E94601CCECF882361F24A
:101520000E94781CC9CFF8018281882329F20E9489
:10153000A81CC2CFF8018281882309F4BDCF81E0C5
:101540000E94C01CB9CFF8018281882309F4B4CF6E
:101550000E94F31A663071058105910538F00E94EA
:10156000F31A683071058105910548F286E0E8CFED
:10157000882309F4A1CF0E94F31A6930710581050F
:10158000910540F00E94F31A6E30710581059105B6
:1015900008F4B5CF89E0D4CF882309F48DCF0E9419
:1015A000F31A6F3071058105910540F00E94F31A1E
:1015B000643171058105910508F4A1CF8FE0C0CF9A
:1015C000F8018281882309F477CF88E1B9CFF80147
:1015D0008281882309F470CF0E94F31A6931710562
:1015E0008105910540F00E94F31A62327105810570
:1015F000910508F484CF89E1A3CFF8018281882383
:1016000009F45ACF80E00E94D02F56CFF801828192
:10161000882309F451CF82E0F6CFF8018281882334
:1016200009F476CE0E941E2B811102C00E94F32A7B
:101630000E94362B90E09093D1068093D006FE0155
:10164000E350FC45E231F105B0F4E75DF44F0C9452
:101650003039410B450B490B4D0B510B550B590BB9
:101660005D0B710B750B790B7D0B810B850B890B5A
:101670008D0B910B9D0B8091D00681608093D006DD
:1016800029C08091D0068260F9CF8091D006846015
:10169000F5CF8091D0068860F1CF8091D00680612F
:1016A000EDCF8091D0068062E9CF8091D006806432
:1016B000E5CF8091D0068068E1CF8091D00684602C
:1016C00088608093D00640E064E070E082E191E0C1
:1016D0000E94D8138091D0060E943A2B0E941225B6
:1016E000EBCE8091D0068E7FC9CF8091D0068D7FC2
:1016F000C5CF8091D0068B7FC1CF8091D006877FE8
:10170000BDCF8091D0068F7EB9CF8091D0068F7DDE
:10171000B5CF8091D0068F7BB1CF8091D0068F77E7
:10172000ADCF8091D0068B7F877F8093D00640E03D
:1017300062E070E082E391E0CBCF9091D006892FF8
:1017400097FB87F980589ACF8091E00481110FC0F0
:101750008091DC049091DD040E94032C883C91056B
:1017600030F486E20E941A2186E20E94112282E071
:101770000E946722A1CEF8018281882351F0109245
:10178000E1040E94F72B9093DF048093DE0480E253
:1017900061CE8091E10481110FC08091DE049091AF
:1017A000DF040E94032C883C910530F487E20E94FC
:1017B0001A2187E20E94112280E2DACF0E94B72A22
:1017C000F8019281992381F08A7A91E009F490E0FE
:1017D0009093DB04811106C089E20E94402A0E9496
:1017E000842A6ACE85E3F9CF8091DB04811104C09D
:1017F00089E20E94472AF3CF85E3FBCF972F70E061
:1018000022E1929F600D711D1124FB019AE5899FD1
:10181000E00DF11D1124EE0FFF1FEC5BFE4F8591D3
:1018200094910895FC01EE0FFF1FE85CFE4F859137
:1018300094910895CF93DF930E94FE0B0E94DB0DDD
:10184000EC018115914508F04BC0C11580E5D80722
:1018500008F031C1C83ED10510F5C03ED10580F574
:10186000C83AD10570F4C53AD10508F0B7C0C13007
:10187000D10531F118F0C430D10510F5D0E0C0E049
:101880001FC0CD3BD10508F4B4C0CE01805C9109E6
:10189000C03CD10598F30E94120CEC0111C0C11597
:1018A00020E3D20788F4C11580E2D80708F0FAC017
:1018B000C03FD10518F3CF3FD10509F008F4F0C0BF
:1018C000CE01DF91CF910895C11520E4D20708F031
:1018D000EFC0CE019927D3FFE8C0EC01D86CF0CF60
:1018E000C11586E5D807D8F5C11525E5D20708F05A
:1018F00008C1C11583E5D807C8F4C11522E5D20790
:1019000008F4F5C0CE018370992721E030E002C0D1
:10191000220F331F8A95E2F7C695C69580E2C89FCD
:10192000E0011124C22BD32BDC68CACFC11584E59A
:10193000D80708F0E1C0CE018370992721E030E09C
:1019400002C0220F331F8A95E2F7C695C69580E242
:10195000C89FE0011124C22BD32BDA68B1CFC53B5D
:101960002CE5D20709F4D9C098F4C33B2CE5D20783
:1019700009F4CDC008F0CEC0CE0198558F3F910537
:1019800011F008F07BCFDC2FCC27C06FD06A98CF46
:10199000C83B2CE5D20709F4C6C060F4C63B2CE571
:1019A000D20709F4BDC0C73BDC4509F067CFC0E0F2
:1019B000D2ED86CFCE0190568115904208F05ECFD1
:1019C0008D2F8F710E945B0EDD27D06290E0982FE3
:1019D000882788279F71C82BD92B72CFC53AD1058C
:1019E00009F4A4C0C63AD10509F4A3C0C3E8D0E401
:1019F00067CFC83AD10509F49FC0C93AD10509F4A7
:101A00009EC0CA3AD10509F49DC0CB3AD10509F46C
:101A10009CC0CC3AD10509F49BC0CB3BD10509F45D
:101A20009AC0CC3BD10509F499C0CD3AD10509F44F
:101A300098C0C03BD10509F497C0CE3AD10509F44E
:101A400096C0CF3AD10509F495C0C13BD10509F440
:101A500094C0C23BD10509F493C0C33BD10509F43E
:101A600092C0C43BD10509F491C0C53BD10509F42E
:101A700090C0C63BD10509F48FC0C73BD10509F41E
:101A80008EC0C83BD10509F48DC0C93BD10509F40E
:101A90008CC0CA3BD10509F08BC0CAE2D6E410CF96
:101AA000D0650ECFCE019F70F6CEEC01D06C08CF82
:101AB000DF70D06A05CFCE0174E0969587957A9550
:101AC000E1F783709C2F937021E030E002C0220F79
:101AD000331F9A95E2F73C68382BC695C695C370BC
:101AE00080E2C89FE0011124C22BD32BE9CEDC2F6A
:101AF000CC27C16FD06AE4CEDC2FCC27C46FD06A6C
:101B0000DFCEDC2FCC27CC27DF71D062D9CEC0E06E
:101B1000D4EDD6CEC0E0D5EDD3CEC0E0D1EDD0CE61
:101B2000C0E0D0EDCDCEC0E0D3EDCACEC1E8D0E468
:101B3000C7CEC2E8D0E4C4CEC2EED4E4C1CEC9EE72
:101B4000D4E4BECECAEED4E4BBCEC5EBD4E4B8CE6A
:101B5000C6EBD4E4B5CEC3EBD4E4B2CEC4EBD4E44C
:101B6000AFCEC7EBD4E4ACCECCECD4E4A9CECDEC74
:101B7000D4E4A6CEC3E8D5E4A3CECAE8D5E4A0CE8B
:101B8000C2E9D5E49DCEC4E9D5E49ACEC1E2D6E45B
:101B900097CEC3E2D6E494CEC4E2D6E491CEC5E2B9
:101BA000D6E48ECEC6E2D6E48BCEC7E2D6E488CEAB
:101BB000C0E0D4E485CE8238910549F1B0F4813398
:101BC000910509F45CC048F48932910509F452C0CA
:101BD0008A32910509F458C008958533910509F4B6
:101BE00044C08933910599F00895833E910531F100
:101BF00038F4803E910591F0823E9105B1F0089550
:101C0000863E910511F1873E910541F1089520919D
:101C1000D0062370C9F080EE90E008952091D006A0
:101C200020FF12C089E390E008952091D00622FFA2
:101C30000BC024FF2EC090E080E008952091D006D4
:101C400022FD2AC024FDF7CF08952091D00623FF5E
:101C5000FBCF24FDF0CF87EE90E008952091D006D1
:101C600023FFF0CF86EE90E008952091D00625FD69
:101C700016C008952091D00625FD14C00895209126
:101C8000D00626FD12C008952091D00626FD10C072
:101C9000089583EE90E0089582EE90E0089589E241
:101CA00090E0089585E390E008958AE290E0089539
:101CB00081E390E0C9CFCF93C82F0E94362B282F05
:101CC00030E03093D1062093D00682FF06C09C2FCF
:101CD0009871983079F4C77FC46083FF06C09C2F49
:101CE0009871983171F4C77EC46184FDC77E8C2FD2
:101CF000CF9108959C2F9471943079F7CB7FC86071
:101D0000ECCF9C2F9471943181F7CB7EC861EDCFDD
:101D100008950F931F93CF938C01FB018281811152
:101D200006C0C1E08C2FCF911F910F910895C091F3
:101D3000EF04C11125C006311C4599F70E94880E99
:101D400081E08093EF040E94F72B9093EE04809340
:101D5000ED041092E2041092E4041092E304109255
:101D6000E6041092E5041092E8041092E704109241
:101D7000EA041092E9041092EC041092EB04D2CF22
:101D80008091ED049091EE040E94032C883C910513
:101D900040F68091E204E82FF0E0EE0FFF1FED51D6
:101DA000FB4F118300838F5F8093E204C0E0BACFC2
:101DB00085B7806885BF85B7806885BFA6E6B4E033
:101DC00061E070E08D91E82FE295EF70F0E041A1C5
:101DD0008F709B0101C0220F8A95EAF7922F909590
:101DE000942391A382A1822B82A384E0AB36B8070F
:101DF00049F7A4E5B4E061E070E08D91E82FE29549
:101E0000EF70F0E041A18F709B0101C0220F8A9515
:101E1000EAF7922F9095942391A382A1822B82A31B
:101E200084E0A636B80749F7E4E0F5E0A0EFB4E0B7
:101E300088E195E011921192119211921D921D92DA
:101E40001D921D928E179F07A9F70C940C092F92D3
:101E50003F924F925F926F927F928F929F92AF923A
:101E6000BF92CF92DF92EF92FF920F931F93CF9387
:101E7000DF93CDB7DEB72C970FB6F894DEBF0FBE59
:101E8000CDBF80EF882E84E0982E26E634E03A839A
:101E9000298398868F8222242394312CC12CD12C23
:101EA0007601C394AA24A394AF81B8854D905D9028
:101EB0006D907C901397FD01108211821282138223
:101EC000A981BA818D91BA83A983E82FE295EF7039
:101ED000F0E091A18F70910102C0220F331F8A950B
:101EE000E2F73C832B83822F892B81A382A1B22E20
:101EF000B0948B2182A330EA3A95F1F744E554E09F
:101F00005E834D8390E080E0AD81BE813D91BE83D4
:101F1000AD83A32FA295AF70B0E090960C91AF81E6
:101F2000B8854D915D916D917C9149875A876B87FA
:101F30007C873F70A10102C0440F551F3A95E2F71C
:101F40009A01202309F081C0B701A601082E04C020
:101F5000440F551F661F771F0A94D2F78A019B0111
:101F600049855A856B857C85402B512B622B732BC1
:101F7000AF81B8854D935D936D937C9313970196D4
:101F80008231910509F0C0CF81A1B822B1A282A10E
:101F9000BB818B2B82A3EF81F88580819181A28107
:101FA000B381481659066A067B0641F0A0921805CF
:101FB0000E94F72B90931A05809319052F8138857D
:101FC0002C5F3F4F38872F8349815A814B565440AD
:101FD00009F06ACF809118058823D9F080911905FE
:101FE00090911A050E94032C069798F0E4E0F5E022
:101FF00084E095E0D4014D915D916D917D914D010D
:1020000041935193619371938A179B0799F71092AB
:1020100018050E94080981E02C960FB6F894DEBFDF
:102020000FBECDBFDF91CF911F910F91FF90EF9029
:10203000DF90CF90BF90AF909F908F907F906F90E8
:102040005F904F903F902F90089500E010E098012E
:1020500087CF94E0899FF0011124EC5FFA4F6081F3
:1020600071818281938108950895FB018D312CE562
:10207000920739F482818823A1F10E94B91580E08A
:1020800008958E312CE5920731F48281882349F13D
:102090000E94C915F4CF8F312CE5920741F482815B
:1020A0008823F9F00E94B5158111F2CFE6CF843272
:1020B0002CE5920769F48281882399F00E94E21549
:1020C00040E064E070E08AE591E00E94D813D7CF49
:1020D00085329C4531F48281882319F00E94EB15EA
:1020E000EFCF81E008958554990BBC01990F880BBF
:1020F000990B0E94EC3520E030E040E451E40E946E
:1021000008359B01AC0160E070E080E090E40E9443
:102110000D3820E030E04CED53E40E94A0374FE052
:1021200050E00C9455158554990BBC01990F880B00
:10213000990B0E94EC3520E030E040E451E40E942D
:1021400008359B01AC0160E070E080E090E40E9403
:102150000D3820E030E04CED53E40E94A0370C94A1
:10216000B8140C947D1408951F920F920FB60F921D
:1021700011240BB60F924F925F926F927F928F92C3
:102180009F92AF92BF92CF92DF92EF92FF922F93E6
:102190003F934F935F936F937F938F939F93AF93EF
:1021A000BF93EF93FF9380912E05882309F4CAC053
:1021B000E0907005F09071051E141F040CF0C2C071
:1021C00040901E0550901F056090200570902105DD
:1021D00020E030E0A901C301B2010E9425371816A2
:1021E0000CF093C121E0E216F10409F452C0809191
:1021F0006E0590916F05B7010E941C396C01909398
:102200006F0580936E058090300590903105A09009
:102210003205B090330520E030E040E85FE3C501CF
:10222000B4010E9497346093300570933105809318
:10223000320590933305F601EE0FFF1FEE0FFF1FDF
:10224000EC5BFA4FA30192016081718182819381DD
:102250000E94083520E030E040E05EE30E94A037B5
:102260009B01AC01C501B4010E94253718168CF4FE
:10227000C6010196B7010E941C3990936F058093A7
:102280006E051092300510923105109232051092B1
:102290003305E0916E05F0916F05EE0FFF1FEE0F15
:1022A000FF1FEC5BFA4F60817181828193812091E5
:1022B0001B0530911C052F3F320731F02F5F3F4F38
:1022C00030931C0520931B050E94F4156B017C01C3
:1022D00020E034E244EF51E40E94033587FF08C058
:1022E00086EFC82E88E2D82E84EFE82E81E4F82EFF
:1022F00020E030E040E051E4C701B6010E94A03781
:102300009B01AC0160E074E284E79BE40E94083525
:102310006B017C010E94BB3570939700609396001F
:102320002091B3013091B4014091B5015091B601B3
:10233000C701B6010E94A0370E94BB357093990077
:102340006093980080912F05882309F4B4C1C09050
:102350002A05D0902B05E0902C05F0902D0520E06B
:1023600030E0A901C701B6010E94253718160CF00C
:1023700091C180911B0590911C058F3F980729F012
:10238000019690931C0580931B05C701B6010E941E
:10239000F41520E030E040E051E40E94A0379B01BA
:1023A000AC0160E074E284E79BE40E9408356B01B5
:1023B0007C010E94BB35709397006093960020913A
:1023C000B3013091B4014091B5015091B601C701FC
:1023D000B6010E94A0370E94BB35709399006093AC
:1023E000980060912405709125056F5F7F4F709371
:1023F000250560932405E0909600F090970090E00A
:1024000080E00E94EA354B015C0140902605509027
:1024100027056090280570902905EF2809F443C12D
:102420008091230581113FC16091960070919700C2
:1024300090E080E00E94EA359B01AC01C301B2014B
:102440000E94083520E03FEF4FE757E40E94A03795
:1024500020E030E040E85FE30E949634A50194015B
:102460000E94033518160CF426C1809122058F5F57
:102470008093220520916B0630916C06821713061B
:1024800038F080917206882309F41EC1109222054B
:10249000E0916D06F0916E069091220580912305E2
:1024A000811146C181E080932305915090932205CC
:1024B00048E0949F90011124E20FF31FC080D18067
:1024C000E280F3802085318542855385C701B601BE
:1024D0000E940335811123C110922A0510922B0509
:1024E00010922C0510922D0580E090E0A0E8BFE34B
:1024F0008093260590932705A0932805B09329057E
:102500001092250510922405D6C0F701EE0FFF1F8B
:10251000EE0FFF1FE05CFA4F80809180A280B380B5
:102520008091B201882309F4ACC0C0906A05D090B4
:102530006B05E0906C05F0906D0520E030E0A9019E
:10254000C701B6010E940335882309F49AC0A5018A
:102550009401C701B6010E94033587FF5BC0A50146
:10256000940160E070E08CED93EC0E94083520E06F
:1025700030E040E451E40E94083520E030E040E0E3
:102580005FE30E94A0379B01AC0160E070E080E057
:1025900090E40E940D38A50194010E94A0379B0190
:1025A000AC01C701B6010E94033587FF33C0A70104
:1025B000960160E070E08CED93E40E94083520E025
:1025C00030E040E451E40E94083520E030E040E093
:1025D0005FE30E94A0379B01AC0160E070E080E007
:1025E00090E40E940D389B01AC01C701B6010E9426
:1025F000A03760936A0570936B0580936C05909388
:102600006D0560916A0570916B0580916C059091E4
:102610006D054DCEA5019401C701B6010E94253775
:1026200018167CF5A501940160E070E08CED93E450
:102630000E94083520E030E040E451E40E94083573
:1026400020E030E040E05FE30E94A0379B01AC0156
:1026500060E070E080E090E40E940D38A5019401F4
:102660000E94A0379B01AC01C701B6010E9425372B
:1026700018163CF4A701960160E070E08CED93EC35
:102680009CCF80926A0590926B05A0926C05B092E7
:102690006D05B7CF10929700109296001092990096
:1026A000109298009ECEA3019201C501B4010E9430
:1026B000253787FFDACE80916F0680FD11C010921A
:1026C0002F0510922E050CC0809171008D7F809394
:1026D0007100809190008F738093900010922F056D
:1026E000FF91EF91BF91AF919F918F917F916F91EA
:1026F0005F914F913F912F91FF90EF90DF90CF909E
:10270000BF90AF909F908F907F906F905F904F9011
:102710000F900BBE0F900FBE0F901F901895C09298
:102720002A05D0922B05E0922C05F0922D05DCCEE7
:102730001092230510921C0510921B0528E0929F11
:10274000C0011124E80FF91F80819181A281B3811A
:1027500080932A0590932B05A0932C05B0932D050B
:1027600020E030E040E85EE36481758186819781F6
:102770000E94A0376B017C016091B70170E090E08E
:1027800080E00E94EA3520E030E048EC52E40E940C
:1027900008359B01AC01C701B6010E94A0376093C8
:1027A0002605709327058093280590932905A8CEC8
:1027B000CF92DF92EF92FF92CF93DF93EC016B0108
:1027C000F42E80911D05811102C00E945414809145
:1027D0006F0680FF62C0809171008D7F80937100D1
:1027E00080912E0581110E947D1481E080932F0538
:1027F000D0936E06C0936D06D0926C06C0926B06A5
:10280000F092720610923005109231051092320546
:10281000109233051092220588819981AA81BB818B
:1028200080932A0590932B05A0932C05B0932D053A
:1028300020E030E040E85EE36C817D818E819F8105
:102840000E94A0376B017C016091B70170E090E0BD
:1028500080E00E94EA3520E030E048EC52E40E943B
:1028600008359B01AC01C701B6010E94A0376093F7
:1028700026057093270580932805909329051092CB
:10288000250510922405809171008260809371006B
:1028900080919000806880939000DF91CF91FF90AD
:1028A000EF90DF90CF9008950E941E2B811102C0FF
:1028B0000E94F32A0E94482B80936F0680911D0589
:1028C00081110FC03E9A809171008D7F80937100BD
:1028D00082E0809390008AE18093910081E0809370
:1028E0001D0580916F0680FF07C040E063E070E047
:1028F0008AE991E00C94D813089580911D05811107
:1029000002C00E94541410927105109270058091BB
:1029100071008D7F80937100809190008F73809300
:10292000900010922F0510922E0510926A051092B9
:102930006B0510926C0510926D0510926605109251
:10294000670510926805109269051092650510924E
:102950006405E4E4F5E0A4E3B5E01192119211926C
:1029600011921D921D9285E0E436F807B1F70895A3
:10297000CF92DF92EF92FF920F931F93CF93DF934B
:102980006B017C0180912E05882309F467C080913A
:102990001D05811102C00E94541404E415E0C7E033
:1029A000D0E0A7019601F801648D758D868D978D15
:1029B0000E94033581116CC0FE01EE0FFF1FEE0F68
:1029C000FF1FEC5BFA4F1082118212821382CC0F30
:1029D000DD1FCC5CDA4F1982188285E0E036F807FB
:1029E00009F045C08091700590917105019797FDA0
:1029F00057C09093710580937005809170059091F8
:102A0000710520916E0530916F052817390724F064
:102A100010926F0510926E05892B01F5809171005F
:102A20008D7F80937100809190008F7380939000D0
:102A300010926A0510926B0510926C0510926D054C
:102A4000109266051092670510926805109269054C
:102A5000109265051092640510922E05DF91CF91BA
:102A60001F910F91FF90EF90DF90CF900895848198
:102A70009581A681B78181939193A193B19310829F
:102A80001182128213828A819B8189939993A3CFA9
:102A9000219704501109CF3FDC0709F082CFA2CF64
:102AA0001092710510927005A8CFCF92DF92EF922D
:102AB000FF92CF93DF936B017C01EA0180911D05AA
:102AC000811102C00E94541480916F0680FF46C09D
:102AD000809170059091710508970CF03FC080912E
:102AE00071008D7F8093710080912F0581110E946C
:102AF0007D1481E080932E0510921C0510921B0519
:102B000020E030E0A901C701B6010E942537181660
:102B1000DCF48091700590917105FC01EE0FFF1FB0
:102B2000EE0FFF1FEC5BFA4FC082D182E282F3828C
:102B3000FC01EE0FFF1FEC5CFA4FD183C0830196BE
:102B400090937105809370058091710082608093ED
:102B5000710080919000806880939000DF91CF9108
:102B6000FF90EF90DF90CF90089580916F06817075
:102B7000089580916F06816080936F060E944C2BB0
:102B80000E94B31040E062E070E08AE891E00C94AB
:102B9000D81340E062E070E08AE791E00E94D81329
:102BA0002FEF81EE94E0215080409040E1F700C08B
:102BB00000000E947D1480916F068E7F80936F06C7
:102BC0000C944C2B8091720590E0019687709927A8
:102BD0008093720508958091720590E00796877042
:102BE00099278093720508958F929F92AF92BF921A
:102BF000CF92DF92EF92FF92CF93DF936B017C0134
:102C0000C0911B05D0911C05BE0190E080E00E94A0
:102C1000EA354B015C01A701960160E070E08CE5AC
:102C200094E40E9408359B01AC01C501B4010E94E7
:102C3000A0370E94BB359B01E0917205E83018F582
:102C4000F0E0EB5DF94E0C9430392D1650166916F4
:102C500071174316B917EA1728181092B20180E0CD
:102C600090E0A0E0BFE38093B3019093B401A09300
:102C7000B501B093B60110921E0510921F05109277
:102C8000200510922105C701B601DF91CF91FF9079
:102C9000EF90DF90CF90BF90AF909F908F9008956E
:102CA0001092B20110921E0510921F05109220057D
:102CB000109221056A50710980E090E0A0E8BEE31F
:102CC0006F3B710508F460C080E090E0A0E0BEE3D7
:102CD0005BC01092B20110921E0510921F05109257
:102CE00020051092210520E030E040EA52E4C701BF
:102CF000B6010E94033587FDC6CF20E030E040E2F8
:102D000053E4C701B6010E94033587FF46C00E9405
:102D1000C53A68E270E00E941C39BC01645C7F4FD8
:102D2000072E000C880B990B0E94EC356B017C017F
:102D300080911B0590911C058B30910508F1853120
:102D4000910508F052C065E170E0681B790B90E0D6
:102D500080E00E94EA3520E030E040E05FE30E943E
:102D6000A03720E030E040E251E40E940835609353
:102D7000B3017093B4018093B5019093B60183CFF2
:102D800080E090E0A0E0BFE38093B3019093B401B2
:102D9000A093B501B093B60176CF20E030E040EAD1
:102DA00053E4C701B6010E94033587FF27C00E9484
:102DB000C53A68EE73E00E941C39BC0168517C4F33
:102DC000072E000C880B990B0E94EC356B017C01DF
:102DD00080911B0590911C058630910588F265E174
:102DE00070E08531910508F46BC01092B301109228
:102DF000B4011092B5011092B60145CF20E030E049
:102E000040E254E4C701B6010E94033587FF2FC09A
:102E10000E94C53A60ED77E00E941C39BC016854FD
:102E2000744F072E000C880B990B0E94EC356B0138
:102E30007C0180911B0590911C058031910508F45F
:102E40009FCF8531910588F665E170E0681B790BAD
:102E500090E080E00E94EA3520E030E040E05FE36F
:102E60000E94A03720E030E040EA50E47ECF20E02E
:102E700030E040EA54E4C701B6010E94033587FF01
:102E800002CF0E94C53A60ED77E00E941C39BC0178
:102E90006854744F072E000C880B990B0E94EC3578
:102EA0006B017C0180911B0590911C05843291057A
:102EB00008F466CF8333910508F097CF63E370E0A1
:102EC000681B790B90E080E00E94EA3520E030E05A
:102ED00040E05FE30E94A03720E030E040E751E4AB
:102EE00044CF41E04093B20110921E0510921F059D
:102EF00010922005109221056431710540F46A306A
:102F0000710560F120E030E040E05FE32BC0693CF8
:102F1000710508F06ACF90E080E00E94EA3520E079
:102F200030E040EA51E40E94963420E030E044E38F
:102F300053E40E9408359B01AC010E94A03720E0B9
:102F400030E040E05EE30E94A0379B01AC0160E00E
:102F500070E080E09EE30E94963409CF20E030E0EC
:102F600040E85EE3C701B6010E94A0376B017C0117
:102F7000ABCE21E02093B20110921E0510921F05E6
:102F800010922005109221054AE0469F9001479F2C
:102F9000300D1124C90168EB7BE00E940839BC01A7
:102FA0006C5D754077FF03C0719561957109072EBF
:102FB000000C880B990B0E94EC352EE333EC4EE2AB
:102FC00059E30E94A03720E030E040EC5EE30E942D
:102FD0009734CDCE81E08093B20110921E051092FD
:102FE0001F051092200510922105CE0183709927AC
:102FF000892B09F1BE016170772790E080E00E9483
:10300000EA3520E030E040E05EE30E94A03720E0B7
:1030100030E040E45FE30E9497346093B301709323
:10302000B4018093B5019093B601C770DD27CD2B15
:1030300009F029CEDACE80E090E0A0E0BFE38093F3
:10304000B3019093B401A093B501B093B601EDCF55
:1030500041E04093B20110921E0510921F0510929C
:10306000200510922105812C912CA12C9FE3B92ED3
:103070008092B3019092B401A092B501B092B601D2
:103080002739310508F4FFCD90E080E00E94EA3551
:1030900020E030E047E153E40E94963420E030E045
:1030A0004AE754E40E94083520E030E048E452E466
:1030B0000E94A03720E030E040EA51E40E9432361E
:1030C0000E94B435660F771F660F771F65597B4FD7
:1030D000FB012081318142815381C701B6010E94E9
:1030E000A0376B017C01CFCD80918C0581110C94B0
:1030F000B11008950E94741810928C0540E068E0A9
:1031000070E088E392E00C94D81310928B0540E0B5
:1031100068E070E088EB91E00C94D8130E9474187A
:1031200020918A0530E02F5F3F4F23703327209393
:103130008A0548E2429FC001439F900D112440E060
:1031400065E070E088549D4F0C94D813CF93809124
:1031500087058823F1F0809173059091740500979D
:1031600079F40E94F72B90937405809373058091F6
:103170007505282F30E0882371F0C90101970FC031
:103180000E94032C209158033091590328173907C6
:1031900040F3CF910895809176058150990B29587D
:1031A0003A4FF901C08120918C05222331F08958D2
:1031B0009A4FFC0180810E94931080918C05882396
:1031C00019F08C2F0E9473108091750590E0019684
:1031D0006091760570E00E941C3980937505D9CF07
:1031E000089581E080938C0540E068E070E088E716
:1031F00092E00E94D8130C94F018089581E0809317
:103200008B0540E068E070E088EF91E00E94D81301
:103210000C94FD18EF92FF921F93CF93DF93CDB7DD
:10322000DEB7A3970FB6F894DEBF0FBECDBF7C010B
:1032300080324CE5940751F4DB0112968C9188237F
:1032400009F44DC00E94F11880E0EEC08132BCE567
:103250009B0741F4FB018281882309F440C00E944E
:103260007A18F2CF8232FCE59F0751F480918C05E9
:10327000DB0112969C91992391F18111F0CFE2CF5D
:103280008632BCE59B0739F4FB018281882339F142
:103290000E94FE18D9CF8732FCE59F0741F4DB017D
:1032A00012968C918823D9F00E948518CDCF883250
:1032B000BCE59B0749F4FB018281882381F0809162
:1032C0008B058111F1CFE4CF83329C4541F4DB01C2
:1032D00012968C91882319F00E948E18B5CF2091F8
:1032E0008C05211105C080918B05882309F4E7C066
:1032F000FB013281332309F450C0F0EEEF16F104E4
:1033000061F40E94741881E0809389051092880509
:10331000109287051092760597CF42EEE416F104DD
:1033200071F40E94741880918905882319F081E056
:1033300080938805109289051092870585CF83EECA
:10334000E816F10491F480918805882331F10E94F8
:1033500074181092890581E0809387051092750595
:1033600010927405109273056FCF92E5E916F1047F
:1033700051F480915803909159030A9790935903FF
:103380008093580361CFA1E5EA16F10431F48091EE
:103390005803909159030A96F1CF80918A051091B4
:1033A0005C03811111C0135080915A03180FFB0167
:1033B0008081180F418185E090E0841B9109FCE039
:1033C0008F9F100D112414C08130D1F5105E8091B3
:1033D0005A03180FDB018C91180F11964C9185E060
:1033E00090E0841B9109982F990F990F890F180F5E
:1033F000332309F45DC0222319F0812F0E9473103A
:1034000080918905882351F080917605E82FF0E0BE
:10341000E958FA4F10838F5F8093760581E0BFEF04
:10342000EB16F10408F410CFA3960FB6F894DEBFA4
:103430000FBECDBFDF91CF911F91FF90EF90089508
:10344000823071F4105E80915A03180FFB01808165
:10345000180F418185E090E0841B9109F7E0B0CF1F
:10346000833031F683E2ECE6F3E0DE011196019061
:103470000D928A95E1F7DB01EC9181E090E08C0FF1
:103480009D1F8E0F911DFC0180915A0390915B034B
:10349000E80FF91F13508081180F11964C9185E0A9
:1034A00090E0841B9109ACE08A9F100D1124A0CFFD
:1034B000222309F4B3CF812F0E949310AFCF81E074
:1034C000B3CFCF92DF92EF92FF920F931F93CF93E0
:1034D000DF93E901662309F466C0E42EF12CEFEFD7
:1034E000F0E0E61BF109EE9D8001EF9D100DFE9DC1
:1034F000100D1124212FE12FFF27EE1AFF0A5CE3A4
:10350000C52ED12CB6010E940839FB01BC01E69EF4
:10351000C001E79E900DF69E900D1124B6010E9409
:103520000839E230F10589F168F4812F262F210F47
:10353000309781F0242F461B319761F080E020E026
:1035400040E008C0E430F10551F128F1842F861BDA
:103550003597A1F7E42FF0E0E658FC4F4491E22FB5
:10356000F0E0E658FC4F9491E82FF0E0E658FC4F6D
:10357000E49149839883EA83DF91CF911F910F9162
:10358000FF90EF90DF90CF900895862F810FE42F6A
:10359000412F2E2FDFCFE42FE61B842FF9CF842F6E
:1035A000462F410FD7CF842F242FD4CF88E090E02F
:1035B0000C94E33AAB01BC0188E090E00C94013B31
:1035C000E3E7F6E083E08083109274068FEF828356
:1035D0008383609173067091740680917506909153
:1035E00076060C94DA1A6091730660FF06C0669541
:1035F0006F7370E090E080E0089560E070E0CB01D0
:103600000895E3E7F6E080818E7F80836091730602
:103610007091740680917506909176060E94DA1A70
:103620001092A2052FEF80E792E021508040904059
:10363000E1F700C000000C943C069091730690FFE7
:103640000CC0EBE7F6E0818360834283339696E01B
:10365000EC3CF907C1F70C943C060895EF92FF92F9
:103660000F931F93CF93DF9300D01F92CDB7DEB798
:10367000182FE92EF62E042F809173069091740670
:10368000A0917506B09176068093770690937806A0
:10369000A0937906B0937A068091730680FF1FC0CD
:1036A0009E012F5F3F4F812F9E2D0E94611A8091B6
:1036B000770610FB87F98093770616958091780638
:1036C0008078812BE0FA87F980937806F09279066A
:1036D00000937A064B8169818A810E941D1B0F909D
:1036E0000F900F90DF91CF911F910F91FF90EF906E
:1036F00008956F927F928F929F92AF92BF92CF92D6
:10370000DF92EF92FF920F931F93CF93DF93EC0121
:10371000662E742E8091730680FF8CC0982F9E7742
:10372000923079F5CE010E942E1B809173069C2F5A
:10373000C0FB87F980937306969580917406807814
:10374000892BD0FB87F9809374066092750670927E
:10375000760660917306709174068091750690915B
:103760007606DF91CF911F910F91FF90EF90DF9040
:10377000CF90BF90AF909F908F907F906F900C9460
:10378000DA1AE82FE695EF739EE39E0F9F7394304D
:1037900018F470907606C9CF9AE39E0F9F73993004
:1037A00070F4881F8827881F90917406292F220F94
:1037B000C22FC82B97FB992790F9D92FB6CF87E254
:1037C0008E0F8F738A3008F0B0CFE951FF0B2FEFC7
:1037D000E0FF21E0EE7FE05AFC4F859194916BE190
:1037E00070E00E94083926035001279FB00C112475
:1037F0007E0188E9E81A8EEFF80A0BE716E08CECF8
:10380000C82E86E0D82E98E6892E99249394C70175
:10381000B4010E9408399801472D662D0E94611A53
:10382000EA0CFB1C0D5F1F4FC016D10681F70E94EA
:103830003C067BCFDF91CF911F910F91FF90EF90CE
:10384000DF90CF90BF90AF909F908F907F906F90C0
:103850000895E3E7F6E02081221F2227221F3091FE
:103860007406432F440F842F822B37FB992790F93E
:103870000A9668E671E00E941C39438162810C94CB
:10388000791B20917306221F2227221F3091740674
:10389000432F440F842F822B37FB992790F98A30CE
:1038A000910540F4825A9E4F4091760660917506CC
:1038B0000C94791B0A9768E671E00E941C39F4CFDA
:1038C000609175066F3E90F46F5E80917306881F5D
:1038D0008827881F90917406292F220F97FB99271C
:1038E00090F940917606822B0C94791B6FEFEDCF07
:1038F00060917506613190F0615180917306881F67
:103900008827881F90917406292F220F97FB9927EB
:1039100090F940917606822B0C94791B60E0EDCFF4
:10392000409176064F3E90F44F5E80917306881F5B
:103930008827881F90917406292F220F97FB9927BB
:1039400090F960917506822B0C94791B4FEFEDCFA7
:1039500040917606413190F0415180917306881F65
:103960008827881F90917406292F220F97FB99278B
:1039700090F960917506822B0C94791B40E0EDCF95
:103980009091730690FF42C09178811126C0926099
:10399000909373066091730670917406809175061A
:1039A000909176060E94DA1A80917306982F9E777E
:1039B0009230D9F41092A205881F8827881F909111
:1039C0007406292F220F97FB992790F940917606CC
:1039D00060917506822B0C94791B833210F09464ED
:1039E000D7CF8F73880F982BD3CF982F96959F732F
:1039F0002EE3290F2F73273120F491E09093A20535
:103A0000DBCF995D9F739A30B8F6D4CF089580913B
:103A1000240681608093240681E08093A3050E94A0
:103A20001E2B811104C00E94F32A0E94E01A0E94FA
:103A3000D61A6093730670937406809375069093FC
:103A400076066E7761F40E94E01A0E94D61A60939F
:103A5000730670937406809375069093760681E0E2
:103A60008093A2058091730680FF04C086958F73B2
:103A70000C94C01C08958091730686958F738F5F98
:103A8000833208F081E00C94C01C80917306869507
:103A90008F73815009F482E20C94C01CCF93DF93A2
:103AA000C3E7D6E088818160888360917306709156
:103AB000740680917506909176060E94DA1A8881C4
:103AC00086958F73DF91CF910C94C01C8091730603
:103AD00080FD0C94011B0C944E1DCF93C82F809138
:103AE000A0059091A1050E94032CEC2FF0E0EA586C
:103AF000FC4FE491E817190611F008F042C00E944B
:103B0000F72B9093A1058093A00560919F0570E02D
:103B100090E080E00E94EC3520E030E04FE753E495
:103B20000E9408352BED3FE049E450E40E94A037A5
:103B30000E945D380E9482352BE43AE34EE25FE357
:103B40000E94963420EF3BEF48ED52E40E94A037EC
:103B50000E94BB35462F80917306881F8827881FD7
:103B600090917406292F220F97FB992790F9609165
:103B70007506822B0E942E1B80919F058F5F80937C
:103B80009F05CF910895CF93C82F80919D05909167
:103B90009E050E94032CEC2FF0E0ED58FC4FE491C1
:103BA000E817190609F0E8F40E94F72B90939E0598
:103BB00080939D05409176066091750680919B05E6
:103BC00090919C050E942E1B80919B0590919C05D5
:103BD000019668E671E00E94083990939C058093F5
:103BE0009B05CF910895DF92EF92FF920F931F9361
:103BF000CF93DF93D82E8091990590919A050E94DA
:103C0000032CED2DE695F0E0E059FC4FE491E81728
:103C1000190609F0A8F50E94F72B90939A05809356
:103C200099050BE716E0D0E0C0E088E6E82EFF2417
:103C3000F39480919705909198058C0F9D1FB70183
:103C40000E940839980140917606609175060E949D
:103C5000611A2D960D5F1F4FCF3581E0D80749F7C8
:103C60000E943C068091970590919805D0FE10C067
:103C70000196B7010E9408399093980580939705A3
:103C8000DF91CF911F910F91FF90EF90DF900895FA
:103C90000197F2CFCF92DF92EF92FF920F931F9393
:103CA000CF93DF93C82FFF24FA9480FD02C0FF2436
:103CB000F39480919505909196050E94032CC695EA
:103CC000EC2FF0E0E359FC4FE491E817190611F0EE
:103CD00008F051C00E94F72B9093960580939505AC
:103CE0000BE716E0D0E0C0E0F801118210821282EA
:103CF00094E0C92ED12CE12C809194058E0D87FD86
:103D0000855E082E000C990BC817D907E9F480913D
:103D100076068C9DA0018D9D500D112455954795DB
:103D20005595479580917306881F8827881F909125
:103D30007406592F550F97FB992790F998016091B8
:103D40007506852B0E94611AEF0CF1E0CF1AD1089D
:103D500099F621960D5F1F4FCB31D10529F60E94B0
:103D60003C068091940591E0F91210C081110CC0BD
:103D70008AE180939405DF91CF911F910F91FF907D
:103D8000EF90DF90CF9008958150F3CF90E00196AF
:103D9000BE010E941C39EDCF0F931F93CF93DF9389
:103DA000C82F80919205909193050E94032CEC2FCF
:103DB000F0E0E659FC4FE491E817190611F008F01D
:103DC00052C00E94F72B9093930580939205CBE706
:103DD000D6E0FE01118210821282339686E0EC3C1E
:103DE000F807C1F710E000E080919105082E000C63
:103DF000990B08171907E4F180915E03082E000C57
:103E0000990B80179107A4F180917306881F88276A
:103E1000881F90917406592F550F97FB992790F999
:103E20009E014091760660917506852B0E94611A6D
:103E30000F5F1F4F23960B311105B1F60E943C0610
:103E400080915D0390919105980F90939105209139
:103E50005E03280F20935E03121614F49A311CF0AF
:103E6000819580935D03DF91CF911F910F9108950C
:103E7000198218821A82DCCFEF92FF920F931F9360
:103E8000CF93DF9380918F05909190050E94032C32
:103E9000883E9340C8F10E94F72B90939005809341
:103EA0008F05C0918D05D0918E052196C170DD27BB
:103EB000D0938E05C0938D058BE7E82E86E0F82E13
:103EC00010E008E7812F86958C0F9D2F911D817042
:103ED000992797014091760660917506FC010E9F27
:103EE000C0010F9F900D11240E94611A1F5FF3E023
:103EF000EF0EF11C1B3131F7DF91CF911F910F9124
:103F0000FF90EF900C943C06DF91CF911F910F91A1
:103F1000FF90EF9008958091A205882391F19091F0
:103F20007306892F86958F732EE3280F2F73243005
:103F300018F482500C946D1D2AE3280F2F73233040
:103F400018F486500C94C31D27E3280F2F732630D6
:103F500018F489500C94F31D21E3280F2F73263099
:103F600018F48F500C944A1E2BE2280F2F73233025
:103F700018F485510C94CC1E9E77903311F40C9458
:103F80003C1F08959093A9058093A8050895E0919A
:103F9000A805F091A905309721F00190F081E02D5E
:103FA000099480E00895E091A805F091A905309763
:103FB00021F00280F381E02D099408952091A60557
:103FC0003091A7052817390771F09093A7058093C2
:103FD000A605E091A805F091A905309721F006808B
:103FE000F781E02D099408952091A4053091A5054D
:103FF0002817390771F09093A5058093A405E091E7
:10400000A805F091A905309721F00084F185E02DF5
:104010000994089508950C940A2081E008950E945F
:10402000EE2B0E94D80E0E94772C0E94F12C0C944B
:10403000071D4F925F926F927F928F929F92AF92E5
:10404000BF92DF92EF92FF920F931F93CF93DF9374
:10405000CDB7DEB72A970FB6F894DEBF0FBECDBF3F
:104060000E94270F0E940D20882309F492C02BEA9A
:10407000E22E25E0F22E10E000E0D02E802F0E94EC
:1040800029104B015C01F7014190519061907190B2
:104090007F01481459046A047B0409F474C08091B8
:1040A000240681FD0E94341090E080E048245924C9
:1040B0006A247B24B301A201082E04C0769567957B
:1040C000579547950A94D2F740FF58C08E83DF82F8
:1040D000412C512C3201439404C0440C551C661CE5
:1040E000771C8A95D2F784209520A620B72081E0FE
:1040F00089288A288B2809F480E088870E94F72B7A
:104100008160782F9A8789874E815F8168858A854B
:104110000E94F020000F111F000F111FF801E5553C
:10412000FA4F80819181A281B38184259525A625AE
:10413000B72580839183A283B3830E94C71F909188
:10414000AA058917B9F10E94C71F8093AA052A966C
:104150000FB6F894DEBF0FBECDBFDF91CF911F9198
:104160000F91FF90EF90DF90BF90AF909F908F9056
:104170007F906F905F904F900C941209019682315E
:10418000910509F097CF0F5F1F4F0530110509F01A
:1041900074CF8FEF89838A831B820E94F72B816003
:1041A000782F9D838C8349815A816B818D810E94F8
:1041B000F020C3CF2A960FB6F894DEBF0FBECDBF56
:1041C000DF91CF911F910F91FF90EF90DF90BF9003
:1041D000AF909F908F907F906F905F904F900895D9
:1041E000CF93DF93CDB7DEB72B970FB6F894DEBF32
:1041F0000FBECDBF4F83588769877A878B871E8212
:104200001D8285E0FE013796DE01119601900D9228
:104210008A95E1F749815A816B817C818D819E81EC
:104220002B960FB6F894DEBF0FBECDBFDF91CF91B6
:104230000C94C427882309F4F3C08238B9F40E948F
:10424000C71F81FDEDC089E30E94402A0E94842A95
:104250002FEF81EE94E0215080409040E1F700C0C4
:10426000000089E30E94472A0C94842A8338A1F431
:104270000E94C71F80FDD4C083E50E94402A0E948F
:10428000842A2FEF81EE94E0215080409040E1F7A6
:1042900000C0000083E5E6CF8438A1F40E94C71F68
:1042A00082FDBEC087E40E94402A0E94842A2FEF2C
:1042B00081EE94E0215080409040E1F700C0000082
:1042C00087E4D0CF9CEF980F913A18F40E94402ACF
:1042D000CBCF90E2980F983050F4877091E001C0F6
:1042E000990F8A95EAF7892F0E94BA2ABDCF9BE5DC
:1042F000980F933070F4853A31F0863A39F083E8BC
:1043000090E00C94DE1F81E890E0FBCF82E890E023
:10431000F8CF98E5980F953108F082C0883A09F4F3
:1043200040C0893A09F440C08A3A09F440C08B3A47
:1043300009F440C08C3A09F440C08B3B09F440C0FA
:104340008C3B09F440C08D3A09F440C0803B09F42D
:1043500040C08E3A09F440C08F3A09F440C0813B16
:1043600009F440C0823B09F440C0833B09F440C0DB
:10437000843B09F440C0853B09F440C0863B09F406
:1043800040C0873B09F440C0883B09F440C0893BEA
:1043900009F440C08A3B09F440C090E080E00C94EE
:1043A000F41F82EE90E0FBCF89EE90E0F8CF8AEE2A
:1043B00090E0F5CF85EB90E0F2CF86EB90E0EFCF89
:1043C00083EB90E0ECCF84EB90E0E9CF87EB90E0DB
:1043D000E6CF8CEC90E0E3CF8DEC90E0E0CF83E88B
:1043E00091E0DDCF8AE891E0DACF82E991E0D7CFA2
:1043F00084E991E0D4CF81E292E0D1CF83E292E0F0
:10440000CECF84E292E0CBCF85E292E0C8CF86E2C5
:1044100092E0C5CF87E292E0C2CF8AE292E0BFCFBE
:104420000895882309F44BC0823871F40E94C71F95
:1044300081FF45C089E30E94402A0E94842A89E3C3
:104440000E94472A0C94842A833859F40E94C71F7B
:1044500080FF35C083E50E94402A0E94842A83E5BC
:10446000EFCF843859F40E94C71F82FF28C087E429
:104470000E94402A0E94842A87E4E2CF9CEF980F92
:10448000913AF0F290E2980F983050F4877091E0F2
:1044900001C0990F8A95EAF7892F0E94C02AD2CFCE
:1044A0009BE5980F933020F490E080E00C94DE1FA1
:1044B000885A853120F490E080E00C94F41F089530
:1044C000882321F00E94BA2A0C94842A0895882314
:1044D00021F00E94C02A0C94842A08958F929F9202
:1044E000AF92BF92DF92EF92FF920F931F93CF9301
:1044F000DF937C01D62FC72FFC01058102950F7039
:10450000128111110E94D92A0E947D2AD82E882357
:1045100071F0112331F180E28D0F883010F182E0CB
:104520000E94672A0E947D2A91E0D82ED926BC2EAF
:10453000B2949FE0B922EB2DF0E0EF55FD4D0C94C5
:104540003039B322B3220323032345234C234C23C6
:104550004C236D234C230824082492249B244C23B1
:10456000BE24D12CE4CF0C2F0F70C07F11F0029528
:10457000007F1123A9F0002359F080E28D0F8830CD
:1045800010F0D11109C0802F0E94BA2A0E94842AFB
:104590008D2F0E941A2114C0802F0E94CB2AF6CFA3
:1045A0008D2F0E941122002359F080E28D0F883058
:1045B00010F0D11124C0802F0E94C02A0E94842AAA
:1045C000DD2009F4E2C10E945A2A80FDDEC1F70114
:1045D00012820E94542A0E945529C7010E94D124A8
:1045E0000E94542ADF91CF911F910F91FF90EF907D
:1045F000DF90BF90AF909F908F900C947629802F82
:104600000E94D12ADBCFFC2FFF70BF2EC07FC032AB
:1046100019F0B29480EFB822DD2369F0D13029F18E
:10462000112369F1002359F0F701858180FFB0CF94
:104630008F70858304C0112361F0011104C08B2D9C
:104640000E946022BDCF8B2D0130D1F70E94ED2A50
:10465000B7CF011106C00E94F02A8B2D0E9467225D
:10466000AFCF013009F4ACCFF6CF112321F00630E3
:1046700008F0A6CFE4CF053008F0A2CFEECF00239C
:1046800061F38D2F0E9411229BCF8C2F86958695EA
:10469000837079F08130B9F098E0B91609F459C007
:1046A000B91608F48DCF86EF8B0D823008F451C017
:1046B00087CF8D2F9C2F9370111102C090E080E066
:1046C0000E94DE1F7DCF8D2F9C2F9370111102C091
:1046D00090E080E00E94F41F73CF8C2F837009F06C
:1046E0004BC0111136C02D2F229526952770220F11
:1046F000220F6D2F6F70862E912CB12CA12C022EC3
:1047000004C0880C991CAA1CBB1C0A94D2F760E058
:1047100070E0CB01D4FF0FC06FE070E080E090E06C
:1047200004C0660F771F881F991F2A95D2F76095DE
:10473000709580959095C695C695C370C23071F0FE
:10474000A0F4682979298A299B29C13091F00E9417
:1047500007290E94C71F0E94120932CF68297929B0
:104760008A299B290E941929F4CF0E940729C50193
:10477000B4010E94F528EDCF8695112311F08C2FFE
:104780008170882331F32D2F229526952770220FD3
:10479000220F6D2F6F70862E912CB12CA12C022E22
:1047A00004C0880C991CAA1CBB1C0A94D2F760E0B8
:1047B00070E0CB01D4FF0FC06FE070E080E090E0CC
:1047C00004C0660F771F881F991F2A95D2F760953E
:1047D000709580959095C695C695C370C23051F07E
:1047E00080F4682979298A299B29C13071F00E94B7
:1047F000CC29AFCF682979298A299B290E94DE29F3
:10480000A8CF0E94CC29C501B4010E94BA29A1CF2A
:10481000E0E2ED0FE53108F066C0F0E0EE5EFB4D42
:104820000C943039272427242724272427242724BD
:104830002724272427242724272427242724272420
:1048400027242724382446244D2454245E24DF7052
:104850008C2F8F71112331F00E9455298D2F0E94CA
:1048600060221ACF0E9476298D2F0E94672214CFD2
:10487000112341F0053008F00FCF8C2F8F710E946B
:1048800099290ACF063008F007CFF7CF8C2F8F7108
:10489000112339F00E945529FFCE8C2F8F711123DF
:1048A000C9F30E947629F8CE112329F08C2F8F713D
:1048B0000E944029F1CE0E943B29EECE112349F0FF
:1048C000CF718C2F0E94552963E08C2F0E945E2AA5
:1048D000E3CE81E00E94672A023008F4DDCE82E058
:1048E0000E94672AD9CE112349F0002321F08D2F91
:1048F0000E941A21D1CE8C2F8F71CCCF002379F05A
:10490000D93349F4FFEF27EE83E0F1502040804097
:10491000E1F700C000008D2F0E941122BDCE8C2F28
:104920008F71BFCF4C2F4F706D2FC7010E94F108C0
:104930000E946D2845CE111143CECF70C230B1F028
:1049400040F4CC2381F0C13009F0A6CE0E94222D84
:1049500037CEC43089F068F080E0C53009F09CCED5
:104960000E94782D2DCE0E940A2D2ACE0E943B2D2A
:1049700027CE0E94552D24CE88E0F2CF4C2F4F70C9
:104980006D2FC7010E94EF071BCEDF91CF911F91C2
:104990000F91FF90EF90DF90BF90AF909F908F901E
:1049A00008950F931F93CF93DF93EC019881898132
:1049B0002B813C81232B39F08F3F19F481E09F3FFD
:1049C00019F080E001C081E080FD17C0CE010E9497
:1049D0003A09882391F0688179818A810E943D2A71
:1049E0008C010E94F0290E94F228B801CE01DF91CB
:1049F000CF911F910F910C946E22DF91CF911F9157
:104A00000F9108950E94D92A0E94EA2A0E944E2AF4
:104A10000E94842A90E080E00E94DE1F90E080E007
:104A20000C94F41F0E94C82A0C9402250E94332A79
:104A3000E92FE295EF70E250EE30E0F4F0E0ED5D4A
:104A4000FA4D0C943039312531253A253A253C254B
:104A50003A253A253A253125312541253A253A2569
:104A60004125803F19F020F4803E20F481E0089534
:104A7000843FE1F380E00895803EC0F3813FD1F7A9
:104A8000F5CF93FB882780F90895CF93DF9300D06B
:104A900000D01F92CDB7DEB70F900F900F900F9000
:104AA0000F90DF91CF910895CF93DF9300D000D086
:104AB00000D0CDB7DEB726960FB6F894DEBF0FBE96
:104AC000CDBFDF91CF9108951F93CF93DF93C09116
:104AD000BF0516E08091C0058C1304C0DF91CF9113
:104AE0001F910895D0E01C9FF0011D9FF00D11242F
:104AF000EF53FA4F408151816281738184819581A6
:104B00000E9454252196C770E5CF4091F105509140
:104B1000F2056091F3057091F4058091F50590918F
:104B2000F6050C9454251F93CF93DF938091F605DF
:104B3000807FD1F48091F3058823B1F08091BF0587
:104B4000D091C005B091F105C091F2054091F405F6
:104B50005091F505A1E0BF3F09F0A0E0BA016095D2
:104B6000709516E0D81304C0DF91CF911F9108957E
:104B700021E04115510521F02A2FCF3F09F020E017
:104B800090E020FD38C0189FF001199FF00D11240E
:104B9000EF53FA4F21812C132EC020812B132BC0F1
:104BA0002281211128C0238134812417350700F187
:104BB000241B350B283C3105F0F42091F6052F70AD
:104BC00020612093F60526E0289FF001299FF00D33
:104BD0001124EA53FA4F80818F708061808381EFC6
:104BE00095E00E94D124DF91CF911F910C94642510
:104BF000260F371FDFCF01968770B4CFAF92BF92D9
:104C0000CF92DF92EF92FF920F931F93CF93DF9398
:104C1000CDB7DEB761970FB6F894DEBF0FBECDBF3C
:104C20008C0185E0F801DE011D9601900D928A95B8
:104C3000E1F7D8014C9111965C9111971296EC9086
:104C40003091F1056091F2058091F4059091F505A0
:104C500021E0009731F06F3F19F421E03F3F09F068
:104C600020E0B22FB170BB2E20FD80C1F801C380BF
:104C7000D480A090F305AA2009F427C1C816D9064C
:104C8000D0F1D601A81BB90BCD01FF24F394883CC9
:104C9000910508F0F12C8091F605982F907FFF2068
:104CA00009F4CAC0911187C0FE2C651329C03413C2
:104CB00027C0E11025C08F7080618093F6050E94A7
:104CC000852581EF95E00E94D1248091F605F801B9
:104CD00085838F2D61960FB6F894DEBF0FBECDBFD2
:104CE000DF91CF911F910F91FF90EF90DF90CF90C8
:104CF000BF90AF900895809590958C0D9D1DC5CF68
:104D000081E0CD2831F05F3F19F481E04F3F09F099
:104D100080E080FD24C081E08E25F82FF170DF2E29
:104D200080FF3FC08091BF052091C00536E082130F
:104D300018C04D875E878D859E850E94332A292F56
:104D400022952F70223008F1243030F59F7009F140
:104D5000D80115969C91907FE1F4FB2CBACF80E0AE
:104D6000DCCF90E0389FF001399FF00D1124EF5314
:104D7000FA4F6181561306C06081461303C06281F9
:104D80006E110FC001968770D2CF9F7011F08823EB
:104D900021F3805E883008F3C8010E94D124BD2C25
:104DA000DCCFEE2009F495CF8091F60581608093E9
:104DB000F605F12C8ECF651312C0341310C0E1102C
:104DC0000EC0F8018583C8010E94D12486E0F80155
:104DD000A1EFB5E001900D928A95E1F741C04D87B2
:104DE0005E878D859E850E941625882309F4C8C09C
:104DF000EE2009F4C5C08091F605803270F0209154
:104E0000F1053091F20538872F831986DB86CA8633
:104E10008C87CE0107960E94D12486E0F801A1EF8D
:104E2000B5E001900D928A95E1F70E9493250E94CA
:104E30008525FF24F3944DCF911115C07C2DD98A7F
:104E4000C88A6E2D89890E94452581EF95E00E94D0
:104E5000D12486E0E1EFF5E0DF011D928A95E9F7C4
:104E60000E94852536CF651312C0341310C0E1109F
:104E70000EC0F8018583C8010E94D124E1EFF5E05E
:104E800086E0DF011D928A95E9F7FA2C22CF4D8743
:104E90005E878D859E850E941625882309F470C043
:104EA000EE2009F46DC08091F605803208F4B5CF8C
:104EB0002091F1053091F2053A8329831B82DD822E
:104EC000CC828E83CE010196A6CFC816D90638F1C2
:104ED000F601E81BF90BCF01F12C883C910508F095
:104EE0003DC0FE2CEE2009F44BC0651326C03413E0
:104EF00024C08091F60580FD17C0982F907FA1F007
:104F0000D80115968C931597903F09F45CCF982F94
:104F1000907F905F8F70892B15968C9354CF8095DE
:104F200090958C0D9D1DD8CF86E0F801A1EFB5E0DE
:104F300001900D928A95E1F7CCCE4D875E878D85E5
:104F40009E850E941625811168CF8091F6058160AB
:104F50008093F605C8010E94D124BBCE7C2DD98A4E
:104F6000C88A6E2D89890E94452573CFEE2041F0B5
:104F70004D875E878D859E850E94162581114DCFB8
:104F8000C8010E94D12455CF1F93CF93DF93CDB793
:104F9000DEB72C970FB6F894DEBF0FBECDBF4F83A0
:104FA000588769877A878B879C87CE0107960E94EE
:104FB000FE25882309F442C09F8188852A853B8588
:104FC000232B39F08F3F19F481E09F3F19F080E0E7
:104FD00001C081E080FD08C04F81588569857A85D0
:104FE0008B859C850E94542516E08091BF05909189
:104FF000C005891709F467C0819FC00111248F5330
:105000009A4F0E94FE25882309F45DC0E091BF05F8
:105010001E9FF0011124EF53FA4F408151816281AC
:105020007381848195810E9454258091BF0590E011
:105030000196877099278093BF05D7CF86E0FE0140
:105040003796DE01119601900D928A95E1F79F81C6
:1050500088852A853B85232B39F08F3F19F481E021
:105060009F3F19F080E001C081E080FDBDCF20911D
:10507000C00530E0C9010196877099274091BF05AE
:105080004817190699F096E0929FD001939FB00DB2
:105090001124AF53BA4FFE01319601900D929A95AB
:1050A000E1F78093C0050E9464259ECF0E941225DF
:1050B0001092C0051092BF0586E0E1EFF5E0DF0138
:1050C0001D928A95E9F72C960FB6F894DEBF0FBEB5
:1050D000CDBFDF91CF911F910895EF92FF920F9373
:1050E0001F93CF93DF938C01892B81F0F12CEE2459
:1050F000E394E8012196F8018491843770F48430B8
:1051000008F05FC08130B1F08230A1F1DF91CF9122
:105110001F910F91FF90EF900895853709F44CC0CF
:1051200008F43DC09CE7980F903780F78F770E9476
:10513000112249C00E5F1F4FFE01849190E2980F2B
:10514000983060F48770FE2D01C0FF0F8A95EAF752
:105150008F2F0E94DC2A0E94842A02C00E941A21FA
:105160008F2D815030F2EFE9FFE03197F1F700C069
:105170000000F7CF0E5F1F4FFE01849190E2980F61
:10518000983050F48770FE2D01C0FF0F8A95EAF722
:105190008F2F0E94E22ADFCF0E941122E1CF0E5F03
:1051A0001F4FFE01C491C150D8F28FE99FE00197D3
:1051B000F1F700C00000F7CF0E5F1F4FFE01F49023
:1051C000CFCF0E941A218E01CBCF08950E94E528EF
:1051D0006093FB057093FC058093FD059093FE059D
:1051E0000C94022508950C94E6280F931F930091C8
:1051F000FB051091FC052091FD053091FE05602B0B
:10520000712B822B932B1F910F910C94E6280F93F7
:105210001F930091FB051091FC052091FD05309135
:10522000FE0560237123822393231F910F910C9419
:10523000E6280F931F930091FB051091FC05209128
:10524000FD053091FE0560277127822793271F9166
:105250000F910C94E6280C94E5280C942B290E94BD
:105260002D296093F7057093F8058093F9059093C5
:10527000FA050C94022560E070E0CB010C942F2914
:105280000F931F9341E050E060E070E08A019B01C2
:1052900004C0000F111F221F331F8A95D2F7C901C6
:1052A000B8011F910F910C942F290F931F9341E088
:1052B00050E060E070E004C0440F551F661F771F88
:1052C0008A95D2F78091F7059091F805A091F9059C
:1052D000B091FA058A019B01082B192B2A2B3B2B35
:1052E000C901B8011F910F910C942F290F931F939F
:1052F00041E050E060E070E004C0440F551F661FBD
:10530000771F8A95D2F7CB01BA0160957095809589
:1053100090950091F7051091F8052091F9053091CD
:10532000FA0560237123822393231F910F910C941C
:105330002F290F931F9341E050E060E070E004C01C
:10534000440F551F661F771F8A95D2F78091F70586
:105350009091F805A091F905B091FA058A019B0199
:10536000082719272A273B27C901B8011F910F9148
:105370000C942F290F931F930091F7051091F805B6
:105380002091F9053091FA05602B712B822B932B1C
:105390001F910F910C942F290F931F930091F705E4
:1053A0001091F8052091F9053091FA0560237123D9
:1053B000822393231F910F910C942F290F931F93F6
:1053C0000091F7051091F8052091F9053091FA0543
:1053D00060277127822793271F910F910C942F2903
:1053E0000895BF92CF92DF92EF92FF920F931F9397
:1053F000CF93DF938C01C090F705D090F805E09033
:10540000F905F090FA058091FB059091FC05A091BB
:10541000FD05B091FE05C82AD92AEA2AFB2ACFE168
:10542000D0E0BC2ED701C6010C2E04C0B695A795BE
:10543000979587950A94D2F780FD0EC0219788F73B
:10544000B12C8B2DDF91CF911F910F91FF90EF9099
:10545000DF90CF90BF900895B8018C2F0E941A0C56
:10546000019761F3EECFCF93DF93EC010E94F12916
:10547000BE01DF91CF910C941A0CCB010C94332A0E
:10548000682F80915F03909160030C94AE2B682F7E
:1054900080915F03909160030C94B92B80915F031E
:1054A000909160030C94C42B8091FF0585958595A0
:1054B000859508958091FF058770089598E0899FEC
:1054C00090011124622B6093FF050C945529909153
:1054D000FF05809589238093FF05282F277061F4AD
:1054E000282F082E000C330B9217130629F08595F0
:1054F000859585950C94762908959091FF05977070
:1055000081E009F480E00895E0915F03F091600389
:10551000809123068083E0915F03F0916003808196
:1055200090912206892B8083E0915F03F0916003C4
:10553000808190912106892B808390910006992388
:1055400081F0E0915F03F09160038081892B80837B
:1055500080915F03909160030E94512B8111109202
:10556000000680915F03909160030C94D31F80919B
:105570002306089590912306892B8093230608958E
:10558000982F909580912306892380932306089570
:1055900010922306089590912206892B809322066B
:1055A0000895982F90958091220689238093220652
:1055B000089510922206089590912106892B8093D8
:1055C00021060895982F9095809121068923809334
:1055D00021060895109221060895809300060895EB
:1055E0001092000608956DEE7EEF90E080E00E943C
:1055F0000D3B60E082E090E00E94EF3A60E083E0E3
:1056000090E00E94EF3A60E084E090E00E94EF3A80
:1056100060E085E090E00E94EF3A60E086E090E094
:105620000E94EF3A6FEF87E090E00E94EF3A40E08F
:1056300050E0BA0188E090E00C94013B90E080E0FB
:105640000E94E93A21E08D3E9E4F09F020E0822F32
:10565000089582E090E00C94DB3A83E090E00C94B3
:10566000DB3A682F83E090E00C94EF3A84E090E01E
:105670000C94DB3A682F84E090E00C94EF3A86E0DB
:1056800090E00C94DB3A682F86E090E00C94EF3ABF
:1056900087E090E00C94DB3A682F87E090E00C9470
:1056A000EF3AFC0131969C01205E3F4F80E09191E2
:1056B00091118F5FE217F307D1F708959C01FC0168
:1056C00032969FEF80E04191461751F09F3F19F4C9
:1056D000411101C0982F8F5F8E31A9F79F3F09F4C8
:1056E0000895290F311D97FD3A95F90162830895B8
:1056F000FC01329680962191261303C0DF01119799
:105700001C92E817F907B9F70895E62FE695E69594
:10571000E695EF3169F0E80FF92FF11D677021E090
:1057200030E001C0220F6A95EAF78181822B8183E4
:105730000895E62FE695E695E695EF3171F0E80FCE
:10574000F92FF11D677021E030E001C0220F6A954A
:10575000EAF72095818128232183089520916B0306
:10576000222329F02091D00627FD0C94852B0C9440
:105770005E2B20916B03222329F02091D00627FD78
:105780000C94992B0C94782BFC01319680961192F5
:10579000E817F907E1F70895089508950895CF935C
:1057A0000E94CD2B0E94270F0E94CE2BC0E08C2F91
:1057B0000E942910672B682B692B31F4CF5FC5300D
:1057C000B1F780E0CF91089581E0FCCF0E941225CF
:1057D0000E94F12C0E94C71F0C94120982E084BD24
:1057E00093E095BD9AEF97BD80936E0008952FB713
:1057F000F8948091CC069091CD06A091CE06B09100
:10580000CF062FBF0895CF92DF92EF92FF920F93B2
:105810001F932FB7F8944091CC065091CD0660911C
:10582000CE067091CF062FBF6A017B01EE24FF24C4
:105830008C0130E020E0C016D106E206F30650F0FD
:10584000481B590BCA011F910F91FF90EF90DF90F9
:10585000CF90089541505109F3CF78941F920F9241
:105860000FB60F9211248F939F93AF93BF938091A4
:10587000CC069091CD06A091CE06B091CF060196B0
:10588000A11DB11D8093CC069093CD06A093CE06AA
:10589000B093CF06BF91AF919F918F910F900FBEA4
:1058A0000F901F90189581E08093E00080E2809334
:1058B000D8001092C9008FE19EE40197F1F700C073
:1058C000000087E090EBDC018093E4069093E5060E
:1058D000A093E606B093E70688E19CE00FB6F89443
:1058E000A895809360000FBE90936000FFCF0E9448
:1058F0001E2B811102C00E94F32A0E94292B809343
:1059000024060E94362B90E09093D1068093D00617
:105910000E942D2B682F70E090E080E00C94F3281B
:10592000E1E8F0E08081886080838081816080830D
:105930008FB7F89493E09093890090ED909388004E
:105940008FBF0895EFE6F0E0808182608083089544
:10595000EFE6F0E080818D7F808308951F920F92A3
:105960000FB60F9211240BB60F922F933F934F93C4
:105970005F936F937F938F939F93AF93BF93EF93B7
:10598000FF93809125069091260601969093260616
:1059900080932506811103C082E00E941209E091E4
:1059A0002606E695E695F0E0E658FB4FE4918091F7
:1059B00025068E1303C080E00E941209FF91EF912B
:1059C000BF91AF919F918F917F916F915F914F9117
:1059D0003F912F910F900BBE0F900FBE0F901F9015
:1059E00018950E941E2B811102C00E94F32A0E946A
:1059F0003F2B8093D206823120F0817080618093AA
:105A0000D2068091D20680FF03C086950C94FA05D9
:105A100080E0FCCF8091D206982F9695983030F494
:105A20009F5F990F8170892B8093D2068091D20657
:105A300081608093D2060E94432B8091D206869586
:105A40000C94FA058091D206982F9E7F79F08250AF
:105A50008093D2068E7F91E009F490E08091D20687
:105A600090FB80F98093D2060E94432B8091D2064E
:105A700086950C94FA059091D206892F8E7F90FF1F
:105A800081608093D206813019F483E08093D2063E
:105A90008091D2060E94432B8091D20680FF03C0E2
:105AA00086950C94FA0580E0FCCF9091D206892F60
:105AB00086958F5F8F7791708930B8F4880F892B26
:105AC0008093D2068091D2068E7F91E009F490E017
:105AD0008091D20690FB80F98093D2060E94432BDE
