:100000000C9443030C948A030C948A030C948A0383
:100010000C948A030C948A030C948A030C948A032C
:100020000C948A030C948A030C9497310C946A32D2
:100030000C948A030C948A030C948A030C948A030C
:100040000C948A030C94422C0C948A030C948A031B
:100050000C948A030C94C12B0C948A030C948A038D
:100060000C948A030C948A030C948A030C948A03DC
:100070000C948A030C948A030C948A030C948A03CC
:100080000C9468100C948A030C948A030C948A03D1
:100090000C9408040C948A0307634236B79BD8A7D4
:1000A0001A39685618AEBAAB558C1D3CB7CC57639D
:1000B000BD6DEDFD753EF6177231BF000000803F4B
:1000C00005A84CCDB2D44EB93836A9020C50B9911E
:1000D0008688083CA6AAAA2ABE000000803F080025
:1000E0000000BE922449123EABAAAA2ABECDCCCCB7
:1000F0004C3E00000080BEABAAAAAA3E0000000051
:10010000BF000000803F0000000000084178D3BB22
:100110004387D1133D190E3CC3BD4282AD2B3E68CF
:10012000EC8276BED98FE1A93E4C80EFFFBE01C4C0
:10013000FF7F3F000000000000F004F005F006F033
:1001400007F003F03A003B003C003D003E003F005A
:1001500040004100420043004400450000004600CA
:10016000470048001F002000210022002300240037
:100170002500260027002D002E002A00000049003F
:100180004A004B0014001A000800150017001C005C
:1001900018000C00120013002F00300031004C003A
:1001A0004D004E0004001600070009000A000B0075
:1001B0000D000E000F003300340028000000000086
:1001C0000000000000001D001B00060019000500D3
:1001D00011001000360037003800E5000000000074
:1001E000520000003900E100E000E300E2000000FE
:1001F0002C0000000000E600E7000151E400500080
:1002000051004F00290035001E002B0000000000A7
:1002100000000000000000000000000000000000DE
:1002200000000000010001000100010007080100BA
:10023000AC00AE00AB00A800AA00A9000000460078
:100240004700480001000100010001000100010019
:10025000010001000100010001004C00000001004C
:100260000100010000004B00000000000000000041
:10027000000052000000000000000000000001002B
:10028000010001004A004E004D0000000000000087
:10029000500051004F00000000000000000000006E
:1002A00000000000000000004C0000000000000002
:1002B0000000A800AA00A9000000025300000000EE
:1002C0000100000001000100010001000100000028
:1002D0004E000000000001000100010001000100CB
:1002E00001000100290001000100000000000000E1
:1002F00000000000000000000000000000000000FE
:1003000000000000000000000000000000000000ED
:1003100000000000000000000000B55C00000000CC
:1003200000000000000000000000000000000000CD
:10033000000000000000B55CB65CB75C0000BA5C71
:10034000C15C000000000000000000000000000090
:10035000000000000000000000000000C200BB5CC4
:10036000C25C00003A00C300000000000000000072
:1003700000000000000000000000005C0000000021
:10038000000000000000C200C400000000000000E7
:100390000000225C000000000000000000000000DF
:1003A000BD5C00001F5CC5000000000000000000F4
:1003B000CC00000000000000000000000100C05C54
:1003C000BE5CBF5CC000C0000000235C00000000F9
:1003D000000000000000000000000000000000001D
:1003E000000000006801F000B40078005A007F3F70
:1003F0001F643214643214783C1E1E140A05000077
:1004000000000001010101010101010102020202DB
:1004100002020202020303030303030303040404AE
:100420000404040505050505060606060607070774
:1004300007080808080909090A0A0A0A0B0B0B0C25
:100440000C0C0D0D0D0E0E0F0F0F101011111112BF
:100450001213131414151516161717181819191A3C
:100460001A1B1C1C1D1D1E1F1F202021222223249D
:10047000252526272728292A2B2B2C2D2E2F2F30D8
:10048000313233343536363738393A3B3C3D3E3FEE
:100490004041424344464748494A4B4C4D4F5051D6
:1004A0005253555657585A5B5C5E5F606263646690
:1004B00067696A6C6D6E707173747678797B7C7E17
:1004C0008081838486888A8B8D8F91929496989A66
:1004D0009B9D9FA1A3A5A7A9ABADAFB1B3B5B7B97C
:1004E000BBBDBFC1C4C6C8CACCCFD1D3D6D8DADC55
:1004F000DFE1E4E6E8EBEDF0F2F5F7FAFCFF0000EF
:10050000000000000000000000010204060A0F17AE
:10051000202C3A4A5D71879DB3C7DAE9F5FCFFFCF0
:10052000F5E9DAC7B39D87715D4A3A2C20170F0AA7
:1005300006040201000000000000000000000403A7
:10054000300000000C034C0046004B003800370020
:10055000000018034C0046004B0065007900620063
:100560006F0061007200640073000000040309045E
:1005700009025400030100A0FA090400000103016C
:100580000100092111010001224000070581030833
:10059000000A090401000103000000092111010003
:1005A000012236000705820308000A09040200013F
:1005B0000300000009211101000122390007058311
:1005C000032000011201100100000008EDFE606030
:1005D00001000102030105010906A101050719E057
:1005E00029E7150025019508750181020508190103
:1005F000290595057501910295017503910105077E
:10060000190029F71500250195F875018102C0052B
:10061000010980A10185021601002603001A81004C
:100620002A8300751095018100C0050C0901A10104
:100630008503160100269C021A01002A9C027510EF
:1006400095018100C005010906A101050719E029EE
:10065000E71500250195087501810295017508814E
:100660000105081901290595057501910295017586
:100670000391010507190029FF150026FF009506C3
:1006800075088100C00011241FBECFEFD0E1DEBF8E
:10069000CDBF04B603FE27C08091C9069091CA065B
:1006A000A091CB06B091CC068730904BA740B04BC1
:1006B000D1F41092C9061092CA061092CB0610927D
:1006C000CC0614BE84B7877F84BF0FB6F894A89574
:1006D00080916000886180936000109260000FBE7E
:1006E000E0E0F8E7099514E0A0E0B1E0EEE1F6E71C
:1006F00002C005900D92AA3CB107D9F726E0AAECFA
:10070000B4E001C01D92A93CB207E1F70E94C32EDC
:100710000C940D3B0C940000ECE4F6E010828FEF9B
:10072000818312821092B9008CE08093B80085E03A
:100730008093BC00089580914C06982F9D7F79F09E
:10074000813059F480914D06803311F0883329F4BB
:1007500080E98093BC000E948C0380E0089581E0D2
:100760000895FF920F931F93CF93DF93EC01162F01
:10077000F42E022F0E949B038823B9F180E9809315
:10078000BC000E948C03F0924E06D0935206C09398
:100790005106612F70E070935806609357061092CF
:1007A000500610924F0680914C06823019F581E078
:1007B00080934C0680914F06909150069C012F5FCC
:1007C0003F4F3093500620934F06C80FD91F8881A2
:1007D0008093BB0085E88093BC00011114C0DF91B9
:1007E000CF911F910F91FF90089585E08A95F1F7C1
:1007F0000000C0CF81E080934C0685EAECCF85E015
:100800008A95F1F700000E949B038823C1F3E7CF8C
:100810001F920F920FB60F9211242F933F934F9375
:100820008F939F93EF93FF938091B900887F8832D5
:10083000B9F110F5803109F4AFC088F4882309F4C8
:10084000AFC0883069F1FF91EF919F918F914F91E7
:100850003F912F910F900FBE0F901F9018958831E8
:10086000E1F0803281F780914E06882309F48EC032
:100870008091B900887F7FC08034B9F128F480333B
:1008800091F3883381F3DFCF803509F444C0883594
:1008900009F45BC08834B9F6E6CF83E080934C0658
:1008A00020914F063091500680915706909158063E
:1008B000281739070CF05AC0E0915106F091520602
:1008C00080914F06909150069C012F5F3F4F3093CF
:1008D000500620934F06E80FF91F80818093BB00DC
:1008E00088EF80934D0685E813C084E080934C0622
:1008F00080915306909154060197209155063091AE
:1009000056062817390764F788EF80934D0685EC63
:100910008093BC0098CF80915506909156069C011B
:100920002F5F3F4F30935606209355064091BB00F2
:10093000885C994FFC014083809153069091540646
:1009400001972817390764F6DFCF809155069091FB
:1009500056069C012F5F3F4F309356062093550655
:100960002091BB00885C994FFC01208380914E064A
:10097000882329F08FEF80934D0685EAC9CF109226
:100980004C068FEF80934D0685E9C2CF10924C063E
:100990008091B900887FF6CF82E080934C0653CFD8
:1009A00010924D0610924C06EFCFCF93DF9300D0FC
:1009B0001F92CDB7DEB76F3F69F0880F886E8983CD
:1009C0008DEF8A836B8321E040E063E0CE010196E6
:1009D0000E94B1030F900F900F90DF91CF91089577
:1009E000FF920F931F93CF93DF9300D01F92CDB749
:1009F000DEB7182FF42E022F0E94D504110F186EA7
:100A00001983FA820B8321E040E063E0CE01019676
:100A10000E94B1030F900F900F90DF91CF911F9123
:100A20000F91FF9008950F931F93CF93DF93A82FFB
:100A3000B0E0B595A795A370B0E0AA0FBB1FA65371
:100A4000BB4F0D911C910115110581F1EFEFE60FE0
:100A50004150A42FAA0F8170A82BC1E0D0E00E2E28
:100A600001C0CC0F0A94EAF7A00FB12FB11D539625
:100A70009C91539721111FC0C0959C2353969C9322
:100A8000539795969C919597C9239596CC9360E042
:100A9000813009F468E04295407FE40FE60FE00FF3
:100AA000F12FF11D27AB81E0F801808BDF91CF9111
:100AB0001F910F9108959C2B53969C935397959655
:100AC0009C919597C92BE1CFEF92FF920F931F93C3
:100AD000CF93DF93182F062FE82FF0E0EE0FFF1FC4
:100AE000E653FB4FC081D181209729F1888188236B
:100AF00069F0FE0111927F016BE0812F0E94D50405
:100B000021E040E06FE0C7010E94B103888988239B
:100B100091F0188A60E0812F0E94D504202F40E0D8
:100B200066EBCE014196DF91CF911F910F91FF901F
:100B3000EF900C94B103DF91CF911F910F91FF9033
:100B4000EF9008950F931F93CF93DF930E948C0330
:100B50000AEC14E0C0E0D1E0F801819191918F019D
:100B6000009711F00E94763920E04AE06BE08C2F6C
:100B70000E94F0040E949B03882351F180914D064E
:100B80008F3FF1F461E070E08EE891E00E94BE38A2
:100B9000FC01D80112978D939C938C2F880F886E3F
:100BA00081831282818B128AD083D08B61E08C2F5B
:100BB0000E94640521E04AE06BE08C2F0E94F00463
:100BC000CF5FC43049F6DF91CF911F910F91089507
:100BD000F5E0FA95F1F70000CDCFFF920F931F9348
:100BE000CF93DF93F42ED22FC0911704813118F0E8
:100BF000C09118048051082F10E096E0899FF00101
:100C00001124E157FC4F4181442329F0262F6081B4
:100C10008C2F0E94130586E0809FF001819FF00DCC
:100C20001124E157FC4F4381442329F02F2D628189
:100C30008C2F0E94130586E0809FF001819FF00DAC
:100C40001124E157FC4F4581442351F02D2F64813D
:100C50008C2FDF91CF911F910F91FF900C94130572
:100C6000DF91CF911F910F91FF9008950F931F93E4
:100C7000CF93DF93C82F8A3018F5882329F0EC2F03
:100C8000F0E0EC50FC4FC08111E000911904D1E07C
:100C90002C2F4D2F612F802F0E9413052C2F4D2FAD
:100CA000612F80911A040E941305DF5FDA3081F70B
:100CB0001F5F1A3061F7DF91CF911F910F91089557
:100CC000CAE0DDCF0F931F93CF93DF93D82F162F5A
:100CD000042FC1E0202F412F6D2F8C2F0E94ED0596
:100CE000CF5FC132B9F7DF91CF911F910F91089576
:100CF0000F931F93CF93DF930FEF13E0C9E6D6E076
:100D0000F80181918F019091610620E040E060E060
:100D100090FF03C02A81488169810E94ED052396D6
:100D2000F4E007311F0761F7DF91CF911F910F9119
:100D300008950F931F93CF930AEC14E0D801ED911F
:100D4000FC91C1E0C08B61E080E00E946405D801A5
:100D50001696ED91FC91C08B61E083E0CF911F91DD
:100D60000F910C9464050F931F93CF9380E00E9422
:100D7000360640E060E080E00E9462060E9499062C
:100D800040E060E080E00E9462060FEF13E0F801AF
:100D9000C1918F0120E040E06FEF8C2F0E94ED05A4
:100DA0000E949906FFEF24E38CE0F1502040804040
:100DB000E1F700C0000020E04FEF60E08C2F0E94C0
:100DC000ED050E9499069FEFE4E3FCE09150E040BE
:100DD000F040E1F700C000002FEF40E060E08C2F12
:100DE0000E94ED050E9499062FEF84E39CE02150BC
:100DF00080409040E1F700C0000020E040E060E06B
:100E00008C2F0E94ED050E949906E4E007311E0731
:100E100009F0BDCFCF911F910F9108950C94A205B9
:100E20000E94060920E040E060E08FE10E94ED05AD
:100E300020E040E06FEF80E20E94ED050C94A205F7
:100E4000CF92DF92EF92FF920F931F938091D6047F
:100E50009091D704A091D804B091D904893E9340D1
:100E6000A105B10560F01092D6041092D70410923B
:100E7000D8041092D9040E948C030E9499060E9403
:100E80009B03882309F481C01092D6041092D704E2
:100E90001092D8041092D9048091D204682F0E9435
:100EA00064058091D2049091D304A091D404B091B0
:100EB000D504892B8A2B8B2B09F45AC01092D204AB
:100EC0001092D3041092D4041092D5040091E50539
:100ED0001091E6052091E7053091E80580910A011F
:100EE00090910B01A0910C01B0910D018017910719
:100EF000A207B307A9F1EBE1F4E080E090E0DC01A8
:100F0000C080D180E280F380448155816681778101
:100F10004023512362237323C416D506E606F70641
:100F200009F047C02EE0289FF001299FF00D112401
:100F3000E55EFB4F24854285608580E20E94ED05D9
:100F40008091E5059091E605A091E705B091E8054F
:100F500080930A0190930B01A0930C01B0930D01B3
:100F60001F910F91FF90EF90DF90CF900C94140998
:100F700083E090E0A0E0B0E08093D2049093D304AB
:100F8000A093D404B093D504A1CF8091D6049091BE
:100F9000D704A091D804B091D9040196A11DB11D28
:100FA0008093D6049093D704A093D804B093D90427
:100FB0008DCF3E96CF20CE20CD20C09409F4B2CF65
:100FC0000196A11DB11D9CCFCF93DF93EB019C0136
:100FD000245631092D3B3D44E8F464367105D0F4C4
:100FE000BC0190E080E00E9472354AE050E00E942F
:100FF000051590E080E08C179D0721F4DF91CF91DB
:101000000C942D14EFE9FFE03197F1F700C00000D8
:101010000196F1CFDF91CF910895CF92DF92EF92B9
:10102000FF92CF93DF93FC0182816130B9F4C6ED6A
:10103000D9E2811102C0CDEDD9E20E944D2A82721F
:1010400059F085E3FE010995DF91CF91FF90EF9074
:10105000DF90CF900C941A2A89E2F4CF882309F408
:1010600084C06A3008F081C0E62FF0E0E65CF74FFC
:101070000C94B8388208B50870089408560892088D
:101080004408B308B5088A0881E060910E017091A8
:101090000F01680F711D87FD7A9570930F016093A2
:1010A0000E01809110019091110112C021E08091F8
:1010B000100190911101F4E62F02800D911D112471
:1010C000909311018093100160910E0170910F01B6
:1010D000DF91CF91FF90EF90DF90CF900C94E407D9
:1010E000C12CD12C7601C39404C0CC0CDD1CEE1CA9
:1010F000FF1C4A95D2F78C2D0E94C72AC701B60162
:101100000E948928DF91CF91FF90EF90DF90CF90E0
:101110000C94D128DF91CF91FF90EF90DF90CF908A
:101120000C94B3062FEFC3CF8091DA04882369F0C3
:101130001092DA0464E670E080EA9FE00E94E4071F
:1011400064E670E088EE93E0C3CF81E08093DA0438
:1011500064E670E088EE93E00E94E40764E670E0E5
:1011600080EA9FE0B5CF8FEF90CFDF91CF91FF90D6
:10117000EF90DF90CF9008952FEF4FEF60E08FE179
:101180000E94ED052FEF4FEF60E080E20E94ED0539
:101190000E9499060C9427090F931F93CF93DF9316
:1011A000EC018B018091DA04882371F0FB018281CC
:1011B000882351F060910E0170910F018091100110
:1011C000909111010E94E407C115FCE5DF0711F4BD
:1011D0000E94BC08B801CE01DF91CF911F910F9101
:1011E0000C941509CF93C82F2FE14FE16FE181FDDA
:1011F00003C020E040E060E08FE10E94ED058C2F0D
:10120000CF910C94170990E080E008950E94C32AC2
:10121000823048F081E00E94C72A61E070E080E0FF
:1012200090E00C9489280895089581E00895089528
:1012300081E008950E9456180C9420070E940E0722
:101240000E9404140C9410070C94F2080895CF9394
:10125000DF930E94A8240E9424180E948B2BEC018B
:1012600040E063E070E082E491E00E9488130E9415
:101270002609CE010E94972B8A3F910530F00E94EB
:101280002D14DF91CF910C94E72B8FE99FE001970C
:10129000F1F700C00000EDCF0F931F93CF93DF93C2
:1012A0008C01FC01C081D181CE010E948729BE0141
:1012B0000E94100CEC01B8010E94CC08882309F4AC
:1012C0000DC1B801CE010E94E90F882309F406C1BF
:1012D000B801CE010E94BA18882309F4FFC0B801F2
:1012E000CE010E949C0E882309F4F8C0C23CFCE5A4
:1012F000DF0709F42AC108F059C0CB3B9CE5D907A8
:1013000009F4FCC070F5C531FCE5DF07D0F4C2304C
:101310008CE5D80708F093C1C1159CE5D90709F4FD
:10132000D8C0C130DC4509F4DFC081E08093E0041F
:101330008093E104C801DF91CF911F910F910C942C
:101340001809C531FCE5DF0709F44AC2CA3BDC4590
:1013500061F7F8018281882309F4C0C00E94161D3C
:10136000BDC0CE3B9CE5D90709F4DEC080F4CC3B80
:10137000FCE5DF0709F4CDC0CD3BDC45B1F6F80153
:101380008281882309F4AAC00E94D91BA7C0F80152
:101390008281C03CFCE5DF0709F4D2C008F4CBC071
:1013A000882309F49BC00E94401C98C0C93CECE50E
:1013B000DE0709F417C108F042C0C53C8CE5D80728
:1013C00009F4D3C0F8F4C33CECE5DE0709F4C4C06B
:1013D000C43CDC4509F0A9CFF8018281882309F4D7
:1013E0007DC00E94A31A623071058105910540F00D
:1013F0000E94A31A653071058105910508F491C01A
:1014000082E0B0C0F8018281C73CFCE5DF0709F447
:10141000D5C008F4BFC0882309F460C00E94A31A95
:10142000653171058105910540F00E94A31A67316D
:1014300071058105910508F474C085E193C0CC3C29
:10144000ECE5DE0709F4A9C1D0F4CA3C8CE5D80765
:1014500009F4CFC0CB3CDC4509F067CFF8018281AD
:10146000882309F483C11092E0040E948B2B90938F
:10147000DD048093DC0482E00E94F6212FC0C03D91
:10148000ECE5DE0709F4CBC0C13DFCE5DF0709F45C
:10149000CFC0CD3CDC4509F048CFF80182818111F5
:1014A00080C18091E104811199C18091DE04909105
:1014B000DF040E94972B883C910508F08FC180E2E1
:1014C0000E94FD2188E20E94B02088E20E94A721AC
:1014D00005C0F801828181110E94270980E0DF9117
:1014E000CF911F910F910895F80182818823B1F364
:1014F00080911206816080931206F0CFF8018281FC
:10150000882361F30E944D2A827259F00E94F51CD3
:10151000E5CFF8018281882309F30E944D2A827267
:10152000A9F30E94EB1CDACFF80182818823B1F283
:101530000E94F11BD3CF882389F20E94101CCECFCA
:10154000882361F20E94281CC9CFF8018281882378
:1015500029F20E94581CC2CFF8018281882309F425
:10156000BDCF81E00E94701CB9CFF8018281882331
:1015700009F4B4CF0E94A31A663071058105910564
:1015800038F00E94A31A683071058105910548F270
:1015900086E0E8CF882309F4A1CF0E94A31A69301E
:1015A00071058105910540F00E94A31A6E30710506
:1015B0008105910508F4B5CF89E0D4CF882309F4DB
:1015C0008DCF0E94A31A6F3071058105910540F0FF
:1015D0000E94A31A643171058105910508F4A1CF19
:1015E0008FE0C0CFF8018281882309F477CF88E1AA
:1015F000B9CFF8018281882309F470CF0E94A31A21
:10160000693171058105910540F00E94A31A62328B
:1016100071058105910508F484CF89E1A3CFF80114
:101620008281882309F45ACF80E00E94602F56CF30
:10163000F8018281882309F451CF82E0F6CFF801C6
:101640008281882309F476CE0E94B42A811102C0D7
:101650000E94892A0E94CC2A90E09093B60680933B
:10166000B506FE01E350FC45E231F105B0F4E55C5E
:10167000F44F0C94B838530B570B5B0B5F0B630B99
:10168000670B6B0B6F0B830B870B8B0B8F0B930B0A
:10169000970B9B0B9F0BA30BAF0B8091B506816043
:1016A0008093B50629C08091B5068260F9CF8091FC
:1016B000B5068460F5CF8091B5068860F1CF809142
:1016C000B5068061EDCF8091B5068062E9CF80914B
:1016D000B5068064E5CF8091B5068068E1CF809142
:1016E000B506846088608093B50640E064E070E0F1
:1016F00082E191E00E9488138091B5060E94D02A71
:101700000E94A824EBCE8091B5068E7FC9CF809130
:10171000B5068D7FC5CF8091B5068B7FC1CF8091F7
:10172000B506877FBDCF8091B5068F7EB9CF8091FA
:10173000B5068F7DB5CF8091B5068F7BB1CF8091F7
:10174000B5068F77ADCF8091B5068B7F877F80936D
:10175000B50640E062E070E082E391E0CBCF90918B
:10176000B506892F97FB87F980589ACF8091E004BE
:1017700081110FC08091DC049091DD040E94972BB1
:10178000883C910530F486E20E94B02086E20E94F7
:10179000A72182E00E94FD21A1CEF8018281882349
:1017A00051F01092E1040E948B2B9093DF04809300
:1017B000DE0480E261CE8091E10481110FC080914E
:1017C000DE049091DF040E94972B883C910530F451
:1017D00087E20E94B02087E20E94A72180E2DACF50
:1017E0000E944D2AF8019281992381F08A7A91E032
:1017F00009F490E09093DB04811106C089E20E9415
:10180000D6290E941A2A6ACE85E3F9CF8091DB049B
:10181000811104C089E20E94DD29F3CF85E3FBCF6B
:10182000E72FF0E097E0899FE00DF11D112484E09F
:10183000EE0FFF1F8A95E1F7E60FF11DEE0FFF1F78
:10184000EC5BFE4F859194910895FC01EE0FFF1F14
:10185000E85CFE4F859194910895CF93DF930E94A9
:10186000100C0E94EE0DEC018115914508F04BC063
:10187000C11580E5D80708F031C1C83ED10510F583
:10188000C03ED10580F5C83AD10570F4C53AD105FE
:1018900008F0B7C0C130D10531F118F0C430D1051E
:1018A00010F5D0E0C0E01FC0CD3BD10508F4B4C0B6
:1018B000CE01805C9109C03CD10598F30E94250CB3
:1018C000EC0111C0C11520E3D20788F4C11580E2F4
:1018D000D80708F0FAC0C03FD10518F3CF3FD105B3
:1018E00009F008F4F0C0CE01DF91CF910895C11541
:1018F00020E4D20708F0EFC0CE019927D3FFE8C05B
:10190000EC01D86CF0CFC11586E5D807D8F5C11524
:1019100025E5D20708F008C1C11583E5D807C8F44A
:10192000C11522E5D20708F4F5C0CE0183709927CE
:1019300021E030E002C0220F331F8A95E2F7C695FE
:10194000C69580E2C89FE0011124C22BD32BDC682E
:10195000CACFC11584E5D80708F0E1C0CE01837075
:10196000992721E030E002C0220F331F8A95E2F769
:10197000C695C69580E2C89FE0011124C22BD32BE7
:10198000DA68B1CFC53B2CE5D20709F4D9C098F489
:10199000C33B2CE5D20709F4CDC008F0CEC0CE0180
:1019A00098558F3F910511F008F07BCFDC2FCC27A5
:1019B000C06FD06A98CFC83B2CE5D20709F4C6C0E7
:1019C00060F4C63B2CE5D20709F4BDC0C73BDC453B
:1019D00009F067CFC0E0D2ED86CFCE0190568115D9
:1019E000904208F05ECF8D2F8F710E946E0EDD2722
:1019F000D06290E0982F882788279F71C82BD92B19
:101A000072CFC53AD10509F4A4C0C63AD10509F48C
:101A1000A3C0C3E8D0E467CFC83AD10509F49FC09A
:101A2000C93AD10509F49EC0CA3AD10509F49DC04E
:101A3000CB3AD10509F49CC0CC3AD10509F49BC03E
:101A4000CB3BD10509F49AC0CC3BD10509F499C030
:101A5000CD3AD10509F498C0C03BD10509F497C02F
:101A6000CE3AD10509F496C0CF3AD10509F495C014
:101A7000C13BD10509F494C0C23BD10509F493C020
:101A8000C33BD10509F492C0C43BD10509F491C010
:101A9000C53BD10509F490C0C63BD10509F48FC000
:101AA000C73BD10509F48EC0C83BD10509F48DC0F0
:101AB000C93BD10509F48CC0CA3BD10509F08BC0E4
:101AC000CAE2D6E410CFD0650ECFCE019F70F6CE1D
:101AD000EC01D06C08CFDF70D06A05CFCE0174E086
:101AE000969587957A95E1F783709C2F937021E006
:101AF00030E002C0220F331F9A95E2F73C68382B82
:101B0000C695C695C37080E2C89FE0011124C22B20
:101B1000D32BE9CEDC2FCC27C16FD06AE4CEDC2FEB
:101B2000CC27C46FD06ADFCEDC2FCC27CC27DF7167
:101B3000D062D9CEC0E0D4EDD6CEC0E0D5EDD3CEC4
:101B4000C0E0D1EDD0CEC0E0D0EDCDCEC0E0D3ED41
:101B5000CACEC1E8D0E4C7CEC2E8D0E4C4CEC2EE5B
:101B6000D4E4C1CEC9EED4E4BECECAEED4E4BBCE3A
:101B7000C5EBD4E4B8CEC6EBD4E4B5CEC3EBD4E425
:101B8000B2CEC4EBD4E4AFCEC7EBD4E4ACCECCEC55
:101B9000D4E4A9CECDECD4E4A6CEC3E8D5E4A3CE5C
:101BA000CAE8D5E4A0CEC2E9D5E49DCEC4E9D5E427
:101BB0009ACEC1E2D6E497CEC3E2D6E494CEC4E294
:101BC000D6E491CEC5E2D6E48ECEC6E2D6E48BCE84
:101BD000C7E2D6E488CEC0E0D4E485CE8238910551
:101BE00049F1B0F48133910509F45CC048F48932BD
:101BF000910509F452C08A32910509F458C008953C
:101C00008533910509F444C08933910599F008950D
:101C1000833E910531F138F4803E910591F0823E8A
:101C20009105B1F00895863E910511F1873E910529
:101C300041F108952091B5062370C9F080EE90E03F
:101C400008952091B50620FF12C089E390E0089521
:101C50002091B50622FF0BC024FF2EC090E080E04B
:101C600008952091B50622FD2AC024FDF7CF0895DE
:101C70002091B50623FFFBCF24FDF0CF87EE90E047
:101C800008952091B50623FFF0CF86EE90E00895E9
:101C90002091B50625FD16C008952091B50625FDB5
:101CA00014C008952091B50626FD12C00895209114
:101CB000B50626FD10C0089583EE90E0089582EEEB
:101CC00090E0089589E290E0089585E390E008951A
:101CD0008AE290E0089581E390E0C9CFCF93C82FC6
:101CE0000E94CC2A282F30E03093B6062093B50608
:101CF00082FF06C09C2F9871983079F4C77FC4602A
:101D000083FF06C09C2F9871983171F4C77EC4611F
:101D100084FDC77E8C2FCF9108959C2F94719430B1
:101D200079F7CB7FC860ECCF9C2F9471943181F709
:101D3000CB7EC861EDCF08950F931F93CF938C0195
:101D4000FB018281811106C0C1E08C2FCF911F91D0
:101D50000F910895C091EF04C11125C006311C45B3
:101D600099F70E949B0E81E08093EF040E948B2BD9
:101D70009093EE048093ED041092E2041092E40438
:101D80001092E3041092E6041092E5041092E80425
:101D90001092E7041092EA041092E9041092EC0405
:101DA0001092EB04D2CF8091ED049091EE040E944A
:101DB000972B883C910540F68091E204E82FF0E0F3
:101DC000EE0FFF1FED51FB4F118300838F5F809358
:101DD000E204C0E0BACFA3E6B4E061E070E08D9128
:101DE000E82FE295EF70F0E041A18F709B0101C0F8
:101DF000220F8A95EAF7922F9095942391A382A1BE
:101E0000822B82A384E0AA36B80749F7A3E5B4E0A1
:101E100061E070E08D91E82FE295EF70F0E041A174
:101E20008F709B0101C0220F8A95EAF7922F90953F
:101E3000942391A382A1822B82A384E0A336B807C6
:101E400049F7EEEFF4E0A0EFB4E08CE095E01192FA
:101E500011921D921D928E179F07C9F70C941E09AF
:101E60004F925F927F928F929F92AF92BF92CF924A
:101E7000DF92EF92FF920F931F93CF93DF9300EFC8
:101E800014E093E6E92E94E0F92EE801CC24C39403
:101E9000D12C99249394A880B98019821882D701F3
:101EA0008D917D01E82FE295EF70F0E091A18F70A8
:101EB000960101C0220F8A95EAF7892F822B81A310
:101EC00082A1822E8094882182A3B0EABA95F1F78C
:101ED00083E5482E84E0582E90E080E0D2017D9189
:101EE0002D01472F42954F7050E0DA0190967C907B
:101EF000488159817F70D60102C0AA0FBB1F7A9515
:101F0000E2F7BD01672109F057C0B601082E02C0F3
:101F1000660F771F0A94E2F7462B572B59834883A5
:101F2000019680319105D1F681A1882281A282A1FA
:101F3000282B22A388819981A816B90641F0909296
:101F40000C050E948B2B90930E0580930D05229615
:101F5000BAE6EB16B4E0FB0609F09DCF80910C05C4
:101F60008823B9F080910D0590910E050E94972B62
:101F7000069778F0EEEFF4E08EEF94E0D8012D9123
:101F80003D918D01219331938A179B07B9F71092E8
:101F90000C050E941A0981E0DF91CF911F910F91EA
:101FA000FF90EF90DF90CF90BF90AF909F908F9079
:101FB0007F905F904F90089570E060E0ADCFE82F84
:101FC000F0E0EE0FFF1FE250FB4F808191810895FA
:101FD0000895FB018D312CE5920739F48281882325
:101FE000A1F10E94691580E008958E312CE59207D9
:101FF00031F48281882349F10E947915F4CF8F3121
:102000002CE5920741F482818823F9F00E9465153E
:102010008111F2CFE6CF84322CE5920769F48281F8
:10202000882399F00E94921540E064E070E08AE510
:1020300091E00E948813D7CF85329C4531F482818C
:10204000882319F00E949B15EFCF81E008958554F5
:10205000990BBC01990F880B990B0E94743520E0F5
:1020600030E040E451E40E9490349B01AC0160E018
:1020700070E080E090E40E94953720E030E04CED85
:1020800053E40E9428374FE050E00C940515855426
:10209000990BBC01990F880B990B0E94743520E0B5
:1020A00030E040E451E40E9490349B01AC0160E0D8
:1020B00070E080E090E40E94953720E030E04CED45
:1020C00053E40E9428370C9468140C942D1408953E
:1020D0001F920F920FB60F9211244F925F926F9240
:1020E0007F928F929F92AF92BF92CF92DF92EF92A8
:1020F000FF922F933F934F935F936F937F938F93B1
:102100009F93AF93BF93EF93FF9380912205882312
:1021100009F4CAC0E0906405F09065051E141F0420
:102120000CF0C2C040901205509013056090140549
:102130007090150520E030E0A901C301B2010E94B2
:10214000AD3618160CF093C121E0E216F10409F443
:1021500052C08091620590916305B7010E94A43836
:102160006C019093630580936205809024059090A4
:102170002505A0902605B090270520E030E040E836
:102180005FE3C501B4010E941F346093240570937E
:1021900025058093260590932705F601EE0FFF1F76
:1021A000EE0FFF1FE85CFA4FA3019201608171817D
:1021B000828193810E94903420E030E040E05EE331
:1021C0000E9428379B01AC01C501B4010E94AD36C5
:1021D00018168CF4C6010196B7010E94A43890939A
:1021E00063058093620510922405109225051092D4
:1021F000260510922705E0916205F0916305EE0F28
:10220000FF1FEE0FFF1FE85CFA4F60817181828132
:10221000938120910F05309110052F3F320731F047
:102220002F5F3F4F3093100520930F050E94A41598
:102230006B017C0120E034E244EF51E40E948B34D6
:1022400087FF08C086EFC82E88E2D82E84EFE82EDC
:1022500081E4F82E20E030E040E051E4C701B6010F
:102260000E9428379B01AC0160E074E284E79BE4A4
:102270000E9490346B017C010E944335709397005B
:10228000609396002091B3013091B4014091B50163
:102290005091B601C701B6010E9428370E9443350C
:1022A000709399006093980080912305882309F426
:1022B000B4C1C0901E05D0901F05E0902005F0909D
:1022C000210520E030E0A901C701B6010E94AD362A
:1022D00018160CF091C180910F05909110058F3F59
:1022E000980729F001969093100580930F05C70178
:1022F000B6010E94A41520E030E040E051E40E94C5
:1023000028379B01AC0160E074E284E79BE40E9403
:1023100090346B017C010E94433570939700609369
:1023200096002091B3013091B4014091B5015091D4
:10233000B601C701B6010E9428370E944335709349
:1023400099006093980060911805709119056F5F6E
:102350007F4F7093190560931805E0909600F090F8
:10236000970090E080E00E9472354B015C01409044
:102370001A0550901B0560901C0570901D05EF28F4
:1023800009F443C18091170581113FC16091960006
:102390007091970090E080E00E9472359B01AC0143
:1023A000C301B2010E94903420E03FEF4FE757E4B1
:1023B0000E94283720E030E040E85FE30E941E34AE
:1023C000A50194010E948B3418160CF426C180914B
:1023D00016058F5F809316052091590630915A0695
:1023E0008217130638F080916006882309F41EC115
:1023F00010921605E0915B06F0915C06909116052F
:1024000080911705811144C181E080931705915097
:102410009093160548E0949F90011124E20FF31F5A
:10242000C080D180E280F38020853185428553854C
:10243000C701B6010E948B34811121C110921E0583
:1024400010921F05109220051092210580E090E067
:10245000A0E8BFE380931A0590931B05A0931C0589
:10246000B0931D051092190510921805D6C0F701FA
:10247000EE0FFF1FEE0FFF1FEC5CFA4F8080918084
:10248000A280B3808091B201882309F4ACC0C090CF
:102490005E05D0905F05E0906005F090610520E05A
:1024A00030E0A901C701B6010E948B34882309F4EA
:1024B0009AC0A5019401C701B6010E948B3487FF21
:1024C0005BC0A501940160E070E08CED93EC0E948C
:1024D000903420E030E040E451E40E94903420E069
:1024E00030E040E05FE30E9428379B01AC0160E0F0
:1024F00070E080E090E40E949537A50194010E946D
:1025000028379B01AC01C701B6010E948B3487FFBD
:1025100033C0A701960160E070E08CED93E40E9467
:10252000903420E030E040E451E40E94903420E018
:1025300030E040E05FE30E9428379B01AC0160E09F
:1025400070E080E090E40E9495379B01AC01C701E8
:10255000B6010E94283760935E0570935F058093F3
:1025600060059093610560915E0570915F058091B3
:102570006005909161054DCEA5019401C701B6019A
:102580000E94AD3618167CF5A501940160E070E05C
:102590008CED93E40E94903420E030E040E451E47C
:1025A0000E94903420E030E040E05FE30E94283752
:1025B0009B01AC0160E070E080E090E40E94953700
:1025C000A50194010E9428379B01AC01C701B60107
:1025D0000E94AD3618163CF4A701960160E070E049
:1025E0008CED93EC9CCF80925E0590925F05A0925B
:1025F0006005B0926105B7CF1092970010929600D7
:1026000010929900109298009ECEA3019201C501EC
:10261000B4010E94AD3687FFDACE80915D0680FD61
:1026200011C010922305109222050CC080917100F8
:102630008D7F80937100809190008F7380939000C4
:1026400010922305FF91EF91BF91AF919F918F91D0
:102650007F916F915F914F913F912F91FF90EF90FC
:10266000DF90CF90BF90AF909F908F907F906F90B2
:102670005F904F900F900FBE0F901F901895C092D3
:102680001E05D0921F05E0922005F0922105DECEB6
:10269000109217051092100510920F0528E0929FD6
:1026A000C0011124E80FF91F80819181A281B381BB
:1026B00080931E0590931F05A0932005B0932105DC
:1026C00020E030E040E85EE3648175818681978197
:1026D0000E9428376B017C016091B70170E090E0A7
:1026E00080E00E94723520E030E048EC52E40E9425
:1026F00090349B01AC01C701B6010E94283760935A
:102700001A0570931B0580931C0590931D05AACE96
:10271000CF92DF92EF92FF92CF93DF93EC016B01A8
:10272000F42E80911105811102C00E940414809141
:102730005D0680FF62C0809171008D7F8093710083
:102740008091220581110E942D1481E08093230540
:10275000D0935C06C0935B06D0925A06C09259068D
:10276000F09260061092240510922505109226051D
:10277000109227051092160588819981AA81BB8144
:1027800080931E0590931F05A0932005B09321050B
:1027900020E030E040E85EE36C817D818E819F81A6
:1027A0000E9428376B017C016091B70170E090E0D6
:1027B00080E00E94723520E030E048EC52E40E9454
:1027C00090349B01AC01C701B6010E942837609389
:1027D0001A0570931B0580931C0590931D0510929C
:1027E0001905109218058091710082608093710024
:1027F00080919000806880939000DF91CF91FF904E
:10280000EF90DF90CF9008950E94B42A811102C00A
:102810000E94892A0E94DE2A80935D06809111051C
:1028200081110FC03E9A809171008D7F809371005D
:1028300082E0809390008AE18093910081E0809310
:10284000110580915D0680FF07C040E063E070E005
:102850008AE991E00C948813089580911105811103
:1028600002C00E94041410926505109264058091C4
:1028700071008D7F80937100809190008F738093A1
:102880009000109223051092220510925E0510927E
:102890005F05109260051092610510925A05109222
:1028A0005B0510925C0510925D051092590510921F
:1028B0005805E8E3F5E0A8E2B5E011921192119213
:1028C00011921D921D9285E0E835F807B1F7089541
:1028D000CF92DF92EF92FF920F931F93CF93DF93EC
:1028E0006B017C0180912205882309F467C08091E7
:1028F0001105811102C00E94041408E315E0C7E02D
:10290000D0E0A7019601F801648D758D868D978DB5
:102910000E948B3481116CC0FE01EE0FFF1FEE0F81
:10292000FF1FE85CFA4F1082118212821382CC0FD3
:10293000DD1FC85DDA4F1982188285E0E435F8079B
:1029400009F045C08091640590916505019797FD58
:1029500057C09093650580936405809164059091BC
:10296000650520916205309163052817390724F029
:102970001092630510926205892B01F58091710018
:102980008D7F80937100809190008F738093900071
:1029900010925E0510925F0510926005109261051D
:1029A00010925A0510925B0510925C0510925D051D
:1029B000109259051092580510922205DF91CF917F
:1029C0001F910F91FF90EF90DF90CF900895848139
:1029D0009581A681B78181939193A193B193108240
:1029E0001182128213828A819B8189939993A3CF4A
:1029F000219704501109CF3FDC0709F082CFA2CF05
:102A00001092650510926405A8CFCF92DF92EF92E5
:102A1000FF92CF93DF936B017C01EA018091110556
:102A2000811102C00E94041480915D0680FF46C09F
:102A3000809164059091650508970CF03FC08091E6
:102A400071008D7F809371008091230581110E9418
:102A50002D1481E0809322051092100510920F052D
:102A600020E030E0A901C701B6010E94AD3618167A
:102A7000DCF48091640590916505FC01EE0FFF1F69
:102A8000EE0FFF1FE85CFA4FC082D182E282F38230
:102A9000FC01EE0FFF1FE85DFA4FD183C083019662
:102AA00090936505809364058091710082608093A6
:102AB000710080919000806880939000DF91CF91A9
:102AC000FF90EF90DF90CF90089580915D06817028
:102AD000089580915D06816080935D060E94E22AE0
:102AE0000E94671040E062E070E08AE891E00C9498
:102AF000881340E062E070E08AE791E00E9488136A
:102B00002FEF81EE94E0215080409040E1F700C02B
:102B100000000E942D1480915D068E7F80935D06DB
:102B20000C94E22A8091660590E0019687709927BF
:102B30008093660508958091660590E007968770FA
:102B400099278093660508958F929F92AF92BF92C6
:102B5000CF92DF92EF92FF92CF93DF936B017C01D4
:102B6000C0910F05D0911005BE0190E080E00E9459
:102B700072354B015C01A701960160E070E08CE5C5
:102B800094E40E9490349B01AC01C501B4010E9401
:102B900028370E9443359B01E0916605E83018F51F
:102BA000F0E0EB52FA4E0C94B838DD150016191609
:102BB0002117F31569179A17D8171092B20180E000
:102BC00090E0A0E0BFE38093B3019093B401A093A1
:102BD000B501B093B6011092120510921305109230
:102BE000140510921505C701B601DF91CF91FF9032
:102BF000EF90DF90CF90BF90AF909F908F9008950F
:102C00001092B20110921205109213051092140541
:102C1000109215056A50710980E090E0A0E8BEE3CB
:102C20006F3B710508F460C080E090E0A0E0BEE377
:102C30005BC01092B201109212051092130510920F
:102C400014051092150520E030E040EA52E4C70177
:102C5000B6010E948B3487FDC6CF20E030E040E211
:102C600053E4C701B6010E948B3487FF46C00E941F
:102C70004B3A68E270E00E94A438BC01645C7F4F6C
:102C8000072E000C880B990B0E9474356B017C0198
:102C900080910F05909110058B30910508F18531D9
:102CA000910508F052C065E170E0681B790B90E077
:102CB00080E00E94723520E030E040E05FE30E9457
:102CC000283720E030E040E251E40E9490346093E5
:102CD000B3017093B4018093B5019093B60183CF93
:102CE00080E090E0A0E0BFE38093B3019093B40153
:102CF000A093B501B093B60176CF20E030E040EA72
:102D000053E4C701B6010E948B3487FF27C00E949D
:102D10004B3A68EE73E00E94A438BC0168517C4FC6
:102D2000072E000C880B990B0E9474356B017C01F7
:102D300080910F05909110058630910588F265E12C
:102D400070E08531910508F46BC01092B3011092C8
:102D5000B4011092B5011092B60145CF20E030E0E9
:102D600040E254E4C701B6010E948B3487FF2FC0B4
:102D70000E944B3A60ED77E00E94A438BC01685491
:102D8000744F072E000C880B990B0E9474356B0151
:102D90007C0180910F05909110058031910508F418
:102DA0009FCF8531910588F665E170E0681B790B4E
:102DB00090E080E00E94723520E030E040E05FE388
:102DC0000E94283720E030E040EA50E47ECF20E047
:102DD00030E040EA54E4C701B6010E948B3487FF1B
:102DE00002CF0E944B3A60ED77E00E94A438BC010C
:102DF0006854744F072E000C880B990B0E94743591
:102E00006B017C0180910F05909110058432910532
:102E100008F466CF8333910508F097CF63E370E041
:102E2000681B790B90E080E00E94723520E030E072
:102E300040E05FE30E94283720E030E040E751E4C3
:102E400044CF41E04093B201109212051092130555
:102E500010921405109215056431710540F46A3022
:102E6000710560F120E030E040E05FE32BC0693C99
:102E7000710508F06ACF90E080E00E94723520E092
:102E800030E040EA51E40E941E3420E030E044E3A8
:102E900053E40E9490349B01AC010E94283720E04B
:102EA00030E040E05EE30E9428379B01AC0160E027
:102EB00070E080E09EE30E941E3409CF20E030E005
:102EC00040E85EE3C701B6010E9428376B017C0130
:102ED000ABCE21E02093B20110921205109213059F
:102EE00010921405109215054AE0469F9001479FE5
:102EF000300D1124C90168EB7BE00E949038BC01C1
:102F00006C5D754077FF03C0719561957109072E5F
:102F1000000C880B990B0E9474352EE333EC4EE2C3
:102F200059E30E94283720E030E040EC5EE30E9445
:102F30001F34CDCE81E08093B20110921205109221
:102F400013051092140510921505CE018370992770
:102F5000892B09F1BE016170772790E080E00E9423
:102F6000723520E030E040E05EE30E94283720E048
:102F700030E040E45FE30E941F346093B30170933C
:102F8000B4018093B5019093B601C770DD27CD2BB6
:102F900009F029CEDACE80E090E0A0E0BFE3809394
:102FA000B3019093B401A093B501B093B601EDCFF6
:102FB00041E04093B2011092120510921305109255
:102FC000140510921505812C912CA12C9FE3B92E8C
:102FD0008092B3019092B401A092B501B092B60173
:102FE0002739310508F4FFCD90E080E00E9472356A
:102FF00020E030E047E153E40E941E3420E030E05E
:103000004AE754E40E94903420E030E048E452E47F
:103010000E94283720E030E040EA51E40E94BA35AF
:103020000E943C35660F771F660F771F66597B4FEE
:10303000FB012081318142815381C701B6010E9489
:1030400028376B017C01CFCD8091800581110C94D4
:10305000651008950E9424181092800540E068E0F1
:1030600070E088E392E00C94881310927F0540E0B2
:1030700068E070E088EB91E00C9488130E942418BB
:1030800020917E0530E02F5F3F4F23703327209340
:103090007E0548E2429FC001439F900D112440E00D
:1030A00065E070E088549D4F0C948813CF93809115
:1030B0007B058823F1F08091670590916805009762
:1030C00079F40E948B2B909368058093670580911B
:1030D0006905282F30E0882371F0C90101970FC0DE
:1030E0000E94972B209158033091590328173907D4
:1030F00040F3CF91089580916A058150990B25592D
:103100003A4FF901C08120918005222331F0855981
:103110009A4FFC0180810E9447108091800588238E
:1031200019F08C2F0E9427108091690590E001967C
:1031300060916A0570E00E94A43880936905D9CF38
:10314000089581E08093800540E068E070E088E7C2
:1031500092E00E9488130C94A018089581E0809357
:103160007F0540E068E070E088EF91E00E948813FE
:103170000C94AD18EF92FF921F93CF93DF93CDB7CE
:10318000DEB7A3970FB6F894DEBF0FBECDBF7C01AC
:1031900080324CE5940751F4DB0112968C91882320
:1031A00009F44DC00E94A11880E0EEC08132BCE558
:1031B0009B0741F4FB018281882309F440C00E94EF
:1031C0002A18F2CF8232FCE59F0751F480918005E6
:1031D000DB0112969C91992391F18111F0CFE2CFFE
:1031E0008632BCE59B0739F4FB018281882339F1E3
:1031F0000E94AE18D9CF8732FCE59F0741F4DB016E
:1032000012968C918823D9F00E943518CDCF883240
:10321000BCE59B0749F4FB018281882381F0809102
:103220007F058111F1CFE4CF83329C4541F4DB016E
:1032300012968C91882319F00E943E18B5CF2091E8
:103240008005211105C080917F05882309F4E7C01E
:10325000FB013281332309F450C0F0EEEF16F10484
:1032600061F40E94241881E080937D0510927C0512
:1032700010927B0510926A0597CF42EEE416F10496
:1032800071F40E94241880917D05882319F081E053
:1032900080937C0510927D0510927B0585CF83EE8F
:1032A000E816F10491F480917C05882331F10E94A5
:1032B000241810927D0581E080937B0510926905AA
:1032C00010926805109267056FCF92E5E916F10438
:1032D00051F480915803909159030A9790935903A0
:1032E0008093580361CFA1E5EA16F10431F480918F
:1032F0005803909159030A96F1CF80917E05109161
:103300005C03811111C0135080915A03180FFB0107
:103310008081180F418187E090E0841B9109FCE0D7
:103320008F9F100D112414C08130D1F5105E809153
:103330005A03180FDB018C91180F11964C9187E0FE
:1033400090E0841B9109982F990F990F890F180FFE
:10335000332309F45DC0222319F0812F0E94271026
:1033600080917D05882351F080916A05E82FF0E077
:10337000E559FA4F10838F5F80936A0581E0BFEFB4
:10338000EB16F10408F410CFA3960FB6F894DEBF45
:103390000FBECDBFDF91CF911F91FF90EF900895A9
:1033A000823071F4105E80915A03180FFB01808106
:1033B000180F418187E090E0841B9109F7E0B0CFBE
:1033C000833031F683E2ECE6F3E0DE011196019002
:1033D0000D928A95E1F7DB01EC9181E090E08C0F92
:1033E0009D1F8E0F911DFC0180915A0390915B03EC
:1033F000E80FF91F13508081180F11964C9187E048
:1034000090E0841B9109ACE08A9F100D1124A0CF9D
:10341000222309F4B3CF812F0E944710AFCF81E060
:10342000B3CFCF92DF92EF92FF920F931F93CF9380
:10343000DF93E901662309F466C0E42EF12CEFEF77
:10344000F0E0E61BF109EE9D8001EF9D100DFE9D61
:10345000100D1124212FE12FFF27EE1AFF0A5CE344
:10346000C52ED12CB6010E949038FB01BC01E69E0E
:10347000C001E79E900DF69E900D1124B6010E94AA
:103480009038E230F10589F168F4812F262F210F61
:10349000309781F0242F461B319761F080E020E0C7
:1034A00040E008C0E430F10551F128F1842F861B7B
:1034B0003597A1F7E42FF0E0E250FC4F4491E22F62
:1034C000F0E0E250FC4F9491E82FF0E0E250FC4F26
:1034D000E49149839883EA83DF91CF911F910F9103
:1034E000FF90EF90DF90CF900895862F810FE42F0B
:1034F000412F2E2FDFCFE42FE61B842FF9CF842F0F
:10350000462F410FD7CF842F242FD4CF88E090E0CF
:103510000C946A3AAB01BC0188E090E00C94883AC4
:10352000E1E6F6E083E08083109262068FEF82830B
:103530008383609161067091620680916306909129
:1035400064060C948A1A6091610660FF06C0669555
:103550006F7370E090E080E0089560E070E0CB0170
:103560000895E1E6F6E080818E7F808360916106B8
:103570007091620680916306909164060E948A1A97
:10358000109296052FEF80E792E021508040904006
:10359000E1F700C000000C9478069091610690FF5E
:1035A0000CC0E9E6F6E0818360834283339696E0BF
:1035B000E13BF907C1F70C9478060895EF92FF926A
:1035C0000F931F93CF93DF9300D01F92CDB7DEB739
:1035D000182FE92EF62E042F809161069091620635
:1035E000A0916306B0916406809365069093660689
:1035F000A0936706B09368068091610680FF1FC0A4
:103600009E012F5F3F4F812F9E2D0E94111A8091A6
:10361000650610FB87F9809365061695809166060E
:103620008078812BE0FA87F980936606F09267062E
:10363000009368064B8169818A810E94CD1A0F90A0
:103640000F900F90DF91CF911F910F91FF90EF900E
:1036500008956F927F928F929F92AF92BF92CF9276
:10366000DF92EF92FF920F931F93CF93DF93EC01C2
:10367000662E742E8091610680FF8CC0982F9E77F5
:10368000923079F5CE010E94DE1A809161069C2F5E
:10369000C0FB87F9809361069695809162068078D9
:1036A000892BD0FB87F98093620660926306709243
:1036B0006406609161067091620680916306909144
:1036C0006406DF91CF911F910F91FF90EF90DF90F3
:1036D000CF90BF90AF909F908F907F906F900C9401
:1036E0008A1AE82FE695EF739EE39E0F9F7394303E
:1036F00018F470906406C9CF9AE39E0F9F739930B7
:1037000070F4881F8827881F90916206292F220F46
:10371000C22FC82B97FB992790F9D92FB6CF87E2F4
:103720008E0F8F738A3008F0B0CFE951FF0B2FEF67
:10373000E0FF21E0EE7FEC51FC4F8591949168E130
:1037400070E00E94903826035001279FB00C11248E
:103750007E0188E9E81A8EEFF80A09E616E081EBA7
:10376000C82E86E0D82E98E6892E99249394C70116
:10377000B4010E9490389801472D662D0E94111ABD
:10378000EA0CFB1C0D5F1F4FC016D10681F70E948B
:1037900078067BCFDF91CF911F910F91FF90EF9033
:1037A000DF90CF90BF90AF909F908F907F906F9061
:1037B0000895E1E6F6E02081221F2227221F3091A2
:1037C0006206432F440F842F822B37FB992790F9F1
:1037D0000A9668E671E00E94A438438162810C94E5
:1037E000291B20916106221F2227221F3091620689
:1037F000432F440F842F822B37FB992790F98A306F
:10380000910540F4825A9E4F409164066091630690
:103810000C94291B0A9768E671E00E94A438F4CF43
:10382000609163066F3E90F46F5E80916106881F21
:103830008827881F90916206292F220F97FB9927CE
:1038400090F940916406822B0C94291B6FEFEDCF09
:1038500060916306613190F0615180916106881F2B
:103860008827881F90916206292F220F97FB99279E
:1038700090F940916406822B0C94291B60E0EDCFF7
:10388000409164064F3E90F44F5E80916106881F20
:103890008827881F90916206292F220F97FB99276E
:1038A00090F960916306822B0C94291B4FEFEDCFAA
:1038B00040916406413190F0415180916106881F2A
:1038C0008827881F90916206292F220F97FB99273E
:1038D00090F960916306822B0C94291B40E0EDCF98
:1038E0009091610690FF42C09178811126C092604C
:1038F0009093610660916106709162068091630603
:10390000909164060E948A1A80916106982F9E7792
:103910009230D9F410929605881F8827881F9091BD
:103920006206292F220F97FB992790F94091640690
:1039300060916306822B0C94291B833210F09464EF
:10394000D7CF8F73880F982BD3CF982F96959F73CF
:103950002EE3290F2F73273120F491E090939605E1
:10396000DBCF995D9F739A30B8F6D4CF08958091DC
:10397000120681608093120681E0809397050E9471
:10398000B42A811104C00E94892A0E94901A0E94C0
:10399000861A609361067093620680936306909323
:1039A00064066E7761F40E94901A0E94861A6093F2
:1039B000610670936206809363069093640681E0CB
:1039C000809396058091610680FF04C086958F7371
:1039D0000C94701C08958091610686958F738F5F9B
:1039E000833208F081E00C94701C8091610686950A
:1039F0008F73815009F482E20C94701CCF93DF9393
:103A0000C1E6D6E08881816088836091610670910B
:103A1000620680916306909164060E948A1A8881EA
:103A200086958F73DF91CF910C94701C8091610605
:103A300080FD0C94B11A0C94FE1CCF93C82F80917A
:103A40009405909195050E94972BEC2FF0E0E6509D
:103A5000FC4FE491E817190611F008F042C00E94EB
:103A60008B2B90939505809394056091930570E05E
:103A700090E080E00E94743520E030E04FE753E4AE
:103A80000E9490342BED3FE049E450E40E94283737
:103A90000E94E5370E940A352BE43AE34EE25FE3E9
:103AA0000E941E3420EF3BEF48ED52E40E9428377D
:103AB0000E944335462F80916106881F8827881F02
:103AC00090916206292F220F97FB992790F9609118
:103AD0006306822B0E94DE1A809193058F5F80938C
:103AE0009305CF910895CF93C82F80919105909120
:103AF00092050E94972BEC2FF0E0E950FC4FE491E7
:103B0000E817190609F0E8F40E948B2B90939205B0
:103B100080939105409164066091630680918F05C2
:103B2000909190050E94DE1A80918F0590919005EA
:103B3000019668E671E00E9490389093900580931A
:103B40008F05CF910895CF92DF92FF920F931F932D
:103B5000CF93DF93F82E80918D0590918E050E9472
:103B6000972BEF2DE695F0E0EC50FC4FE491E81731
:103B7000190609F0A8F50E948B2B90938E0580936F
:103B80008D0509E616E0D0E0C0E088E6C82EDD2409
:103B9000D39480918B0590918C058C0F9D1FB6015D
:103BA0000E949038980140916406609163060E94DB
:103BB000111A2F960D5F1F4FC83681E0D80749F7BD
:103BC0000E94780680918B0590918C05F0FE10C0C4
:103BD0000196BE010E94903890938C0580938B05CE
:103BE000DF91CF911F910F91FF90DF90CF900895BB
:103BF0000197F2CFCF92DF92EF92FF920F931F9334
:103C0000CF93DF93C82FFF24FA9480FD02C0FF24D6
:103C1000F3948091890590918A050E94972BC6950F
:103C2000EC2FF0E0EF50FC4FE491E817190611F08B
:103C300008F051C00E948B2B90938A0580938905D0
:103C400009E616E0D0E0C0E0F8011182108212828D
:103C500094E0C92ED12CE12C809188058E0D87FD32
:103C6000885E082E000C990BC817D907E9F48091DB
:103C700064068C9DA0018D9D500D1124559547958E
:103C80005595479580916106881F8827881F9091D8
:103C90006206592F550F97FB992790F9980160916B
:103CA0006306852B0E94111AEF0CF1E0CF1AD108A0
:103CB00099F621960D5F1F4FC831D10529F60E9454
:103CC00078068091880591E0F91210C081110CC02E
:103CD00087E180938805DF91CF911F910F91FF902D
:103CE000EF90DF90CF9008958150F3CF90E0019650
:103CF000BE010E94A438EDCF0F931F93CF93DF93A3
:103D0000C82F80918605909187050E94972BEC2FF4
:103D1000F0E0E251FC4FE491E817190611F008F0C9
:103D200052C00E948B2B9093870580938605C9E62D
:103D3000D6E0FE01118210821282339686E0E13BCA
:103D4000F807C1F710E000E080918505082E000C0F
:103D5000990B08171907E4F180915E03082E000CF7
:103D6000990B80179107A4F180916106881F88271D
:103D7000881F90916206592F550F97FB992790F94C
:103D80009E014091640660916306852B0E94111A82
:103D90000F5F1F4F239608311105B1F60E94780678
:103DA00080915D0390918505980F909385052091F2
:103DB0005E03280F20935E03121614F497311CF053
:103DC000819580935D03DF91CF911F910F910895AD
:103DD000198218821A82DCCFEF92FF920F931F9301
:103DE000CF93DF9380918305909184050E94972B58
:103DF000883E9340C8F10E948B2B9093840580935A
:103E00008305C0918105D09182052196C170DD277F
:103E1000D0938205C093810589E6E82E86E0F82ECE
:103E200010E008E7812F86958C0F9D2F911D8170E2
:103E3000992797014091640660916306FC010E9FEB
:103E4000C0010F9F900D11240E94111A1F5FF3E013
:103E5000EF0EF11C183131F7DF91CF911F910F91C7
:103E6000FF90EF900C947806DF91CF911F910F9106
:103E7000FF90EF90089580919605882391F190919D
:103E80006106892F86958F732EE3280F2F732430B8
:103E900018F482500C941D1D2AE3280F2F73233031
:103EA00018F486500C94731D27E3280F2F732630C7
:103EB00018F489500C94A31D21E3280F2F7326308A
:103EC00018F48F500C94FA1D2BE2280F2F73233017
:103ED00018F485510C947C1E9E77903311F40C9449
:103EE000EC1E089590939D0580939C050895E091A4
:103EF0009C05F0919D05309721F00190F081E02D17
:103F0000099480E00895E0919C05F0919D0530971B
:103F100021F00280F381E02D0994089520919A0503
:103F200030919B052817390771F090939B0580937A
:103F30009A05E0919C05F0919D05309721F006804F
:103F4000F781E02D09940895209198053091990505
:103F50002817390771F09093990580939805E0919F
:103F60009C05F0919D05309721F00084F185E02DAE
:103F70000994089508950C94BA1F81E008950E9451
:103F8000822B0E94EB0E0E940B2C0E94812C0C9421
:103F9000B71C5F926F927F928F929F92AF92BF9267
:103FA000CF92DF92EF92FF920F931F93CF93DF9305
:103FB000CDB7DEB72A970FB6F894DEBF0FBECDBFE0
:103FC0000E94300F0E94BD1F882309F478C09FE92A
:103FD000A92E95E0B92E10E000E088248394912C5E
:103FE000502E802F0E94DF0F7C01F501C190D190EF
:103FF0005F01C816D90609F45CC08091120681FDE4
:104000000E94E80F90E080E0CE24DF243401082EE7
:1040100002C0660C771C0A94E2F79601262137212C
:10402000232B09F441C08E835F82E620F72081E0D4
:10403000EF2809F480E088870E948B2B8160782F1D
:104040009A8789874E815F8168858A850E9486204C
:10405000000F111FF801E156FA4F80819181682607
:104060007926718260820E94771F90919E05891740
:10407000B9F10E94771F80939E052A960FB6F89497
:10408000DEBF0FBECDBFDF91CF911F910F91FF908B
:10409000EF90DF90CF90BF90AF909F908F907F90E8
:1040A0006F905F900C94240901968031910509F07E
:1040B000ADCF0F5F1F4F0730110509F091CF8FEF84
:1040C00089838A831B820E948B2B8160782F9D833A
:1040D0008C8349815A816B818D810E948620C3CF58
:1040E0002A960FB6F894DEBF0FBECDBFDF91CF91F9
:1040F0001F910F91FF90EF90DF90CF90BF90AF9006
:104100009F908F907F906F905F900895CF93DF93F3
:10411000CDB7DEB72B970FB6F894DEBF0FBECDBF7D
:104120004F83588769877A878B871E821D8285E037
:10413000FE013796DE01119601900D928A95E1F706
:1041400049815A816B817C818D819E812B960FB62E
:10415000F894DEBF0FBECDBFDF91CF910C945A27EC
:10416000882309F4F3C08238B9F40E94771F81FDD7
:10417000EDC089E30E94D6290E941A2A2FEF81EE12
:1041800094E0215080409040E1F700C0000089E3B6
:104190000E94DD290C941A2A8338A1F40E94771F0B
:1041A00080FDD4C083E50E94D6290E941A2A2FEFF1
:1041B00081EE94E0215080409040E1F700C0000083
:1041C00083E5E6CF8438A1F40E94771F82FDBEC04C
:1041D00087E40E94D6290E941A2A2FEF81EE94E0EC
:1041E000215080409040E1F700C0000087E4D0CF2C
:1041F0009CEF980F913A18F40E94D629CBCF90E209
:10420000980F983050F4877091E001C0990F8A950B
:10421000EAF7892F0E94502ABDCF9BE5980F933073
:1042200070F4853A31F0863A39F083E890E00C94E6
:104230008E1F81E890E0FBCF82E890E0F8CF98E510
:10424000980F953108F082C0883A09F440C0893A45
:1042500009F440C08A3A09F440C08B3A09F440C0DE
:104260008C3A09F440C08B3B09F440C08C3B09F404
:1042700040C08D3A09F440C0803B09F440C08E3AFA
:1042800009F440C08F3A09F440C0813B09F440C0B2
:10429000823B09F440C0833B09F440C0843B09F4ED
:1042A00040C0853B09F440C0863B09F440C0873BD1
:1042B00009F440C0883B09F440C0893B09F440C080
:1042C0008A3B09F440C090E080E00C94A41F82EE89
:1042D00090E0FBCF89EE90E0F8CF8AEE90E0F5CF4A
:1042E00085EB90E0F2CF86EB90E0EFCF83EB90E0B0
:1042F000ECCF84EB90E0E9CF87EB90E0E6CF8CEC5D
:1043000090E0E3CF8DEC90E0E0CF83E891E0DDCF6B
:104310008AE891E0DACF82E991E0D7CF84E991E0B1
:10432000D4CF81E292E0D1CF83E292E0CECF84E29B
:1043300092E0CBCF85E292E0C8CF86E292E0C5CF93
:1043400087E292E0C2CF8AE292E0BFCF089588234D
:1043500009F44BC0823871F40E94771F81FF45C079
:1043600089E30E94D6290E941A2A89E30E94DD2946
:104370000C941A2A833859F40E94771F80FF35C0A5
:1043800083E50E94D6290E941A2A83E5EFCF84385C
:1043900059F40E94771F82FF28C087E40E94D62923
:1043A0000E941A2A87E4E2CF9CEF980F913AF0F22C
:1043B00090E2980F983050F4877091E001C0990F07
:1043C0008A95EAF7892F0E94562AD2CF9BE5980F4B
:1043D000933020F490E080E00C948E1F885A853151
:1043E00020F490E080E00C94A41F0895882321F02D
:1043F0000E94502A0C941A2A0895882321F00E94C2
:10440000562A0C941A2A08958F929F92AF92BF92C7
:10441000DF92EF92FF920F931F93CF93DF937C0174
:10442000D62FC72FFC01058102950F701281111143
:104430000E946F2A0E94132AD82E882371F011231C
:1044400031F180E28D0F883010F182E00E94FD2969
:104450000E94132A91E0D82ED926BC2EB2949FE058
:10446000B922EB2DF0E0E95CFD4D0C94B8384922FF
:10447000492299229922DB22E222E222E22203232C
:10448000E2229E239E2328243124E2225424D12C8C
:10449000E4CF0C2F0F70C07F11F00295007F112325
:1044A000A9F0002359F080E28D0F883010F0D1116F
:1044B00009C0802F0E94502A0E941A2A8D2F0E9424
:1044C000B02014C0802F0E94612AF6CF8D2F0E9449
:1044D000A721002359F080E28D0F883010F0D11110
:1044E00024C0802F0E94562A0E941A2ADD2009F437
:1044F000E2C10E94F02980FDDEC1F70112820E9414
:10450000EA290E94EB28C7010E9467240E94EA2939
:10451000DF91CF911F910F91FF90EF90DF90BF90AF
:10452000AF909F908F900C940C29802F0E94672A47
:10453000DBCFFC2FFF70BF2EC07FC03219F0B294CA
:1045400080EFB822DD2369F0D13029F1112369F120
:10455000002359F0F701858180FFB0CF8F708583EC
:1045600004C0112361F0011104C08B2D0E94F621BB
:10457000BDCF8B2D0130D1F70E94832AB7CF011117
:1045800006C00E94862A8B2D0E94FD21AFCF0130EC
:1045900009F4ACCFF6CF112321F0063008F0A6CFF6
:1045A000E4CF053008F0A2CFEECF002361F38D2FCA
:1045B0000E94A7219BCF8C2F86958695837079F0DA
:1045C0008130B9F098E0B91609F459C0B91608F469
:1045D0008DCF86EF8B0D823008F451C087CF8D2FA1
:1045E0009C2F9370111102C090E080E00E948E1FFA
:1045F0007DCF8D2F9C2F9370111102C090E080E031
:104600000E94A41F73CF8C2F837009F04BC011112F
:1046100036C02D2F229526952770220F220F6D2F41
:104620006F70862E912CB12CA12C022E04C0880C08
:10463000991CAA1CBB1C0A94D2F760E070E0CB0165
:10464000D4FF0FC06FE070E080E090E004C0660F20
:10465000771F881F991F2A95D2F7609570958095CE
:104660009095C695C695C370C23071F0A0F46829C4
:1046700079298A299B29C13091F00E949D280E94A6
:10468000771F0E94240932CF682979298A299B291A
:104690000E94AF28F4CF0E949D28C501B4010E945A
:1046A0008B28EDCF8695112311F08C2F81708823F4
:1046B00031F32D2F229526952770220F220F6D2F73
:1046C0006F70862E912CB12CA12C022E04C0880C68
:1046D000991CAA1CBB1C0A94D2F760E070E0CB01C5
:1046E000D4FF0FC06FE070E080E090E004C0660F80
:1046F000771F881F991F2A95D2F76095709580952E
:104700009095C695C695C370C23051F080F4682963
:1047100079298A299B29C13071F00E946229AFCF83
:10472000682979298A299B290E947429A8CF0E9487
:104730006229C501B4010E945029A1CFE0E2ED0F2A
:10474000E53108F066C0F0E0E855FC4D0C94B8384F
:10475000BD23BD23BD23BD23BD23BD23BD23BD2359
:10476000BD23BD23BD23BD23BD23BD23BD23BD2349
:10477000CE23DC23E323EA23F423DF708C2F8F7115
:10478000112331F00E94EB288D2F0E94F6211ACFC1
:104790000E940C298D2F0E94FD2114CF112341F07E
:1047A000053008F00FCF8C2F8F710E942F290ACF70
:1047B000063008F007CFF7CF8C2F8F71112339F017
:1047C0000E94EB28FFCE8C2F8F711123C9F30E941A
:1047D0000C29F8CE112329F08C2F8F710E94D62836
:1047E000F1CE0E94D128EECE112349F0CF718C2F4B
:1047F0000E94EB2863E08C2F0E94F429E3CE81E035
:104800000E94FD29023008F4DDCE82E00E94FD29DD
:10481000D9CE112349F0002321F08D2F0E94B02022
:10482000D1CE8C2F8F71CCCF002379F0D93349F4BE
:10483000FFEF27EE83E0F15020408040E1F700C019
:1048400000008D2F0E94A721BDCE8C2F8F71BFCF6E
:104850004C2F4F706D2FC7010E9403090E9403283F
:1048600045CE111143CECF70C230B1F040F4CC230D
:1048700081F0C13009F0A6CE0E94B22C37CEC430F0
:1048800089F068F080E0C53009F09CCE0E94082DC8
:104890002DCE0E949A2C2ACE0E94CB2C27CE0E948D
:1048A000E52C24CE8AE0F2CF4C2F4F706D2FC7013C
:1048B0000E940D081BCEDF91CF911F910F91FF90A9
:1048C000EF90DF90BF90AF909F908F9008950F93DF
:1048D0001F93CF93DF93EC01988189812B813C81D9
:1048E000232B39F08F3F19F481E09F3F19F080E0CE
:1048F00001C081E080FD17C0CE010E944C098823D1
:1049000091F0688179818A810E94D3298C010E946B
:1049100086290E948828B801CE01DF91CF911F918E
:104920000F910C940422DF91CF911F910F91089564
:104930000E946F2A0E94802A0E94E4290E941A2A5B
:1049400090E080E00E948E1F90E080E00C94A41F15
:104950000E945E2A0C9498240E94C929E92FE295AE
:10496000EF70E250EE30E0F4F0E0E754FB4D0C94D1
:10497000B838C724C724D024D024D224D024D024AB
:10498000D024C724C724D724D024D024D724803FC0
:1049900019F020F4803E20F481E00895843FE1F393
:1049A00080E00895803EC0F3813FD1F7F5CF93FBBF
:1049B000882780F90895CF93DF9300D000D01F920D
:1049C000CDB7DEB70F900F900F900F900F90DF9143
:1049D000CF910895CF93DF9300D000D000D0CDB712
:1049E000DEB726960FB6F894DEBF0FBECDBFDF91BF
:1049F000CF9108951F93CF93DF93C091AD0516E03B
:104A00008091AE058C1304C0DF91CF911F91089562
:104A1000D0E01C9FF0011D9FF00D1124E155FA4FCD
:104A20004081518162817381848195810E94EA2451
:104A30002196C770E5CF4091DF055091E005609168
:104A4000E1057091E2058091E3059091E4050C94F5
:104A5000EA241F93CF93DF938091E405807FD1F404
:104A60008091E1058823B1F08091AD05D091AE052C
:104A7000B091DF05C091E0054091E2055091E3055A
:104A8000A1E0BF3F09F0A0E0BA016095709516E083
:104A9000D81304C0DF91CF911F91089521E04115F3
:104AA000510521F02A2FCF3F09F020E090E020FDB2
:104AB00038C0189FF001199FF00D1124E155FA4FED
:104AC00021812C132EC020812B132BC02281211178
:104AD00028C0238134812417350700F1241B350BAE
:104AE000283C3105F0F42091E4052F7020612093DB
:104AF000E40526E0289FF001299FF00D1124EC54D5
:104B0000FA4F80818F70806180838FED95E00E94E5
:104B10006724DF91CF911F910C94FA24260F371F41
:104B2000DFCF01968770B4CFAF92BF92CF92DF9262
:104B3000EF92FF920F931F93CF93DF93CDB7DEB722
:104B400061970FB6F894DEBF0FBECDBF8C0185E034
:104B5000F801DE011D9601900D928A95E1F7D801CA
:104B60004C9111965C9111971296EC903091DF0563
:104B70006091E0058091E2059091E30521E00097C6
:104B800031F06F3F19F421E03F3F09F020E0B22FF0
:104B9000B170BB2E20FD80C1F801C380D480A090ED
:104BA000E105AA2009F427C1C816D906D0F1D6011B
:104BB000A81BB90BCD01FF24F394883C910508F0A4
:104BC000F12C8091E405982F907FFF2009F4CAC052
:104BD000911187C0FE2C651329C0341327C0E11042
:104BE00025C08F7080618093E4050E941B258FEDA6
:104BF00095E00E9467248091E405F80185838F2D5C
:104C000061960FB6F894DEBF0FBECDBFDF91CF9196
:104C10001F910F91FF90EF90DF90CF90BF90AF90DA
:104C20000895809590958C0D9D1DC5CF81E0CD2870
:104C300031F05F3F19F481E04F3F09F080E080FDE3
:104C400024C081E08E25F82FF170DF2E80FF3FC059
:104C50008091AD052091AE0536E0821318C04D87D6
:104C60005E878D859E850E94C929292F22952F70E8
:104C7000223008F1243030F59F7009F1D8011596E3
:104C80009C91907FE1F4FB2CBACF80E0DCCF90E0E8
:104C9000389FF001399FF00D1124E155FA4F6181E1
:104CA000561306C06081461303C062816E110FC0A7
:104CB00001968770D2CF9F7011F0882321F3805E18
:104CC000883008F3C8010E946724BD2CDCCFEE2099
:104CD00009F495CF8091E40581608093E405F12C7F
:104CE0008ECF651312C0341310C0E1100EC0F8014E
:104CF0008583C8010E94672486E0F801AFEDB5E026
:104D000001900D928A95E1F741C04D875E878D85B0
:104D10009E850E94AC24882309F4C8C0EE2009F4C3
:104D2000C5C08091E405803270F02091DF0530919C
:104D3000E00538872F831986DB86CA868C87CE01EB
:104D400007960E94672486E0F801AFEDB5E0019078
:104D50000D928A95E1F70E9429250E941B25FF24C8
:104D6000F3944DCF911115C07C2DD98AC88A6E2D30
:104D700089890E94DB248FED95E00E94672486E0FC
:104D8000EFEDF5E0DF011D928A95E9F70E941B2502
:104D900036CF651312C0341310C0E1100EC0F801F5
:104DA0008583C8010E946724EFEDF5E086E0DF010E
:104DB0001D928A95E9F7FA2C22CF4D875E878D8563
:104DC0009E850E94AC24882309F470C0EE2009F46B
:104DD0006DC08091E405803208F4B5CF2091DF05E5
:104DE0003091E0053A8329831B82DD82CC828E8359
:104DF000CE010196A6CFC816D90638F1F601E81BF8
:104E0000F90BCF01F12C883C910508F03DC0FE2C38
:104E1000EE2009F44BC0651326C0341324C08091E2
:104E2000E40580FD17C0982F907FA1F0D80115965A
:104E30008C931597903F09F45CCF982F907F905FEB
:104E40008F70892B15968C9354CF809590958C0DEF
:104E50009D1DD8CF86E0F801AFEDB5E001900D9231
:104E60008A95E1F7CCCE4D875E878D859E850E9421
:104E7000AC24811168CF8091E40581608093E405C2
:104E8000C8010E946724BBCE7C2DD98AC88A6E2DAA
:104E900089890E94DB2473CFEE2041F04D875E8725
:104EA0008D859E850E94AC2481114DCFC8010E9442
:104EB000672455CF1F93CF93DF93CDB7DEB72C97E1
:104EC0000FB6F894DEBF0FBECDBF4F8358876987FA
:104ED0007A878B879C87CE0107960E94942588232A
:104EE00009F442C09F8188852A853B85232B39F0B0
:104EF0008F3F19F481E09F3F19F080E001C081E00D
:104F000080FD08C04F81588569857A858B859C8591
:104F10000E94EA2416E08091AD059091AE058917B4
:104F200009F467C0819FC001112481559A4F0E94E6
:104F30009425882309F45DC0E091AD051E9FF00122
:104F40001124E155FA4F408151816281738184813E
:104F500095810E94EA248091AD0590E001968770CA
:104F600099278093AD05D7CF86E0FE013796DE0105
:104F7000119601900D928A95E1F79F8188852A8587
:104F80003B85232B39F08F3F19F481E09F3F19F0C7
:104F900080E001C081E080FDBDCF2091AE0530E012
:104FA000C9010196877099274091AD0548171906E8
:104FB00099F096E0929FD001939FB00D1124A155D6
:104FC000BA4FFE01319601900D929A95E1F78093C8
:104FD000AE050E94FA249ECF0E94A8241092AE052E
:104FE0001092AD0586E0EFEDF5E0DF011D928A95A8
:104FF000E9F72C960FB6F894DEBF0FBECDBFDF9158
:10500000CF911F910895EF92FF920F931F93CF932B
:10501000DF938C01892B81F0F12CEE24E394E801DD
:105020002196F8018491843770F4843008F05FC0D1
:105030008130B1F08230A1F1DF91CF911F910F91BA
:10504000FF90EF900895853709F44CC008F43DC0F7
:105050009CE7980F903780F78F770E94A72149C06F
:105060000E5F1F4FFE01849190E2980F983060F41C
:105070008770FE2D01C0FF0F8A95EAF78F2F0E94DF
:10508000722A0E941A2A02C00E94B0208F2D8150DD
:1050900030F2EFE9FFE03197F1F700C00000F7CF01
:1050A0000E5F1F4FFE01849190E2980F983050F4EC
:1050B0008770FE2D01C0FF0F8A95EAF78F2F0E949F
:1050C000782ADFCF0E94A721E1CF0E5F1F4FFE019C
:1050D000C491C150D8F28FE99FE00197F1F700C069
:1050E0000000F7CF0E5F1F4FFE01F490CFCF0E945C
:1050F000B0208E01CBCF08950E947B286093E905F4
:105100007093EA058093EB059093EC050C9498243A
:1051100008950C947C280F931F930091E90510913A
:10512000EA052091EB053091EC05602B712B822B69
:10513000932B1F910F910C947C280F931F93009138
:10514000E9051091EA052091EB053091EC0560230B
:105150007123822393231F910F910C947C280F932A
:105160001F930091E9051091EA052091EB0530911C
:10517000EC0560277127822793271F910F910C94CC
:105180007C280C947B280C94C1280E94C32860932F
:10519000E5057093E6058093E7059093E8050C9488
:1051A000982460E070E0CB010C94C5280F931F9306
:1051B00041E050E060E070E08A019B0104C0000F14
:1051C000111F221F331F8A95D2F7C901B8011F9101
:1051D0000F910C94C5280F931F9341E050E060E0BD
:1051E00070E004C0440F551F661F771F8A95D2F7E1
:1051F0008091E5059091E605A091E705B091E8055D
:105200008A019B01082B192B2A2B3B2BC901B801C2
:105210001F910F910C94C5280F931F9341E050E00C
:1052200060E070E004C0440F551F661F771F8A9529
:10523000D2F7CB01BA016095709580959095009159
:10524000E5051091E6052091E7053091E80560231A
:105250007123822393231F910F910C94C5280F93E0
:105260001F9341E050E060E070E004C0440F551F20
:10527000661F771F8A95D2F78091E5059091E60524
:10528000A091E705B091E8058A019B01082719273D
:105290002A273B27C901B8011F910F910C94C528FB
:1052A0000F931F930091E5051091E6052091E70506
:1052B0003091E805602B712B822B932B1F910F915E
:1052C0000C94C5280F931F930091E5051091E605F6
:1052D0002091E7053091E805602371238223932311
:1052E0001F910F910C94C5280F931F930091E50512
:1052F0001091E6052091E7053091E80560277127B8
:10530000822793271F910F910C94C5280895BF926F
:10531000CF92DF92EF92FF920F931F93CF93DF9381
:105320008C01C090E505D090E605E090E705F0908F
:10533000E8058091E9059091EA05A091EB05B0910F
:10534000EC05C82AD92AEA2AFB2ACFE1D0E0BC2EF4
:10535000D701C6010C2E04C0B695A79597958795E1
:105360000A94D2F780FD0EC0219788F7B12C8B2DBF
:10537000DF91CF911F910F91FF90EF90DF90CF9031
:10538000BF900895B8018C2F0E942D0C019761F3F6
:10539000EECFCF93DF93EC010E948729BE01DF910E
:1053A000CF910C942D0CCB010C94C929682F8091BE
:1053B0005F03909160030C94442B682F80915F03EE
:1053C000909160030C944F2B80915F039091600348
:1053D0000C945A2B8091ED058595859585950895BA
:1053E0008091ED058770089598E0899F90011124C0
:1053F000622B6093ED050C94EB289091ED05809560
:1054000089238093ED05282F277061F4282F082E1B
:10541000000C330B9217130629F085958595859519
:105420000C940C2908959091ED05977081E009F492
:1054300080E00895E0915F03F09160038091110690
:105440008083E0915F03F09160038081909110066A
:10545000892B8083E0915F03F091600380819091BC
:105460000F06892B80839091EE05992381F0E091BE
:105470005F03F09160038081892B808380915F03BB
:10548000909160030E94E72A81111092EE058091AD
:105490005F03909160030C94831F8091110608951F
:1054A00090911106892B809311060895982F90955D
:1054B0008091110689238093110608951092110698
:1054C000089590911006892B809310060895982FC7
:1054D000909580911006892380931006089510926C
:1054E0001006089590910F06892B80930F0608955A
:1054F000982F909580910F06892380930F06089529
:1055000010920F0608958093EE0508951092EE050F
:1055100008956DEE7EEF90E080E00E94943A60E0A6
:1055200082E090E00E94763A60E083E090E00E94A2
:10553000763A60E084E090E00E94763A60E085E0B0
:1055400090E00E94763A60E086E090E00E94763A31
:105550006FEF87E090E00E94763A40E050E0BA01B9
:1055600088E090E00C94883A90E080E00E94703AE5
:1055700021E08D3E9E4F09F020E0822F089582E0C9
:1055800090E00C94623A83E090E00C94623A682FC9
:1055900083E090E00C94763A84E090E00C94623AD8
:1055A000682F84E090E00C94763A86E090E00C94CA
:1055B000623A682F86E090E00C94763A87E090E0BB
:1055C0000C94623A682F87E090E00C94763AFC01E4
:1055D00031969C01205E3F4F80E0919191118F5F49
:1055E000E217F307D1F708959C01FC0132969FEF73
:1055F00080E04191461751F09F3F19F4411101C0DD
:10560000982F8F5F8E31A9F79F3F09F40895290FD6
:10561000311D97FD3A95F90162830895FC01329698
:1056200080962191261303C0DF0111971C92E81781
:10563000F907B9F70895E62FE695E695E695EF3177
:1056400069F0E80FF92FF11D677021E030E001C02B
:10565000220F6A95EAF78181822B81830895E62FD4
:10566000E695E695E695EF3171F0E80FF92FF11D1B
:10567000677021E030E001C0220F6A95EAF72095BB
:10568000818128232183089520916B03222329F00F
:105690002091B50627FD0C941B2B0C94F42A209125
:1056A0006B03222329F02091B50627FD0C942F2BA4
:1056B0000C940E2BFC01319680961192E817F90795
:1056C000E1F70895089508950895CF930E94632BFC
:1056D0000E94300F0E94642BC0E08C2F0E94DF0FCD
:1056E000892B31F4CF5FC730C1F780E0CF910895A7
:1056F00081E0FCCF0E94A8240E94812C0E94771F89
:105700000C94240982E084BD93E095BD9AEF97BD87
:1057100080936E0008952FB7F8948091B106909110
:10572000B206A091B306B091B4062FBF0895CF92F0
:10573000DF92EF92FF920F931F932FB7F89440914F
:10574000B1065091B2066091B3067091B4062FBFB6
:105750006A017B01EE24FF248C0130E020E0C016BA
:10576000D106E206F30650F0481B590BCA011F91FF
:105770000F91FF90EF90DF90CF9008954150510925
:10578000F3CF78941F920F920FB60F9211248F933C
:105790009F93AF93BF938091B1069091B206A09171
:1057A000B306B091B4060196A11DB11D8093B10658
:1057B0009093B206A093B306B093B406BF91AF9195
:1057C0009F918F910F900FBE0F901F90189581E0C1
:1057D0008093E00080E28093D8001092C9008FE1AE
:1057E0009EE40197F1F700C0000087E090EBDC0138
:1057F0008093C9069093CA06A093CB06B093CC06BB
:1058000088E19CE00FB6F894A895809360000FBEE5
:1058100090936000FFCF0E94B42A811102C00E94C1
:10582000892A0E94BF2A809312060E94CC2A90E007
:105830009093B6068093B5060E94C32A682F70E045
:1058400090E080E00C948928E1E8F0E080818860B5
:1058500080838081816080838FB7F89493E09093F8
:10586000890090ED909388008FBF0895EFE6F0E0F7
:105870008081826080830895EFE6F0E080818D7FF3
:10588000808308951F920F920FB60F9211242F93C9
:105890003F934F935F936F937F938F939F93AF93B8
:1058A000BF93EF93FF938091130690911406019696
:1058B0009093140680931306811103C082E00E9426
:1058C0002409E0911406E695E695F0E0E250FB4FDE
:1058D000E491809113068E1303C080E00E94240996
:1058E000FF91EF91BF91AF919F918F917F916F91B8
:1058F0005F914F913F912F910F900FBE0F901F908E
:1059000018950E94B42A811102C00E94892A0E941F
:10591000D52A8093B706863120F081708461809308
:10592000B7068091B70680FF03C086950C943606B3
:1059300080E0FCCF8091B706982F96959A3030F48E
:105940009F5F990F8170892B8093B7068091B7066E
:1059500081608093B7060E94D92A8091B706869508
:105960000C9436068091B706982F9E7F79F082506E
:105970008093B7068E7F91E009F490E08091B7069E
:1059800090FB80F98093B7060E94D92A8091B706D0
:1059900086950C9436069091B706892F8E7F90FFDE
:1059A00081608093B706813019F483E08093B70655
:1059B0008091B7060E94D92A8091B70680FF03C064
:1059C00086950C94360680E0FCCF9091B706892F1F
:1059D00086958F5F8F7791708B30B8F4880F892B05
:1059E0008093B7068091B7068E7F91E009F490E02E
:1059F0008091B70690FB80F98093B7060E94D92A60
:105A00008091B70686950C9436069093B706EACF38
:105A10008B3008F08AE0982F990F8091B70681703B
:105A2000892B8093B7068E7F91E009F490E08091F6
:105A3000B70690FB80F98093B7060E94D92A80911F
:105A4000B70686950C94360680913506089508951C
:105A50000F931F93CF93DF9300D01F92CDB7DEB784
:105A60008C010E94702F823011F0843021F583E088
:105A700089831B830A8382E08093E9008FEF9091F2
:105A8000E800815095FD06C095ED9A95F1F700006C
:105A90008111F5CF8091E80085FF0DC050E040E016
:105AA00063E070E0CE0101960E948D2F8091E800A6
:105AB0008E778093E8000F900F900F90DF91CF9139
:105AC0001F910F910895CF93DF9300D01F92CDB710
:105AD000DEB72091BC06243029F522E029838058C6
