:100000000C94D5010C941C020C941C020C941C0240
:100010000C941C020C941C020C941C020C941C02E8
:100020000C941C020C941C020C946C220C943F2324
:100030000C941C020C941C020C941C020C941C02C8
:100040000C941C020C94E11D0C941C020C941C02D8
:100050000C941C020C94601D0C941C020C941C0249
:100060000C941C020C941C020C941C020C941C0298
:100070000C941C020C941C020C941C020C941C0288
:100080000C941C020C941C020C941C020C941C0278
:100090000C949A020C941C020C941C020C941C02EA
:1000A0000C941C020C941C020C941C020763423634
:1000B000B79BD8A71A39685618AEBAAB558C1D3CF9
:1000C000B7CC5763BD6DEDFD753EF6177231BF00BD
:1000D0000000803F05A84CCDB2D44EB93836A902F5
:1000E0000C50B9918688083CA6AAAA2ABE00000036
:1000F000803F29002B006700015183005400550008
:1001000056005F006000610057005C005D005E000B
:10011000000059005A005B005800620000006300B4
:100120000000BF5CC15CBD5C0100C05CC25CBE5C29
:100130000100C95CCA5CBB5CBC5CC65CC75CC85CDB
:100140000000C35CC45CC55CBA5C00000000000039
:1001500000006801F000B40078005A007F3F1F647F
:100160003214643214783C1E1E140A05000000008C
:10017000000101010101010101010202020202026A
:10018000020202030303030303030304040404043D
:100190000405050505050606060606070707070800
:1001A0000808080909090A0A0A0A0B0B0B0C0C0CAF
:1001B0000D0D0D0E0E0F0F0F101011111112121345
:1001C000131414151516161717181819191A1A1BBF
:1001D0001C1C1D1D1E1F1F2020212222232425251B
:1001E00026272728292A2B2B2C2D2E2F2F30313252
:1001F00033343536363738393A3B3C3D3E3F404163
:10020000424344464748494A4B4C4D4F5051525344
:10021000555657585A5B5C5E5F60626364666769F7
:100220006A6C6D6E707173747678797B7C7E808178
:10023000838486888A8B8D8F91929496989A9B9DC1
:100240009FA1A3A5A7A9ABADAFB1B3B5B7B9BBBDCE
:10025000BFC1C4C6C8CACCCFD1D3D6D8DADCDFE19F
:10026000E4E6E8EBEDF0F2F5F7FAFCFF0000000041
:1002700000000000000000010204060A0F17202CF5
:100280003A4A5D71879DB3C7DAE9F5FCFFFCF5E9F1
:10029000DAC7B39D87715D4A3A2C20170F0A06040E
:1002A0000201000000000000000000000403300014
:1002B000000014034C0046004B0050006100640035
:1002C000200032003100000018034C0046004B00B3
:1002D0006500790062006F006100720064007300C5
:1002E00000000403090409023B00020100A0FA090E
:1002F0000400000103010100092111010001224055
:10030000000705810308000A090401000103000039
:1003100000092111010001223600070582030800AF
:100320000A1201100100000008EDFE6060010001EA
:1003300002030105010980A10185021601002603BF
:10034000001A81002A8300751095018100C0050CF8
:100350000901A1018503160100269C021A01002A49
:100360009C02751095018100C005010906A10105D7
:100370000719E029E7150025019508750181029507
:100380000175088101050819012905950575019177
:10039000029501750391010507190029FF15002633
:1003A000FF00950675088100C00011241FBECFEF25
:1003B000DAE0DEBFCDBF04B603FE27C08091EB02BA
:1003C0009091EC02A091ED02B091EE028730904B3B
:1003D000A740B04BD1F41092EB021092EC021092B5
:1003E000ED021092EE0214BE84B7877F84BF0FB671
:1003F000F894A895809160008861809360001092C5
:1004000060000FBEE0E0F8E3099511E0A0E0B1E084
:10041000E8EFF3E502C005900D92A43AB107D9F7D1
:1004200022E0A4EAB1E001C01D92AB3EB207E1F7C1
:100430000E94971F0C94FA290C940000EBE6F2E05E
:1004400010828FEF818312821092B9008CE080932A
:10045000B80085E08093BC00089580916B02982FCE
:100460009D7F79F0813059F480916C02803311F0D6
:10047000883329F480E98093BC000E941E0280E04A
:10048000089581E00895FF920F931F93CF93DF9318
:10049000EC01162FF42E022F0E942D028823B9F1B1
:1004A00080E98093BC000E941E02F0926D02D093FE
:1004B0007102C0937002612F70E0709377026093B5
:1004C000760210926F0210926E0280916B0282305F
:1004D00019F581E080936B0280916E0290916F021A
:1004E0009C012F5F3F4F30936F0220936E02C80F25
:1004F000D91F88818093BB0085E88093BC000111DF
:1005000014C0DF91CF911F910F91FF90089585E066
:100510008A95F1F70000C0CF81E080936B0285EAF5
:10052000ECCF85E08A95F1F700000E942D02882328
:10053000C1F3E7CF1F920F920FB60F9211242F93A2
:100540003F934F938F939F93EF93FF938091B900C5
:10055000887F8832B9F110F5803109F4AFC088F492
:10056000882309F4AFC0883069F1FF91EF919F9122
:100570008F914F913F912F910F900FBE0F901F9031
:1005800018958831E1F0803281F780916D028823DF
:1005900009F48EC08091B900887F7FC08034B9F1A2
:1005A00028F4803391F3883381F3DFCF803509F469
:1005B00044C0883509F45BC08834B9F6E6CF83E0DF
:1005C00080936B0220916E0230916F0280917602CF
:1005D00090917702281739070CF05AC0E091700209
:1005E000F091710280916E0290916F029C012F5FD9
:1005F0003F4F30936F0220936E02E80FF91F808106
:100600008093BB0088EF80936C0285E813C084E080
:1006100080936B02809172029091730201972091F6
:100620007402309175022817390764F788EF8093B8
:100630006C0285EC8093BC0098CF809174029091FD
:1006400075029C012F5F3F4F309375022093740217
:100650004091BB00895A9D4FFC01408380917202FA
:100660009091730201972817390764F6DFCF8091C4
:100670007402909175029C012F5F3F4F3093750279
:10068000209374022091BB00895A9D4FFC01208366
:1006900080916D02882329F08FEF80936C0285EAA8
:1006A000C9CF10926B028FEF80936C0285E9C2CFA5
:1006B00010926B028091B900887FF6CF82E0809320
:1006C0006B0253CF10926C0210926B02EFCFCF935C
:1006D000DF9300D01F92CDB7DEB76F3F69F0880F70
:1006E000886E89838DEF8A836B8321E040E063E02D
:1006F000CE0101960E9443020F900F900F90DF9160
:10070000CF910895FF920F931F93CF93DF9300D063
:100710001F92CDB7DEB7182FF42E022F0E94670369
:10072000110F186E1983FA820B8321E040E063E019
:10073000CE0101960E9443020F900F900F90DF911F
:10074000CF911F910F91FF9008950F931F93CF9317
:10075000DF93A82FB0E0B595A795A370B0E0AA0FDE
:10076000BB1FAC55BE4F0D911C910115110581F1B8
:10077000EFEFE60F4150A42FAA0F8170A82BC1E024
:10078000D0E00E2E01C0CC0F0A94EAF7A00FB12FD3
:10079000B11D53969C91539721111FC0C0959C2366
:1007A00053969C93539795969C919597C9239596AC
:1007B000CC9360E0813009F468E04295407FE40F1B
:1007C000E60FE00FF12FF11D27AB81E0F801808BE0
:1007D000DF91CF911F910F9108959C2B53969C937D
:1007E000539795969C919597C92BE1CFEF92FF92E5
:1007F0000F931F93CF93DF93182F062FE82FF0E06E
:10080000EE0FFF1FEC55FE4FC081D181209729F1DB
:100810008881882369F0FE0111927F016BE0812FAE
:100820000E94670321E040E06FE0C7010E9443029D
:100830008889882391F0188A60E0812F0E946703DD
:10084000202F40E066EBCE014196DF91CF911F91C2
:100850000F91FF90EF900C944302DF91CF911F9185
:100860000F91FF90EF9008950F931F93CF93DF9315
:100870000E941E0204EA11E0C0E0D1E0F80181917B
:1008800091918F01009711F00E94222920E04AE007
:100890006BE08C2F0E9482030E942D02882351F16D
:1008A00080916C028F3FF1F461E070E08EE891E09E
:1008B0000E946A28FC01D80112978D939C938C2F7B
:1008C000880F886E81831282818B128AD083D08BAD
:1008D00061E08C2F0E94F60321E04AE06BE08C2F50
:1008E0000E948203CF5FC43049F6DF91CF911F9100
:1008F0000F910895F5E0FA95F1F70000CDCFFF9242
:100900000F931F93CF93DF93F42ED22FC0919701B3
:10091000813118F0C09198018051082F10E096E0C5
:10092000899FF0011124EB5EFE4F4181442329F0A1
:10093000262F60818C2F0E94A50386E0809FF00106
:10094000819FF00D1124EB5EFE4F4381442329F07B
:100950002F2D62818C2F0E94A50386E0809FF001DD
:10096000819FF00D1124EB5EFE4F4581442351F031
:100970002D2F64818C2FDF91CF911F910F91FF90CC
:100980000C94A503DF91CF911F910F91FF900895D3
:100990000F931F93CF93DF930BE711E0C0E8D2E0F2
:1009A000F80181918F019091780220E040E060E0B1
:1009B00090FF03C02A81488169810E947F042396A9
:1009C000F1E007391F0761F7DF91CF911F910F9178
:1009D00008950F931F93CF9304EA11E0D801ED918E
:1009E000FC91C1E0C08B61E080E00E94F603D80179
:1009F0001696ED91FC91C08B61E083E0CF911F9141
:100A00000F910C94F6030E94DA053E9A46980C94D6
:100A100034048091B0019091B101A091B201B091E4
:100A2000B301893E9340A105B10560F01092B00179
:100A30001092B1011092B2011092B3010E941E02F5
:100A40000E94E9040E942D02882381F11092B001D6
:100A50001092B1011092B2011092B3018091AC01D9
:100A6000682F0E94F6038091AC019091AD01A09196
:100A7000AE01B091AF01892B8A2B8B2B51F01092D4
:100A8000AC011092AD011092AE011092AF010C9426
:100A9000E80583E090E0A0E0B0E08093AC019093A3
:100AA000AD01A093AE01B093AF01F1CF8091B00141
:100AB0009091B101A091B201B091B3010196A11D35
:100AC000B11D8093B0019093B101A093B201B09396
:100AD000B301DDCF0F931F93CF93DF93EC018B0115
:100AE000C1158CE5D80711F40E94EE05B801CE01BE
:100AF000DF91CF911F910F910C94E905CF92DF9276
:100B0000EF92FF92CF93DF93FC018281613031F548
:100B1000CEECDBE1811102C0C5EDDBE10E94451C9A
:100B20008272409134025091350260913602709188
:100B30003702452B462B472B21F4882321F085E3F0
:100B400003C08823E1F389E2FE010995DF91CF918B
:100B5000FF90EF90DF90CF900C94121C8823F1F05F
:100B60006623A1F06230D1F4C12CD12C7601C3945C
:100B700004C0CC0CDD1CEE1CFF1C4A95D2F78C2D5A
:100B80000E94B51CC701B6010E94811ADF91CF9166
:100B9000FF90EF90DF90CF900C94C91ADF91CF9126
:100BA000FF90EF90DF90CF9008950C94EB0590E0CC
:100BB00080E008950E94B11C823048F081E00E94DC
:100BC000B51C61E070E080E090E00C94811A08951B
:100BD000089581E00895089581E008950E94A01687
:100BE0002FEF84E39CE0215080409040E1F700C06B
:100BF00000000C94861D0F931F93CF93DF938C01FD
:100C0000FC01C081D181CE010E947F1BBE010E94E8
:100C1000A408EC01B8010E946A05882309F4FFC00A
:100C2000B801CE010E94060B882309F4F8C0C23C2B
:100C3000FCE5DF0709F42AC108F059C0CB3B9CE56D
:100C4000D90709F4FCC070F5C531FCE5DF07D0F425
:100C5000C2308CE5D80708F093C1C1159CE5D907CF
:100C600009F4D8C0C130DC4509F4DFC081E08093CD
:100C7000B9018093BA01C801DF91CF911F910F9103
:100C80000C94EC05C531FCE5DF0709F437C2CA3B1B
:100C9000DC4561F7F8018281882309F4C0C00E9415
:100CA000480FBDC0CE3B9CE5D90709F4DEC080F4F7
:100CB000CC3BFCE5DF0709F4CDC0CD3BDC45B1F60C
:100CC000F8018281882309F4AAC00E940B0EA7C0F4
:100CD000F8018281C03CFCE5DF0709F4D2C008F4CA
:100CE000CBC0882309F49BC00E94720E98C0C93CF7
:100CF000ECE5DE0709F417C108F042C0C53C8CE5FD
:100D0000D80709F4D3C0F8F4C33CECE5DE0709F4D6
:100D1000C4C0C43CDC4509F0A9CFF8018281882316
:100D200009F47DC00E94D50C6230710581059105E2
:100D300040F00E94D50C653071058105910508F4DD
:100D400091C082E0B0C0F8018281C73CFCE5DF07BA
:100D500009F4D5C008F4BFC0882309F460C00E941C
:100D6000D50C653171058105910540F00E94D50CC7
:100D7000673171058105910508F474C085E193C060
:100D8000CC3CECE5DE0709F496C1D0F4CA3C8CE516
:100D9000D80709F4CFC0CB3CDC4509F067CFF80198
:100DA0008281882309F470C11092B9010E942A1D22
:100DB0009093B6018093B50182E00E9411142FC078
:100DC000C03DECE5DE0709F4CBC0C13DFCE5DF0723
:100DD00009F4CFC0CD3CDC4509F048CFF801828151
:100DE00081116DC18091BA01811186C18091B701D5
:100DF0009091B8010E94361D883C910508F07CC195
:100E000080E20E94181488E20E94CB1288E20E94BD
:100E1000C21305C0F801828181110E94EE0580E0B5
:100E2000DF91CF911F910F910895F801828188235E
:100E3000B1F380914902816080934902F0CFF801BB
:100E40008281882361F30E94451C827259F00E94BE
:100E5000270FE5CFF8018281882309F30E94451C02
:100E60008272A9F30E941D0FDACFF80182818823D4
:100E7000B1F20E94230ED3CF882389F20E94420E42
:100E8000CECF882361F20E945A0EC9CFF801828129
:100E9000882329F20E948A0EC2CFF801828188231A
:100EA00009F4BDCF81E00E94A20EB9CFF801828182
:100EB000882309F4B4CF0E94D50C663071058105F2
:100EC000910538F00E94D50C6830710581059105B7
:100ED00048F286E0E8CF882309F4A1CF0E94D50C20
:100EE000693071058105910540F00E94D50C6E3086
:100EF00071058105910508F4B5CF89E0D4CF882329
:100F000009F48DCF0E94D50C6F30710581059105D4
:100F100040F00E94D50C643171058105910508F4FB
:100F2000A1CF8FE0C0CFF8018281882309F477CF69
:100F300088E1B9CFF8018281882309F470CF0E943B
:100F4000D50C693171058105910540F00E94D50CE1
:100F5000623271058105910508F484CF89E1A3CF40
:100F6000F8018281882309F45ACF80E00E9434205E
:100F700056CFF8018281882309F451CF82E0F6CF61
:100F8000F8018281882309F476CE0E94A21C811187
:100F900002C00E94811C0E94BA1C90E09093D9026A
:100FA0008093D802FE01E350FC458091D802816015
:100FB000E231F105C8F4E152F84F0C946428F107CE
:100FC000FD070108050809080D081108150819088A
:100FD0001D082108250829082D0831083508390879
:100FE0003D088091D80282608093D8028091D80217
:100FF0000E94BE1C0E94A01612CF8091D80284606D
:10100000F3CF8091D8028860EFCF8091D8028061C1
:10101000EBCF8091D8028062E7CF8091D8028064C4
:10102000E3CF8091D8028068DFCF8091D8028460BE
:10103000EACF8091D8028E7FD7CF8091D8028D7F62
:10104000D3CF8091D8028B7FCFCF8091D802877F7A
:10105000CBCF8091D8028F7EC7CF8091D8028F7D71
:10106000C3CF8091D8028F7BBFCF8091D8028F777A
:10107000BBCF8091D8028B7FEACF9091D802892F85
:1010800097FB87F98058B0CF8091B90181110FC0CB
:101090008091B5019091B6010E94361D883C910562
:1010A00030F486E20E94CB1286E20E94C21382E0F4
:1010B0000E941814B4CEF8018281882351F0109256
:1010C000BA010E942A1D9093B8018093B70180E273
:1010D00074CE8091BA0181110FC08091B7019091B7
:1010E000B8010E94361D883C910530F487E20E94C9
:1010F000CB1287E20E94C21380E2DACF0E94451C25
:10110000F8019281992381F08A7A91E009F490E0C4
:101110009093B401811106C089E20E94CE1B0E9407
:10112000121C7DCE85E3F9CF8091B401811104C0FA
:1011300089E20E94D51BF3CF85E3FBCF0C94030516
:101140000C9409050C94D505E72FF0E096E0899FF3
:10115000E00DF11D1124EE0FFF1FEE0FFF1FE60F34
:10116000F11DEE0FFF1FEE50FF4F859194910895F2
:10117000FC01EE0FFF1FEE5AFE4F859194910895EA
:10118000CF93DF930E94A4080E94580AEC018115B6
:10119000904408F094C0C11580E3D80708F005C159
:1011A000C03ED10508F071C0C03CD10508F0ECC0CC
:1011B000C83AD10580F4C53AD10508F0E9C0C1307C
:1011C000D10509F46EC020F0C430D10508F069C023
:1011D000D0E0C0E066C0CD3BD105D0F7C83AD1051C
:1011E00009F427C1C93AD10509F426C1CA3AD10583
:1011F00009F425C1CB3AD10509F424C1CC3AD10573
:1012000009F423C1CB3BD10509F422C1CC3BD10564
:1012100009F421C1CD3AD10509F420C1C03BD10563
:1012200009F41FC1CE3AD10509F41EC1CF3AD10548
:1012300009F41DC1C13BD10509F41CC1C23BD10554
:1012400009F41BC1C33BD10509F41AC1C43BD10544
:1012500009F419C1C53BD10509F418C1C63BD10534
:1012600009F417C1C73BD10509F416C1C83BD10524
:1012700009F415C1C93BD10509F414C1CA3BD10514
:1012800009F013C1CAE2D6E40CC0CF3FD10509F082
:1012900060F4C03FD10508F086C0C83ED10508F013
:1012A00097CFCE01DF91CF910895CE019F70C115E8
:1012B00020E2D207B0F30E94B808EC01F2CFC115CA
:1012C00084E5D807A0F5C11523E5D20708F08EC044
:1012D000C11581E5D80708F5C11520E5D20708F446
:1012E0006EC0CE0154E0969587955A95E1F78370CC
:1012F0009C2F937021E030E002C0220F331F9A959B
:10130000E2F73C68382BC695C695C37080E2C89F4B
:10131000E0011124C22BD32BC4CFC11582E5D8071D
:1013200008F050C0DC2FCC27C16FD06ABACFC115EE
:1013300026E5D20758F49C2F8827C115D54508F417
:1013400069C0EC01CC27DF71D062ABCFC11588E555
:10135000D80708F43DCFC11529E5D20708F45EC0CF
:10136000CE0190568115904208F032CF8D2F8F71AB
:101370000E94D80ADD27D06290E0982F882788271E
:101380009F71C82BD92B8DCFCE01805C910993CF53
:10139000C53AD10509F447C0C63AD10509F446C09B
:1013A000C3E8D0E47ECFD0657CCFCE019927D3FFB0
:1013B00003C0EC01D86C75CFEC01D06C72CFDF703C
:1013C000D06A6FCFCE018370992721E030E002C050
:1013D000220F331F8A95E2F7C695C69580E2C89F13
:1013E000E0011124C22BD32BDC685BCFCE018370CC
:1013F000992721E030E002C0220F331F8A95E2F7DF
:10140000C695C69580E2C89FE0011124C22BD32B5C
:10141000DA6847CFEC01C46FD06A43CFDC2FCC270A
:10142000C06FD06A3ECFC1E8D0E43BCFC2E8D0E481
:1014300038CFC2EED4E435CFC9EED4E432CFCAEE11
:10144000D4E42FCFC5EBD4E42CCFC6EBD4E429CF22
:10145000C3EBD4E426CFC4EBD4E423CFC7EBD4E46E
:1014600020CFCCECD4E41DCFCDECD4E41ACFC3E82C
:10147000D5E417CFCAE8D5E414CFC2E9D5E411CF3B
:10148000C4E9D5E40ECFC1E2D6E40BCFC3E2D6E483
:1014900008CFC4E2D6E405CFC5E2D6E402CFC6E267
:1014A000D6E4FFCEC7E2D6E4FCCEC0E0D4E4F9CE69
:1014B0008238910549F1B0F48133910509F45CC09B
:1014C00048F48932910509F452C08A32910509F431
:1014D00058C008958533910509F444C089339105B6
:1014E00099F00895833E910531F138F4803E9105DD
:1014F00091F0823E9105B1F00895863E910511F17B
:10150000873E910541F108952091D8022370C9F0DA
:1015100080EE90E008952091D80220FF12C089E368
:1015200090E008952091D80222FF0BC024FF2EC026
:1015300090E080E008952091D80222FD2AC024FD89
:10154000F7CF08952091D80223FFFBCF24FDF0CFE1
:1015500087EE90E008952091D80223FFF0CF86EE29
:1015600090E008952091D80225FD16C0089520919D
:10157000D80225FD14C008952091D80226FD12C07E
:1015800008952091D80226FD10C0089583EE90E0C2
:10159000089582EE90E0089589E290E0089585E351
:1015A00090E008958AE290E0089581E390E0C9CF49
:1015B000CF93C82F0E94BA1C282F30E03093D90255
:1015C0002093D80282FF06C09C2F9871983079F43E
:1015D000C77FC46083FF06C09C2F9871983171F457
:1015E000C77EC46184FDC77E8C2FCF9108959C2F48
:1015F0009471943079F7CB7FC860ECCF9C2F9471B5
:10160000943181F7CB7EC861EDCF08950F931F937E
:10161000CF938C01FB018281811106C0C1E08C2F28
:10162000CF911F910F910895C091C801C11125C09C
:1016300006311C4599F70E94050B81E08093C80193
:101640000E942A1D9093C7018093C6011092BB018E
:101650001092BD011092BC011092BF011092BE0108
:101660001092C1011092C0011092C3011092C201E8
:101670001092C5011092C401D2CF8091C601909101
:10168000C7010E94361D883C910540F68091BB0140
:10169000E82FF0E0EE0FFF1FE454FE4F11830083AC
:1016A0008F5F8093BB01C0E0BACF85B7806885BFEC
:1016B00085B7806885BFADE9B1E061E070E08D91EC
:1016C000E82FE295EF70F0E041A18F709B0101C01F
:1016D000220F8A95EAF7922F9095942391A382A1E5
:1016E000822B82A381E0A33AB80749F7A9E9B1E0C8
:1016F00061E070E08D91E82FE295EF70F0E041A19C
:101700008F709B0101C0220F8A95EAF7922F909566
:10171000942391A382A1822B82A381E0AD39B807E3
:1017200049F7EFECF1E0A9ECB1E085ED91E0119221
:101730001D928E179F07D9F70C949E086F927F9287
:101740008F929F92AF92BF92CF92DF92EF92FF92D1
:101750000F931F93CF93DF9309EC11E09DE9E92EDE
:1017600091E0F92EE801CC24C394D12CBB24B3948E
:10177000A8801882D7018D917D01E82FE295EF7046
:10178000F0E091A18F70A60101C0440F8A95EAF79D
:10179000892F842B81A382A1842E8094882182A307
:1017A000B0EABA95F1F789E9682E81E0782E90E0E9
:1017B00080E0D3013D913D01632F62956F7070E031
:1017C000DB0190962C9198803F70B60101C0660FA6
:1017D0003A95EAF7622320E031F42C2D082E01C05F
:1017E000220F0A94EAF7292928830196843091056B
:1017F00001F781A1882181A382A1482B42A388817E
:10180000A81641F0B092D5010E942A1D9093D701ED
:101810008093D6012196B3EAEB16B1E0FB0609F0FE
:10182000A7CF8091D5018823A9F08091D60190910E
:10183000D7010E94361D069768F0EFECF1E08FECBF
:1018400091E0D8012D918D0121938A179B07C9F74B
:101850001092D5010E94A00881E0DF91CF911F91E5
:101860000F91FF90EF90DF90CF90BF90AF909F903F
:101870008F907F906F900895E82FF0E0E153FE4F36
:10188000808108950895CF92DF92EF92FF920F9397
:101890001F93CF93DF93E901662309F466C0E42E1A
:1018A000F12CEFEFF0E0E61BF109EE9D8001EF9DDA
:1018B000100DFE9D100D1124212FE12FFF27EE1A90
:1018C000FF0A5CE3C52ED12CB6010E943C28FB0127
:1018D000BC01E69EC001E79E900DF69E900D11247E
:1018E000B6010E943C28E230F10589F168F4812FAD
:1018F000262F210F309781F0242F461B319761F05E
:1019000080E020E040E008C0E430F10551F128F12A
:10191000842F861B3597A1F7E42FF0E0E459FE4FA2
:101920004491E22FF0E0E459FE4F9491E82FF0E06B
:10193000E459FE4FE49149839883EA83DF91CF9184
:101940001F910F91FF90EF90DF90CF900895862F19
:10195000810FE42F412F2E2FDFCFE42FE61B842FA2
:10196000F9CF842F462F410FD7CF842F242FD4CFE8
:1019700088E090E00C94BA29AB01BC0188E090E0CB
:101980000C94D829E8E7F2E083E080831092790292
:101990008FEF8283838360917802709179028091C6
:1019A0007A0290917B020C94BC0C6091780260FFEB
:1019B00006C066956F7370E090E080E0089560E087
:1019C00070E0CB010895E8E7F2E080818E7F8083AC
:1019D000609178027091790280917A0290917B02F5
:1019E0000E94BC0C1092ED012FEF80E792E0215095
:1019F00080409040E1F700C000000C94C804909132
:101A0000780290FF0CC0E0E8F2E0818360834283BB
:101A1000339692E0E43DF907C1F70C94C8040895A9
:101A2000EF92FF920F931F93CF93DF9300D01F92FB
:101A3000CDB7DEB7182FE92EF62E042F809178024D
:101A400090917902A0917A02B0917B0280937C02FE
:101A500090937D02A0937E02B0937F0280917802E2
:101A600080FF1FC09E012F5F3F4F812F9E2D0E9440
:101A7000430C80917C0210FB87F980937C021695C1
:101A800080917D028078812BE0FA87F980937D0236
:101A9000F0927E0200937F024B8169818A810E94CD
:101AA000FF0C0F900F900F90DF91CF911F910F912E
:101AB000FF90EF9008956F927F928F929F92AF92D6
:101AC000BF92CF92DF92EF92FF920F931F93CF932B
:101AD000DF93EC01662E742E8091780280FF8CC01B
:101AE000982F9E77923079F5CE010E94100D80914B
:101AF00078029C2FC0FB87F980937802969580919D
:101B000079028078892BD0FB87F9809379026092E3
:101B10007A0270927B0260917802709179028091D2
:101B20007A0290917B02DF91CF911F910F91FF90EC
:101B3000EF90DF90CF90BF90AF909F908F907F906D
:101B40006F900C94BC0CE82FE695EF739EE39E0F0C
:101B50009F73943018F470907B02C9CF9AE39E0F64
:101B60009F73993070F4881F8827881F909179029D
:101B7000292F220FC22FC82B97FB992790F9D92F15
:101B8000B6CF87E28E0F8F738A3008F0B0CFE9515D
:101B9000FF0B2FEFE0FF21E0EE7FEE5AFE4F859125
:101BA00094916CE170E00E943C2826035001279F2D
:101BB000B00C11247E0188E9E81A8EEFF80A00E8DB
:101BC00012E084EDC82E82E0D82E98E6892E992462
:101BD0009394C701B4010E943C289801472D662DBB
:101BE0000E94430CEA0CFB1C0D5F1F4FC016D10670
:101BF00081F70E94C8047BCFDF91CF911F910F9195
:101C0000FF90EF90DF90CF90BF90AF909F908F901C
:101C10007F906F900895E8E7F2E02081221F22274D
:101C2000221F30917902432F440F842F822B37FBE0
:101C3000992790F90A9668E671E00E94502843813E
:101C400062810C945B0D20917802221F2227221FB3
:101C500030917902432F440F842F822B37FB992731
:101C600090F98A30910540F4825A9E4F40917B0250
:101C700060917A020C945B0D0A9768E671E00E940D
:101C80005028F4CF60917A026F3E90F46F5E80919D
:101C90007802881F8827881F90917902292F220FA8
:101CA00097FB992790F940917B02822B0C945B0D56
:101CB0006FEFEDCF60917A02613190F061518091C8
:101CC0007802881F8827881F90917902292F220F78
:101CD00097FB992790F940917B02822B0C945B0D26
:101CE00060E0EDCF40917B024F3E90F44F5E8091DB
:101CF0007802881F8827881F90917902292F220F48
:101D000097FB992790F960917A02822B0C945B0DD6
:101D10004FEFEDCF40917B02413190F041518091E6
:101D20007802881F8827881F90917902292F220F17
:101D300097FB992790F960917A02822B0C945B0DA6
:101D400040E0EDCF9091780290FF42C091788111F0
:101D500026C0926090937802609178027091790227
:101D600080917A0290917B020E94BC0C8091780253
:101D7000982F9E779230D9F41092ED01881F882712
:101D8000881F90917902292F220F97FB992790F9AC
:101D900040917B0260917A02822B0C945B0D83321E
:101DA00010F09464D7CF8F73880F982BD3CF982FD0
:101DB00096959F732EE3290F2F73273120F491E01E
:101DC0009093ED01DBCF995D9F739A30B8F6D4CF35
:101DD00008958091490281608093490281E0809357
:101DE000EE010E94A21C811104C00E94811C0E946D
:101DF000C20C0E94B80C60937802709379028093B1
:101E00007A0290937B026E7761F40E94C20C0E946A
:101E1000B80C609378027093790280937A02909361
:101E20007B0281E08093ED018091780280FF04C005
:101E300086958F730C94A20E0895809178028695F2
:101E40008F738F5F833208F081E00C94A20E809133
:101E5000780286958F73815009F482E20C94A20E69
:101E6000CF93DF93C8E7D2E0888181608883609157
:101E700078027091790280917A0290917B020E949F
:101E8000BC0C888186958F73DF91CF910C94A20E44
:101E90008091780280FD0C94E30C0C94300FCF936A
:101EA000C82F8091EB019091EC010E94361DEC2F20
:101EB000F0E0E859FE4FE491E817190611F008F038
:101EC00042C00E942A1D9093EC018093EB01609127
:101ED000EA0170E090E080E00E943D2620E030E0E2
:101EE0004FE753E40E9460252BED3FE049E450E4C6
:101EF0000E9466270E94D3270E94DA252BE43AE34A
:101F00004EE25FE30E94F32420EF3BEF48ED52E402
:101F10000E9466270E940C26462F80917802881F17
:101F20008827881F90917902292F220F97FB9927E4
:101F300090F960917A02822B0E94100D8091EA0143
:101F40008F5F8093EA01CF910895CF93C82F80913E
:101F5000E8019091E9010E94361DEC2FF0E0EB5969
:101F6000FE4FE491E817190609F0E8F40E942A1DD3
:101F70009093E9018093E80140917B0260917A029D
:101F80008091E6019091E7010E94100D8091E60199
:101F90009091E701019668E671E00E943C289093D9
:101FA000E7018093E601CF910895DF92EF92FF92CF
:101FB0000F931F93CF93DF93D82E8091E4019091DC
:101FC000E5010E94361DED2DE695F0E0EE59FE4F3D
:101FD000E491E817190609F0A8F50E942A1D9093CC
:101FE000E5018093E40100E812E0D0E0C0E088E67B
:101FF000E82EFF24F3948091E2019091E3018C0F8D
:102000009D1FB7010E943C28980140917B0260917E
:102010007A020E94430C2C960D5F1F4FC03581E061
:10202000D80749F70E94C8048091E2019091E3012A
:10203000D0FE10C00196B7010E943C289093E301A6
:102040008093E201DF91CF911F910F91FF90EF906C
:10205000DF9008950197F2CFCF92DF92EF92FF9237
:102060000F931F93CF93DF93C82FFF24FA9480FD23
:1020700002C0FF24F3948091E0019091E1010E945D
:10208000361DC695EC2FF0E0E15AFE4FE491E817BB
:10209000190611F008F051C00E942A1D9093E10129
:1020A0008093E00100E812E0D0E0C0E0F801118286
:1020B0001082128294E0C92ED12CE12C8091DF0194
:1020C0008E0D87FD845E082E000C990BC817D9076A
:1020D000E9F480917B028C9DA0018D9D500D11240F
:1020E000559547955595479580917802881F882783
:1020F000881F90917902592F550F97FB992790F9D6
:10210000980160917A02852B0E94430CEF0CF1E05C
:10211000CF1AD10899F621960D5F1F4FCC31D1050A
:1021200029F60E94C8048091DF0191E0F91210C0E5
:1021300081110CC08BE18093DF01DF91CF911F9162
:102140000F91FF90EF90DF90CF9008958150F3CFE3
:1021500090E00196BE010E945028EDCF0F931F938F
:10216000CF93DF93C82F8091DD019091DE010E9413
:10217000361DEC2FF0E0E45AFE4FE491E817190603
:1021800011F008F052C00E942A1D9093DE01809346
:10219000DD01C0E8D2E0FE01118210821282339686
:1021A00082E0E43DF807C1F710E000E08091DC0137
:1021B000082E000C990B08171907E4F1809107010C
:1021C000082E000C990B80179107A4F180917802DA
:1021D000881F8827881F90917902592F550F97FBE8
:1021E000992790F99E0140917B0260917A02852B9C
:1021F0000E94430C0F5F1F4F23960C311105B1F65F
:102200000E94C804809106019091DC01980F909380
:10221000DC0120910701280F20930701121614F406
:102220009B311CF0819580930601DF91CF911F9126
:102230000F910895198218821A82DCCFEF92FF92D3
:102240000F931F93CF93DF938091DA019091DB017D
:102250000E94361D883E9340C8F10E942A1D90932B
:10226000DB018093DA01C091D801D091D901219688
:10227000C170DD27D093D901C093D80180E8E82E42
:1022800082E0F82E10E008E7812F86958C0F9D2FB5
:10229000911D81709927970140917B0260917A028C
:1022A000FC010E9FC0010F9F900D11240E94430C52
:1022B0001F5FF3E0EF0EF11C1C3131F7DF91CF917E
:1022C0001F910F91FF90EF900C94C804DF91CF9174
:1022D0001F910F91FF90EF9008958091ED01882359
:1022E00091F190917802892F86958F732EE3280FB4
:1022F0002F73243018F482500C944F0F2AE3280FC8
:102300002F73233018F486500C94A50F27E3280F61
:102310002F73263018F489500C94D50F21E3280F21
:102320002F73263018F48F500C942C102BE2280FAA
:102330002F73233018F485510C94AE109E77903390
:1023400011F40C941E1108959093F4018093F301FD
:102350000895E091F301F091F401309721F001909C
:10236000F081E02D099480E00895E091F301F0916F
:10237000F401309721F00280F381E02D0994089553
:102380002091F1013091F2012817390771F09093F3
:10239000F2018093F101E091F301F091F4013097A3
:1023A00021F00680F781E02D099408952091EF0136
:1023B0003091F0012817390771F09093F001809364
:1023C000EF01E091F301F091F401309721F00084E6
:1023D000F185E02D0994089508950C94EC1181E0A5
:1023E00008950E94211D0E94550B0E94AA1D0C9465
:1023F000E90EBF92CF92DF92EF92FF920F931F935D
:10240000CF93DF93CDB7DEB72A970FB6F894DEBF30
:102410000FBECDBF0E949E0B0E94EF11882309F4CE
:102420006FC086EFC82E81E0D82E10E000E0B02EFD
:10243000802F0E943C0CE82EF601F1906F01F816F7
:1024400009F458C08091490281FD0E94420C90E03D
:1024500080E0FE242F2D30E0482FB901082E02C065
:10246000759567950A94E2F760FF3FC08E83BF823F
:1024700081E090E06C0102C0CC0CDD1C4A95E2F7D3
:102480002E2D30E02C213D21232B09F480E088877C
:102490000E942A1D8160782F9A8789874E815F81EB
:1024A00068858A850E94A112F801EA50FE4F80815A
:1024B0008C2580830E94A9119091F501891789F1DB
:1024C0000E94A9118093F5012A960FB6F894DEBFF9
:1024D0000FBECDBFDF91CF911F910F91FF90EF9075
:1024E000DF90CF90BF900C94A208019684309105A4
:1024F00009F0B2CF0F5F1F4F0630110509F097CFDB
:102500008FEF89838A831B820E942A1D8160782F26
:102510009D838C8349815A816B818D810E94A11298
:10252000C9CF2A960FB6F894DEBF0FBECDBFDF919C
:10253000CF911F910F91FF90EF90DF90CF90BF90C0
:102540000895CF93DF93CDB7DEB72B970FB6F894EE
:10255000DEBF0FBECDBF4F83588769877A878B87D1
:102560001E821D8285E0FE013796DE0111960190E4
:102570000D928A95E1F749815A816B817C818D8129
:102580009E812B960FB6F894DEBF0FBECDBFDF91B4
:10259000CF910C945219882309F4F3C08238B9F40E
:1025A0000E94A91181FDEDC089E30E94CE1B0E940B
:1025B000121C2FEF81EE94E0215080409040E1F713
:1025C00000C0000089E30E94D51B0C94121C8338C4
:1025D000A1F40E94A91180FDD4C083E50E94CE1B06
:1025E0000E94121C2FEF81EE94E021508040904019
:1025F000E1F700C0000083E5E6CF8438A1F40E9433
:10260000A91182FDBEC087E40E94CE1B0E94121C4D
:102610002FEF81EE94E0215080409040E1F700C020
:10262000000087E4D0CF9CEF980F913A18F40E94F5
:10263000CE1BCBCF90E2980F983050F4877091E08A
:1026400001C0990F8A95EAF7892F0E94481CBDCFD7
:102650009BE5980F933070F4853A31F0863A39F063
:1026600083E890E00C94C01181E890E0FBCF82E811
:1026700090E0F8CF98E5980F953108F082C0883A3D
:1026800009F440C0893A09F440C08A3A09F440C0CC
:102690008B3A09F440C08C3A09F440C08B3B09F4F2
:1026A00040C08C3B09F440C08D3A09F440C0803BE7
:1026B00009F440C08E3A09F440C08F3A09F440C092
:1026C000813B09F440C0823B09F440C0833B09F4DC
:1026D00040C0843B09F440C0853B09F440C0863BC0
:1026E00009F440C0873B09F440C0883B09F440C06E
:1026F000893B09F440C08A3B09F440C090E080E087
:102700000C94D61182EE90E0FBCF89EE90E0F8CFEA
:102710008AEE90E0F5CF85EB90E0F2CF86EB90E08B
:10272000EFCF83EB90E0ECCF84EB90E0E9CF87EB49
:1027300090E0E6CF8CEC90E0E3CF8DEC90E0E0CF42
:1027400083E891E0DDCF8AE891E0DACF82E991E099
:10275000D7CF84E991E0D4CF81E292E0D1CF83E278
:1027600092E0CECF84E292E0CBCF85E292E0C8CF78
:1027700086E292E0C5CF87E292E0C2CF8AE292E0A1
:10278000BFCF0895882309F44BC0823871F40E94AA
:10279000A91181FF45C089E30E94CE1B0E94121C33
:1027A00089E30E94D51B0C94121C833859F40E94B3
:1027B000A91180FF35C083E50E94CE1B0E94121C28
:1027C00083E5EFCF843859F40E94A91182FF28C015
:1027D00087E40E94CE1B0E94121C87E4E2CF9CEF8C
:1027E000980F913AF0F290E2980F983050F4877079
:1027F00091E001C0990F8A95EAF7892F0E944E1C3B
:10280000D2CF9BE5980F933020F490E080E00C94B9
:10281000C011885A853120F490E080E00C94D611E4
:102820000895882321F00E94481C0C94121C0895DE
:10283000882321F00E944E1C0C94121C08958F9244
:102840009F92AF92BF92DF92EF92FF920F931F93EE
:10285000CF93DF937C01D62FC72FFC010581029512
:102860000F70128111110E94671C0E940B1CD82E40
:10287000882371F0112331F180E28D0F883010F13F
:1028800082E00E94F51B0E940B1C91E0D82ED926F5
:10289000BC2EB2949FE0B922EB2DF0E0EE5AFB4E35
:1028A0000C94642864146414B414B414F614FD1461
:1028B000FD14FD141E15FD14B915B9154316FD14AC
:1028C000FD144C16D12CE4CF0C2F0F70C07F11F0EB
:1028D0000295007F1123A9F0002359F080E28D0FAB
:1028E000883010F0D11109C0802F0E94481C0E942E
:1028F000121C8D2F0E94CB1214C0802F0E94591CD5
:10290000F6CF8D2F0E94C213002359F080E28D0F65
:10291000883010F0D11124C0802F0E944E1C0E94DC
:10292000121CDD2009F4BFC10E94E81B80FDBBC161
:10293000F70112820E94E21B0E94E31AC7010E9463
:102940005F160E94E21BDF91CF911F910F91FF90C4
:10295000EF90DF90BF90AF909F908F900C94041BEE
:10296000802F0E945F1CDBCFFC2FFF70BF2EC07F2B
:10297000C03219F0B29480EFB822DD2369F0D13073
:1029800021F1112369F1002329F1F701858180FFED
:10299000B0CF8F7085831EC0112359F08B2D01118C
:1029A00003C00E941114BDCF0130D9F70E947B1CD7
:1029B000B8CF011106C00E947E1C8B2D0E941814F6
:1029C000B0CF013009F4ADCFF6CF112329F0063096
:1029D00008F0A7CF8B2DE5CF053008F0A2CFEDCFC3
:1029E000002359F38D2F0E94C2139BCF8C2F869505
:1029F0008695837079F08130B9F098E0B91609F4C2
:102A000059C0B91608F48DCF86EF8B0D823008F4CB
:102A100051C087CF8D2F9C2F9370111102C090E071
:102A200080E00E94C0117DCF8D2F9C2F93701111DB
:102A300002C090E080E00E94D61173CF8C2F83708B
:102A400009F04BC0111136C02D2F22952695277005
:102A5000220F220F6D2F6F70862E912CB12CA12C7E
:102A6000022E04C0880C991CAA1CBB1C0A94D2F725
:102A700060E070E0CB01D4FF0FC06FE070E080E059
:102A800090E004C0660F771F881F991F2A95D2F720
:102A90006095709580959095C695C695C370C23027
:102AA00071F0A0F4682979298A299B29C13091F015
:102AB0000E94951A0E94A9110E94A20832CF68298B
:102AC00079298A299B290E94A71AF4CF0E94951A76
:102AD000C501B4010E94831AEDCF8695112311F030
:102AE0008C2F8170882331F32D2F22952695277006
:102AF000220F220F6D2F6F70862E912CB12CA12CDE
:102B0000022E04C0880C991CAA1CBB1C0A94D2F784
:102B100060E070E0CB01D4FF0FC06FE070E080E0B8
:102B200090E004C0660F771F881F991F2A95D2F77F
:102B30006095709580959095C695C695C370C23086
:102B400051F080F4682979298A299B29C13071F0D4
:102B50000E945A1BAFCF682979298A299B290E9494
:102B60006C1BA8CF0E945A1BC501B4010E94481BD0
:102B7000A1CFE0E2ED0FE53108F066C0F0E0ED53E3
:102B8000FA4E0C946428D815D815D815D815D81530
:102B9000D815D815D815D815D815D815D815D815CD
:102BA000D815D815D815E915F715FE1505160F1601
:102BB000DF708C2F8F71112331F00E94E31A8D2F5B
:102BC0000E9411141ACF0E94041B8D2F0E9418140A
:102BD00014CF112341F0053008F00FCF8C2F8F71E7
:102BE0000E94271B0ACF063008F007CFF7CF8C2FA3
:102BF0008F71112339F00E94E31AFFCE8C2F8F7151
:102C00001123C9F30E94041BF8CE112329F08C2F45
:102C10008F710E94CE1AF1CE0E94C91AEECE1123F6
:102C200049F0CF718C2F0E94E31A63E08C2F0E9431
:102C3000EC1BE3CE81E00E94F51B023008F4DDCEF0
:102C400082E00E94F51BD9CE112349F0002321F028
:102C50008D2F0E94CB12D1CE8C2F8F71CCCF002321
:102C600079F0D93349F4FFEF27EE83E0F1502040AB
:102C70008040E1F700C000008D2F0E94C213BDCE3E
:102C80008C2F8F71BFCF4C2F4F706D2FC7010E94BB
:102C9000D7050E94FB1945CE4C2F4F706D2FC701F1
:102CA0000E947E053ECEDF91CF911F910F91FF9044
:102CB000EF90DF90BF90AF909F908F9008950F930B
:102CC0001F93CF93DF93EC01988189812B813C8105
:102CD000232B39F08F3F19F481E09F3F19F080E0FA
:102CE00001C081E080FD17C0CE010E94FB05882352
:102CF00091F0688179818A810E94CB1B8C010E94AE
:102D00007E1B0E94801AB801CE01DF91CF911F91E6
:102D10000F910C941F14DF91CF911F910F91089583
:102D20000E94671C0E94781C0E94DC1B0E94121CDF
:102D300090E080E00E94C01190E080E00C94D611F9
:102D40000E94561C0C9490160E94C11BE92FE2951C
:102D5000EF70E250EE30E0F4F0E0EF54F94E0C94F6
:102D60006428BF16BF16C816C816CA16C816C816D5
:102D7000C816BF16BF16CF16C816C816CF16803F86
:102D800019F020F4803E20F481E00895843FE1F3BF
:102D900080E00895803EC0F3813FD1F7F5CF93FBEB
:102DA000882780F90895CF93DF9300D000D01F9239
:102DB000CDB7DEB70F900F900F900F900F90DF916F
:102DC000CF910895CF93DF9300D000D000D0CDB73E
:102DD000DEB726960FB6F894DEBF0FBECDBFDF91EB
:102DE000CF9108951F93CF93DF93C091FC0116E01C
:102DF0008091FD018C1304C0DF91CF911F91089544
:102E0000D0E01C9FF0011D9FF00D1124E250FE4FF9
:102E10004081518162817381848195810E94E21693
:102E20002196C770E5CF40912E0250912F026091FC
:102E300030027091310280913202909133020C94F1
:102E4000E2161F93CF93DF9380913302807FD1F4FA
:102E5000809130028823B1F08091FC01D091FD0176
:102E6000B0912E02C0912F02409131025091320256
:102E7000A1E0BF3F09F0A0E0BA016095709516E0AF
:102E8000D81304C0DF91CF911F91089521E041151F
:102E9000510521F02A2FCF3F09F020E090E020FDDE
:102EA00038C0189FF001199FF00D1124E250FE4F19
:102EB00021812C132EC020812B132BC022812111A4
:102EC00028C0238134812417350700F1241B350BDA
:102ED000283C3105F0F4209133022F7020612093BB
:102EE000330226E0289FF001299FF00D1124ED5FA9
:102EF000FD4F80818F70806180838EE292E00E941E
:102F00005F16DF91CF911F910C94F216260F371F99
:102F1000DFCF01968770B4CFAF92BF92CF92DF928E
:102F2000EF92FF920F931F93CF93DF93CDB7DEB74E
:102F300061970FB6F894DEBF0FBECDBF8C0185E060
:102F4000F801DE011D9601900D928A95E1F7D801F6
:102F50004C9111965C9111971296EC9030912E0243
:102F600060912F02809131029091320221E000970E
:102F700031F06F3F19F421E03F3F09F020E0B22F1C
:102F8000B170BB2E20FD80C1F801C380D480A09019
:102F90003002AA2009F427C1C816D906D0F1D601FB
:102FA000A81BB90BCD01FF24F394883C910508F0D0
:102FB000F12C80913302982F907FFF2009F4CAC032
:102FC000911187C0FE2C651329C0341327C0E1106E
:102FD00025C08F708061809333020E9413178EE2A8
:102FE00092E00E945F1680913302F80185838F2D55
:102FF00061960FB6F894DEBF0FBECDBFDF91CF91C3
:103000001F910F91FF90EF90DF90CF90BF90AF9006
:103010000895809590958C0D9D1DC5CF81E0CD289C
:1030200031F05F3F19F481E04F3F09F080E080FD0F
:1030300024C081E08E25F82FF170DF2E80FF3FC085
:103040008091FC012091FD0136E0821318C04D876C
:103050005E878D859E850E94C11B292F22952F702A
:10306000223008F1243030F59F7009F1D80115960F
:103070009C91907FE1F4FB2CBACF80E0DCCF90E014
:10308000389FF001399FF00D1124E250FE4F61810D
:10309000561306C06081461303C062816E110FC0D3
:1030A00001968770D2CF9F7011F0882321F3805E44
:1030B000883008F3C8010E945F16BD2CDCCFEE20DB
:1030C00009F495CF80913302816080933302F12C13
:1030D0008ECF651312C0341310C0E1100EC0F8017A
:1030E0008583C8010E945F1686E0F801AEE2B2E077
:1030F00001900D928A95E1F741C04D875E878D85DD
:103100009E850E94A416882309F4C8C0EE2009F405
:10311000C5C080913302803270F020912E02309130
:103120002F0238872F831986DB86CA868C87CE01CB
:1031300007960E945F1686E0F801AEE2B2E00190C9
:103140000D928A95E1F70E9421170E941317FF2420
:10315000F3944DCF911115C07C2DD98AC88A6E2D5C
:1031600089890E94D3168EE292E00E945F1686E063
:10317000EEE2F2E0DF011D928A95E9F70E94131753
:1031800036CF651312C0341310C0E1100EC0F80121
:103190008583C8010E945F16EEE2F2E086E0DF015F
:1031A0001D928A95E9F7FA2C22CF4D875E878D858F
:1031B0009E850E94A416882309F470C0EE2009F4AD
:1031C0006DC080913302803208F4B5CF20912E0279
:1031D00030912F023A8329831B82DD82CC828E8339
:1031E000CE010196A6CFC816D90638F1F601E81B24
:1031F000F90BCF01F12C883C910508F03DC0FE2C65
:10320000EE2009F44BC0651326C0341324C080910E
:10321000330280FD17C0982F907FA1F0D80115963A
:103220008C931597903F09F45CCF982F907F905F17
:103230008F70892B15968C9354CF809590958C0D1B
:103240009D1DD8CF86E0F801AEE2B2E001900D926C
:103250008A95E1F7CCCE4D875E878D859E850E944D
:10326000A416811168CF809133028160809333026C
:10327000C8010E945F16BBCE7C2DD98AC88A6E2DEC
:1032800089890E94D31673CFEE2041F04D875E8767
:103290008D859E850E94A41681114DCFC8010E9484
:1032A0005F1655CF1F93CF93DF93CDB7DEB72C9723
:1032B0000FB6F894DEBF0FBECDBF4F835887698726
:1032C0007A878B879C87CE0107960E948C1788236C
:1032D00009F442C09F8188852A853B85232B39F0DC
:1032E0008F3F19F481E09F3F19F080E001C081E039
:1032F00080FD08C04F81588569857A858B859C85BE
:103300000E94E21616E08091FC019091FD01891760
:1033100009F467C0819FC001112482509E4F0E9412
:103320008C17882309F45DC0E091FC011E9FF00119
:103330001124E250FE4F408151816281738184816A
:1033400095810E94E2168091FC0190E001968770C1
:1033500099278093FC01D7CF86E0FE013796DE01E6
:10336000119601900D928A95E1F79F8188852A85B3
:103370003B85232B39F08F3F19F481E09F3F19F0F3
:1033800080E001C081E080FDBDCF2091FD0130E0F3
:10339000C9010196877099274091FC0148171906C9
:1033A00099F096E0929FD001939FB00D1124A25006
:1033B000BE4FFE01319601900D929A95E1F78093F0
:1033C000FD010E94F2169ECF0E94A0161092FD01F0
:1033D0001092FC0186E0EEE2F2E0DF011D928A9598
:1033E000E9F72C960FB6F894DEBF0FBECDBFDF9184
:1033F000CF911F910895EF92FF920F931F93CF9358
:10340000DF938C01892B81F0F12CEE24E394E80109
:103410002196F8018491843770F4843008F05FC0FD
:103420008130B1F08230A1F1DF91CF911F910F91E6
:10343000FF90EF900895853709F44CC008F43DC023
:103440009CE7980F903780F78F770E94C21349C08E
:103450000E5F1F4FFE01849190E2980F983060F448
:103460008770FE2D01C0FF0F8A95EAF78F2F0E940B
:103470006A1C0E94121C02C00E94CB128F2D815028
:1034800030F2EFE9FFE03197F1F700C00000F7CF2D
:103490000E5F1F4FFE01849190E2980F983050F418
:1034A0008770FE2D01C0FF0F8A95EAF78F2F0E94CB
:1034B000701CDFCF0E94C213E1CF0E5F1F4FFE01D1
:1034C000C491C150D8F28FE99FE00197F1F700C095
:1034D0000000F7CF0E5F1F4FFE01F490CFCF0E9488
:1034E000CB128E01CBCF08950E94731A60933802DD
:1034F0007093390280933A0290933B020C94901699
:1035000008950C94741A0F931F9300913802109130
:10351000390220913A0230913B02602B712B822BB1
:10352000932B1F910F910C94741A0F931F9300917A
:1035300038021091390220913A0230913B02602307
:103540007123822393231F910F910C94741A0F936C
:103550001F93009138021091390220913A02309164
:103560003B0260277127822793271F910F910C94AC
:10357000741A0C94731A0C94B91A0E94BB1A6093B3
:1035800034027093350280933602909337020C9484
:10359000901660E070E0CB010C94BD1A0F931F935E
:1035A00041E050E060E070E08A019B0104C0000F40
:1035B000111F221F331F8A95D2F7C901B8011F912D
:1035C0000F910C94BD1A0F931F9341E050E060E0FF
:1035D00070E004C0440F551F661F771F8A95D2F70D
:1035E0008091340290913502A0913602B091370259
:1035F0008A019B01082B192B2A2B3B2BC901B801EF
:103600001F910F910C94BD1A0F931F9341E050E04E
:1036100060E070E004C0440F551F661F771F8A9555
:10362000D2F7CB01BA016095709580959095009185
:103630003402109135022091360230913702602316
:103640007123822393231F910F910C94BD1A0F9322
:103650001F9341E050E060E070E004C0440F551F4C
:10366000661F771F8A95D2F78091340290913502B8
:10367000A0913602B09137028A019B0108271927D1
:103680002A273B27C901B8011F910F910C94BD1A3D
:103690000F931F930091340210913502209136024E
:1036A00030913702602B712B822B932B1F910F913E
:1036B0000C94BD1A0F931F930091340210913502A0
:1036C00020913602309137026023712382239323A5
:1036D0001F910F910C94BD1A0F931F930091340208
:1036E0001091350220913602309137026027712700
:1036F000822793271F910F910C94BD1A0895BF92B2
:10370000CF92DF92EF92FF920F931F93CF93DF93AD
:103710008C01C0903402D0903502E0903602F090D7
:1037200037028091380290913902A0913A02B0910B
:103730003B02C82AD92AEA2AFB2ACFE1D0E0BC2ED4
:10374000D701C6010C2E04C0B695A795979587950D
:103750000A94D2F780FD0EC0219788F7B12C8B2DEB
:10376000DF91CF911F910F91FF90EF90DF90CF905D
:10377000BF900895B8018C2F0E94C008019761F393
:10378000EECFCF93DF93EC010E947F1BBE01DF9150
:10379000CF910C94C008CB010C94C11B682F809171
:1037A0000801909109010C94F71C682F8091080181
:1037B000909109010C94F91C8091080190910901E4
:1037C0000C94FB1C80913C02859585958595089508
:1037D00080913C028770089598E0899F90011124A0
:1037E000622B60933C020C94E31A90913C0280950A
:1037F000892380933C02282F277061F4282F082EFC
:10380000000C330B9217130629F085958595859545
:103810000C94041B089590913C02977081E009F488
:1038200080E00895E0910801F0910901809148023B
:103830008083E0910801F091090180819091470215
:10384000892B8083E0910801F0910901808190919A
:103850004602892B808390913D02992381F0E0916B
:103860000801F09109018081892B808380910801F2
:10387000909109010E94C31C811110923D02809118
:103880000801909109010C94B511809148020895A6
:1038900090914802892B809348020895982F909523
:1038A000809148028923809348020895109248022B
:1038B000089590914702892B809347020895982F8D
:1038C0009095809147028923809347020895109232
:1038D0004702089590914602892B809346020895ED
:1038E000982F9095809146028923809346020895EF
:1038F00010924602089580933D02089510923D0271
:1039000008956DEE7EEF90E080E00E94E42960E093
:1039100082E090E00E94C62960E083E090E00E948F
:10392000C62960E084E090E00E94C62960E085E05E
:1039300090E00E94C62940E050E0BA0188E090E0A3
:103940000C94D82990E080E00E94C02921E08D3EAF
:103950009E4F09F020E0822F089582E090E00C94C1
:10396000B22983E090E00C94B229682F83E090E0C4
:103970000C94C62984E090E00C94B229682F84E06E
:1039800090E00C94C629FC0131969C01285F3F4FC2
:1039900080E0919191118F5FE217F307D1F70895BD
:1039A0009C01FC0132969FEF80E04191461751F057
:1039B0009F3F19F4411101C0982F8F5F8630A9F7FE
:1039C0009F3F09F40895290F311D97FD3A95F9019C
:1039D00062830895FC01329608962191261303C054
:1039E000DF0111971C92E817F907B9F708950C94B5
:1039F000D01C0C94EA1CFC011182128213821482E6
:103A00001582168217820895089508950895CF9318
:103A10000E94051D0E949E0B0E94061DC0E08C2F77
:103A20000E943C0C811105C0CF5FC630C1F7CF9119
:103A3000089581E0FCCF0E94A0160E94A9110C9469
:103A4000A20882E084BD93E095BD9AEF97BD809374
:103A50006E0008952FB7F8948091D4029091D5020A
:103A6000A091D602B091D7022FBF0895CF92DF92D6
:103A7000EF92FF920F931F932FB7F8944091D402C7
:103A80005091D5026091D6027091D7022FBF6A0182
:103A90007B01EE24FF248C0130E020E0C016D1062B
:103AA000E206F30650F0481B590BCA011F910F9113
:103AB000FF90EF90DF90CF90089541505109F3CFE0
:103AC00078941F920F920FB60F9211248F939F93A9
:103AD000AF93BF938091D4029091D502A091D6026A
:103AE000B091D7020196A11DB11D8093D40290938D
:103AF000D502A093D602B093D702BF91AF919F9108
:103B00008F910F900FBE0F901F90189581E08093BA
:103B1000E00080E28093D8001092C9008FE19EE41B
:103B20000197F1F700C0000087E090EBDC01809383
:103B3000EB029093EC02A093ED02B093EE0288E1C9
:103B40009CE00FB6F894A895809360000FBE909308
:103B50006000FFCF0E94A21C811102C00E94811C44
:103B60000E94AD1C809349020E94BA1C90E0909381
:103B7000D9028093D8020E94B11C682F70E090E0B7
:103B800080E00C94811AE1E8F0E080818860808315
:103B90008081816080838FB7F89493E0909389004F
:103BA00090ED909388008FBF0895EFE6F0E080815C
:103BB000826080830895EFE6F0E080818D7F8083CE
:103BC00008951F920F920FB60F9211242F933F93D7
:103BD0004F935F936F937F938F939F93AF93BF9315
:103BE000EF93FF9380914A0290914B02019690933C
:103BF0004B0280934A02811103C082E00E94A20816
:103C0000E0914B02E695E695F0E0E459FD4FE49132
:103C100080914A028E1303C080E00E94A208FF91A7
:103C2000EF91BF91AF919F918F917F916F915F9134
:103C30004F913F912F910F900FBE0F901F901895AD
:103C400080915402089508950F931F93CF93DF93AB
:103C500000D01F92CDB7DEB78C010E944420823085
:103C600011F0843021F583E089831B830A8382E08D
:103C70008093E9008FEF9091E800815095FD06C098
:103C800095ED9A95F1F700008111F5CF8091E8004C
:103C900085FF0DC050E040E063E070E0CE0101968A
:103CA0000E9461208091E8008E778093E8000F9059
:103CB0000F900F90DF91CF911F910F910895CF93A7
:103CC000DF9300D01F92CDB7DEB72091DE02243003
:103CD00029F522E02983805891099B838A832093C8
:103CE000E9008FEF9091E800815095FD06C095EDB9
:103CF0009A95F1F700008111F5CF8091E80085FFDA
:103D00000DC050E040E063E070E0CE0101960E94FB
:103D100061208091E8008E778093E8000F900F90EB
:103D20000F90DF91CF910895CF93DF93EC010E9424
:103D30004420823011F0843039F581E08093E9002D
:103D40008FEF9091E800815095FD06C095ED9A9512
:103D5000F1F700008111F5CF8091E80085FF14C0D4
:103D600050E040E068E070E0CE010E946120809168
:103D7000E8008E778093E80088E0FE01ACE4B2E0D2
:103D800001900D928A95E1F7DF91CF91089580918E
:103D9000DD02811109C00E94F1210E944E22809112
:103DA000E20084608093E20008951092DD0208959D
:103DB00008950C94D51D0E941B1D0E94DB1D0E94BE
:103DC000A9110C94A20842E061EC81E00E946F21ED
:103DD00042E061EC82E00C946F218091E00283303C
:103DE00009F452C030F4813059F1823009F48EC0A8
:103DF00008958A3009F47AC08B3009F460C08930A4
:103E000009F041C08091DF028132E9F58091E3023F
:103E10009091E402892BB9F58091E800877F809327
:103E2000E8008091E80082FF2AC08091F100809331
:103E300054028091E8008B778093E8000C94A321D2
:103E40008091DF02813AF9F48091E800877F8093C6
:103E5000E8008091E3029091E402892B61F468E02C
:103E60008CE492E070E00E94B0208091E8008B77B3
:103E70008093E800089560E090E080E0F3CF8091C7
:103E8000DE028111CECF08958091DF02813AD9F709
:103E90008091E3029091E402892BA9F78091E800D8
:103EA000877F8093E8008091E80080FFFCCF8091BD
:103EB00014018093F1008091E8008E77BDCF80914E
:103EC000DF02813201F78091E3029091E402892BB5
:103ED000D1F68091E800877F8093E8000E94A321BB
:103EE0008091E102809314010C94A0168091DF026E
:103EF000813249F68091E800877F8093E8000E9434
:103F0000A3218091E2028093550208958091DF02FF
:103F1000813A09F0B8CF8091E800877F8093E8006C
:103F20008091E80080FFFCCF80915502C2CF84B71A
:103F3000877F84BF0FB6F894A89580916000886150
:103F400080936000109260000FBE80E88093610053
:103F5000109261000E94ED110E94F1210E944E22F8
:103F60008091E20084608093E20078940E94D724DC
:103F70000E94F1118AE091E00E94A4110E94C31DE9
:103F80008091DE02853029F00E94F9110E946D11A6
:103F9000F7CF0E94041D8091DC02882389F30E94E0
:103FA000071D882369F30E944B20EACF0C94D81F89
:103FB000292F33272330310571F158F42130310591
:103FC000E9F02230310511F190E080E030E020E0AE
:103FD00019C021323105C1F122323105A9F780E43F
:103FE00090E029E633E06115710561F086E390E029
:103FF00023E333E06130710529F0E6CF82E190E000
:1040000021E233E0FA013183208308958BE390E0CD
:1040100026EE32E0F7CF99278130910579F040F014
:104020008230910571F0039779F6ECEAF2E002C074
:10403000E2EEF2E0849190E09F01E4CFE8ECF2E060
:10404000F9CFE2EBF2E0F6CF89E090E028EF32E042
:1040500061157105B9F289E090E021E133E061304A
:10406000710581F2B1CF0895CF93C82F0E943320FC
:10407000C0935602CF9108958091DE02843011F0F2
:1040800081E0089582E0089580915602811102C076
:104090000C943C20089580E189BD82E189BD09B47A
:1040A00000FEFDCF8091D8008F7D8093D800809155
:1040B000E00082608093E0008091E00081FDFCCF11
:1040C0000895AF92BF92CF92DF92FF920F931F930A
:1040D000CF93DF936C01EB018A010E94C221F82E7D
:1040E000811123C00115110539F0F80180819181FA
:1040F000C81BD90BC80ED91EB12CA12C2097A9F032
:104100008091E80085FD22C08091E8008E77809341
:10411000E80001151105A1F0F80180819181A80E38
:10412000B91EB182A08285E0F82E8F2DDF91CF914C
:104130001F910F91FF90DF90CF90BF90AF900895A7
:104140000E94C2218823D1F2F82EEFCFF60181918F
:104150006F018093F1002197FFEFAF1ABF0ACECF16
:10416000FC018091E5029091E60286179707A0F086
:104170006115710529F49091E8009E779093E8000D
:1041800090E06115710551F4911108C08091E8002B
:1041900082FF35C080E00895BC01F2CF8091DE023D
:1041A0008823C9F18530C9F18091E80083FD31C0D1
:1041B0008091E80082FDEACF8091E80080FFE1CFA6
:1041C0002091F3008091F200322F282F61157105A4
:1041D00019F02830310558F091E02830310509F008
:1041E00090E02091E8002E772093E800CACF8191DB
:1041F0008093F100615071092F5F3F4FE7CF8091AD
:10420000DE02882341F0853041F08091E80083FF91
:10421000BDCF81E0089582E0089583E00895FC0118
:104220008091E5029091E60286179707A0F061154C
:10423000710529F48091E8008E778093E80090E082
:104240006115710551F4911108C08091E80082FF59
:1042500036C080E00895BC01F2CF8091DE02882351
:10426000D1F18530D1F18091E80083FD32C0809199
:10427000E80082FDEACF8091E80080FFE1CF209145
:10428000F3008091F200322F282F6115710519F08B
:104290002830310558F091E02830310509F090E0E0
:1042A0008091E8008E778093E800CACF8491809354
:1042B000F1003196615071092F5F3F4FE6CF809139
:1042C000DE02882341F0853041F08091E80083FFD1
:1042D000BCCF81E0089582E0089583E00895982F8F
:1042E000973028F08F708093E90081E008959093D3
:1042F000E900242F762F50E0981731F07091EC00F0
:104300002091ED005091F00021FD02C09F5FE8CFA9
:104310003091EB003E7F3093EB003091ED003D7F1C
:104320003093ED003091EB0031603093EB007093EF
:10433000EC002093ED005093F0002091EE0027FD5B
:10434000E5CF80E008958091DF0287FF13C0809160
:10435000E80082FF06C08091E8008B778093E80038
:1043600004C08091DE028111F2CF08958091DE02B7
:104370008823D9F38091E80080FFF8CF8091E8008E
:104380008E77ECCF2091E4003091E50085E69091A6
:10439000EC0090FF06C09091E80090FF06C080E01E
:1043A00008959091E80092FDFACF9091DE02992352
:1043B00091F0953091F09091EB0095FD10C04091F7
:1043C000E4005091E5002417350709F381509A0164
:1043D000F1F684E0089582E0089583E0089581E095
:1043E00008950E945F220E946722E0EEF0E0808143
:1043F00081608083E8EDF0E080818F77808319BC55
:10440000A7EDB0E08C918E7F8C9380818F7E80832E
:104410001092DD0208950F931F93CF93DF930E94B4
:104420005F220E946722C8EDD0E088818F77888361
:1044300088818068888388818F7D888319BC1092E9
:10444000DE021092DA021092DC021092DB0200EE21
:1044500010E0F80180818B7F808388818160888370
:1044600042E060E080E00E946F21E1EEF0E08081B8
:104470008E7F8083E2EEF0E08081816080838081A6
:1044800088608083F80180818E7F8083888180614D
:104490008883DF91CF911F910F910895E8EDF0E0AF
:1044A00080818F7E8083E7EDF0E080818160808372
:1044B00084E082BF81E08093DD020C940B22E8ED62
:1044C000F0E080818E7F80831092E2000895109248
:1044D000DA001092E10008951F920F920FB60F922A
:1044E00011242F933F934F935F936F937F938F93F9
:1044F0009F93AF93BF93EF93FF938091E10082FF6F
:104500000BC08091E20082FF07C08091E1008B7FA9
:104510008093E1000E94D6248091DA0080FF19C0C8
:104520008091D80080FF15C08091DA008E7F809343
:10453000DA008091D90080FF94C080E189BD82E1DA
:1045400089BD09B400FEFDCF81E08093DE020E94A8
:10455000C71E8091E10080FF19C08091E20080FFBA
:1045600015C08091E2008E7F8093E2008091E2008E
:1045700080618093E2008091D80080628093D800AF
:1045800019BC85E08093DE020E94D91E8091E10073
:1045900084FF29C08091E20084FF25C080E189BDAD
:1045A00082E189BD09B400FEFDCF8091D8008F7DE6
:1045B0008093D8008091E1008F7E8093E10080910C
:1045C000E2008F7E8093E2008091E2008160809320
:1045D000E2008091DA02882309F449C084E08093E4
:1045E000DE020E94DB1E8091E10083FF29C08091E2
:1045F000E20083FF25C08091E100877F8093E10086
:1046000082E08093DE021092DA028091E1008E7FD8
:104610008093E1008091E2008E7F8093E2008091A0
:10462000E20080618093E20042E060E080E00E946E
:104630006F218091F00088608093F0000E94D81E66
:10464000FF91EF91BF91AF919F918F917F916F916A
:104650005F914F913F912F910F900FBE0F901F9040
:10466000189519BC1092DE020E94D51E72CF80915F
:10467000E30087FD02C081E0B2CF83E0B0CF1F929C
:104680000F920FB60F9211242F933F934F935F9386
:104690006F937F938F939F93AF93BF93CF93EF933A
:1046A000FF93C091E900CF708091EC001092E90077
:1046B0008091F000877F8093F00078940E947B23A4
:1046C0001092E9008091F00088608093F000C09320
:1046D000E900FF91EF91CF91BF91AF919F918F91A1
:1046E0007F916F915F914F913F912F910F900FBEEE
:1046F0000F901F9018951F93CF93DF93CDB7DEB720
:10470000AA970FB6F894DEBF0FBECDBFEFEDF2E073
:104710008091F100819322E0E73EF207C9F70E9401
:10472000ED1E8091E80083FF44C08091DF029091EC
:10473000E0029A3008F03DC0E92FF0E0EE55FC4D64
:104740000C946428AC23D223D923D223D923302438
:104750005224D923A924B624803889F0823849F517
:104760008091E3028F70873020F58093E90080917B
:10477000EB0085FB882780F91092E90006C0809144
:10478000DB029091DC02911182609091E800977FAA
:104790009093E8008093F1001092F1008091E8007E
:1047A0008E772DC0282F2D7F21F48823D1F08230E1
:1047B00059F18091E80083FF0AC08091E800877F6B
:1047C0008093E8008091EB0080628093EB00AA96D2
:1047D0000FB6F894DEBF0FBECDBFDF91CF911F9112
:1047E00008958091E102813021F7933009F080E053
:1047F0008093DC021092E9008091E800877F80932B
:10480000E8000E94A321D5CF8091E1028111F2CF6F
:104810008091E3028F702FEF280F263050F680939F
:10482000E9002091EB0020FFE5CF933031F4809137
:10483000EB0080628093EB00DDCF9091EB00906104
:104840009093EB0021E030E001C0220F8A95EAF757
:104850002093EA001092EA008091EB008860EACF92
:104860008111A7CF1091E1021F778091E30080783A
:10487000812B8093E3008091E800877F8093E8009C
:104880000E94A3218091E80080FFFCCF8091E3008B
:1048900080688093E30083E0111101C082E080937F
:1048A000DE0287CF8058823008F083CF8091E1020A
:1048B0009091E2028C3D23E09207A1F583E08A8388
:1048C0008AE289834FB7F894DE01139620E03EE038
:1048D00051E2E32FF0E050935700E49120FF03C032
:1048E000E295EF703F5FEF708E2F90E0EA30C0F0FE
:1048F000C7968D939D932F5F243159F74FBF8091B9
:10490000E800877F8093E8006AE270E0CE010196BC
:104910000E94B0208091E8008B778093E80049CF17
:10492000C096E7CF6091E3027091E402AE014F5F61
:104930005F4F0E94D61FBC01892B09F43ACF90919A
:10494000E800977F9093E80089819A810E940F2167
:10495000E1CF803809F02DCF8091E800877F8093E8
:10496000E8008091DA028093F10018CF811121CF05
:104970009091E102923008F01CCF8091E800877F8F
:104980008093E8009093DA020E94A3218091DA02DA
:10499000882331F084E08093DE020E94E31E09CF79
:1049A0008091E30087FDF6CF81E0F5CF0895CF93A6
:1049B0008091DE02882399F0C091E900CF70809148
:1049C000EC0080FD0EC080E0C82B1092E9008091C1
:1049D000E80083FD0E947B23CF70C093E900CF9154
:1049E000089580E8F1CF5058BB27AA270E940B25D5
:1049F0000C94B6260E94A82638F00E94AF2620F01C
:104A000039F49F3F19F426F40C947E260EF4E095B9
:104A1000E7FB0C947826E92F0E94C72658F3BA17B3
:104A2000620773078407950720F079F4A6F50C94C4
:104A3000E9260EF4E0950B2EBA2FA02D0B01B9013B
:104A400090010C01CA01A0011124FF27591B99F004
:104A5000593F50F4503E68F11A16F040A22F232F10
:104A6000342F4427585FF3CF469537952795A79560
:104A7000F0405395C9F77EF41F16BA0B620B730B07
:104A8000840BBAF09150A1F0FF0FBB1F661F771F78
:104A9000881FC2F70EC0BA0F621F731F841F48F42D
:104AA000879577956795B795F7959E3F08F0B0CFB6
:104AB0009395880F08F09927EE0F9795879508959D
:104AC0000E9474250C94B6260E94AF2658F00E94CE
:104AD000A82640F029F45F3F29F00C947826511164
:104AE0000C94EA260C947E260E94C72668F399232C
:104AF000B1F3552391F3951B550BBB27AA276217DA
:104B00007307840738F09F5F5F4F220F331F441FE6
:104B1000AA1FA9F335D00E2E3AF0E0E832D091501A
:104B20005040E695001CCAF72BD0FE2F29D0660F07
:104B3000771F881FBB1F261737074807AB07B0E84A
:104B400009F0BB0B802DBF01FF2793585F4F3AF050
:104B50009E3F510578F00C9478260C94EA265F3F2E
:104B6000E4F3983ED4F3869577956795B795F795D6
:104B70009F5FC9F7880F911D9695879597F90895BE
:104B8000E1E0660F771F881FBB1F6217730784075A
:104B9000BA0720F0621B730B840BBA0BEE1F88F769
:104BA000E095089529F416F00C9478260C94E926E3
:104BB0000C947E260E94CF26A8F39638A0F707F81B
:104BC0000F92E8942BE33AEA48EB5FE70E947C27D8
:104BD0000F920F920F924DB75EB70F920E9432273D
:104BE000ECEAF0E00E9481264F915F91EF91FF91F6
:104BF000E595EE1FFF1F49F0FE57E0684427EE0FD2
:104C0000441FFA95E1F74195550B0E94FC260F9041
:104C100007FE0C94F02608950E94CF2688F09F5737
:104C200098F0B92F9927B751B0F0E1F0660F771FD0
:104C3000881F991F1AF0BA95C9F714C0B13091F0C6
:104C40000E94E926B1E008950C94E926672F782F99
:104C50008827B85F39F0B93FCCF38695779567958B
:104C6000B395D9F73EF490958095709561957F4FF7
:104C70008F4F9F4F0895E89409C097FB3EF490959D
:104C80008095709561957F4F8F4F9F4F9923A9F025
:104C9000F92F96E9BB279395F695879577956795B4
:104CA000B795F111F8CFFAF4BB0F11F460FF1BC0F8
:104CB0006F5F7F4F8F4F9F4F16C0882311F096E98B
:104CC00011C0772321F09EE8872F762F05C0662339
:104CD00071F096E8862F70E060E02AF09A95660FF2
:104CE000771F881FDAF7880F9695879597F90895AB
:104CF00097F99F6780E870E060E008959FEF80EC8F
:104D00000895DF93CF931F930F93FF92EF92DF925B
:104D10007B018C01689406C0DA2EEF010E9479278E
:104D2000FE01E894A5912591359145915591A6F301
:104D3000EF010E940B25FE019701A801DA9469F7A3
:104D4000DF90EF90FF900F911F91CF91DF91089529
:104D500000240A941616170618060906089500245A
:104D60000A9412161306140605060895092E0394D4
:104D7000000C11F4882352F0BB0F40F4BF2B11F448
:104D800060FF04C06F5F7F4F8F4F9F4F089557FDA7
:104D90009058440F551F59F05F3F71F04795880FA9
:104DA00097FB991F61F09F3F79F087950895121640
:104DB00013061406551FF2CF4695F1DF08C01616EC
:104DC00017061806991FF1CF86957105610508949D
:104DD0000895E894BB2766277727CB0197F90895B4
:104DE0009B01AC0160E070E080E89FE30C946025DB
:104DF0000C9478260C94DB270E94CF26D8F39923B5
:104E0000C9F3940F511DA3F39150504094F059F001
:104E1000882332F0660F771F881F91505040C1F7EA
:104E20009E3F51052CF7880F911D9695879597F910
:104E300008955F3FACF0983E9CF0BB278695779530
:104E40006795B79508F4B1609395C1F7BB0F58F714
:104E500011F460FFE8CF6F5F7F4F8F4F9F4FE3CF1D
:104E60000C94EA26FA01DC01AA0FBB1F9B01AC01DE
:104E7000BF5728F4222733274427507820C0B75142
:104E800090F4AB2F0024469537952795011CA395E8
:104E9000D2F3002071F0220F331F441FB395DAF3D1
:104EA0000ED00C94F32461307105A0E88A07B9464E
:104EB00030F49B01AC0166277727882790783096DD
:104EC00021F0208331834283538308950E94792700
:104ED0000C94B6260E94A82638F00E94AF2620F037
:104EE000952311F00C9478260C947E2611240C94B2
:104EF000EA260E94C72670F3959FC1F3950F50E0F4
:104F0000551F629FF001729FBB27F00DB11D639F7B
:104F1000AA27F00DB11DAA1F649F6627B00DA11D21
:104F2000661F829F2227B00DA11D621F739FB00DC7
:104F3000A11D621F839FA00D611D221F749F332737
:104F4000A00D611D231F849F600D211D822F762FD0
:104F50006A2F11249F5750409AF0F1F088234AF0AD
:104F6000EE0FFF1FBB1F661F771F881F9150504019
:104F7000A9F79E3F510580F00C9478260C94EA2600
:104F80005F3FE4F3983ED4F3869577956795B795A0
:104F9000F795E7959F5FC1F7FE2B880F911D9695BA
:104FA000879597F908959F930E94EB270F9007FC30
:104FB000EE5F0C9414289F3F31F0915020F48795B8
:104FC00077956795B795880F911D9695879597F971
:104FD00008950C947E260E94CF26D8F3E894E0E052
:104FE000BB279F57F0F02AED3FE049EC06C0EE0FDB
:104FF000BB0F661F771F881F28F0B23A620773073E
:10500000840728F0B25A620B730B840BE3959A95D0
:1050100072F7803830F49A95BB0F661F771F881F90
:10502000D2F790480C94DD27EF93E0FF07C0A2EA87
:105030002AED3FE049EC5FEB0E940B250E94B6266B
:105040000F90039401FC9058E4EDF0E00C942828B4
:105050009F938F937F936F93FF93EF939B01AC018B
:105060000E946627EF91FF910E9481262F913F9128
:105070004F915F910C946627AA1BBB1B51E107C09F
:10508000AA1FBB1FA617B70710F0A61BB70B881FD8
:10509000991F5A95A9F780959095BC01CD01089567
:1050A00097FB072E16F4009407D077FD09D00E94D5
:1050B0003C2807FC05D03EF4909581959F4F0895BC
:1050C000709561957F4F0895EE0FFF1F0590F49145
:1050D000E02D09940F931F93CF93DF93869F800158
:1050E000879F100D969F100D1124C8010E948628DD
:1050F000EC01009729F0A80170E060E00E94AB2964
:10510000CE01DF91CF911F910F9108950F931F93BF
:10511000CF93DF938230910510F482E090E0E0912C
:10512000E902F091EA0230E020E0B0E0A0E0309740
:1051300099F42115310509F44AC0281B390B243094
:105140003105D8F58A819B816115710589F1FB01D3
:1051500093838283FE0111C04081518102811381BA
:1051600048175907E0F04817590799F4109761F06C
:1051700012960C93129713961C933296CF01DF91DF
:10518000CF911F910F9108950093E9021093EA02C5
:10519000F4CF2115310551F04217530738F0A9011A
:1051A000DB019A01BD01DF01F801C1CFEF01F9CFA9
:1051B0009093EA028093E902CDCFFE01E20FF31F44
:1051C000819391932250310939832883D7CF20913D
:1051D000E7023091E802232B41F420910201309143
:1051E00003013093E8022093E702209100013091FF
:1051F00001012115310541F42DB73EB7409104015D
:1052000050910501241B350BE091E702F091E80273
:10521000E217F307A0F42E1B3F0B2817390778F08D
:10522000AC014E5F5F4F2417350748F04E0F5F1FEC
:105230005093E8024093E702819391939FCFF0E06F
:10524000E0E09CCFCF93DF930097E9F0FC01329729
:1052500013821282A091E902B091EA02ED0130E0DE
:1052600020E01097A1F420813181820F931F2091BB
:10527000E7023091E8022817390709F061C0F0937E
:10528000E802E093E702DF91CF910895EA01CE179B
:10529000DF07E8F54A815B819E0141155105B1F7B1
:1052A000E901FB83EA8349915991C40FD51FEC179B
:1052B000FD0761F4808191810296840F951FE901B9
:1052C00099838883828193819B838A83F0E0E0E0E5
:1052D00012968D919C9113970097B9F52D913C9161
:1052E0001197CD010296820F931F2091E702309112
:1052F000E8022817390739F6309751F51092EA027B
:105300001092E902B093E802A093E702BCCFD383E6
:10531000C28340815181840F951FC817D90761F45A
:105320004E5F5F4F88819981480F591F5183408399
:105330008A819B81938382832115310509F0B0CF47
:10534000F093EA02E093E9029ECFFD01DC01C0CFB9
:1053500013821282D7CFDC0101C06D9341505040BF
:10536000E0F70895F999FECF92BD81BDF89A99278B
:1053700080B50895A6E1B0E044E050E00C94EC293B
:10538000A8E1B0E042E050E00C94EC29262FF99916
:10539000FECF92BD81BDF89A019700B4021639F094
:1053A0001FBA20BD0FB6F894FA9AF99A0FBE089565
:1053B0000396272F0E94C7290E94C629252F0E94E5
:1053C000C729242F0C94C7290196272F0E94C7298B
:1053D0000C94C629DC01CB01FC01F999FECF06C073
:1053E000F2BDE1BDF89A319600B40D9241505040A3
:0853F000B8F70895F894FFCF0F
:1053F8000000EF02200001023E02201E941E231E20
:105408005F1E241E010000000000000101020302CB
:10541800040201020203040301030203030401045A
:105428000204030501050205030601060206030737
:10543800010702070308010802080301090108011E
:1054480007020902080207030903080307040904FD
:1054580008040705090508050706090608060707D9
:105468000907080606080907070706200102031F9F
:105478001E05061C1B070811120913150B0C160E26
:10548800101A04190D18140001F1F0949695F4F609
:04549800F76766004C
:00000001FF
